{
	"contracts/LiskGarden.sol": {
		"LiskGarden": {
			"abi": [
				{
					"inputs": [],
					"stateMutability": "nonpayable",
					"type": "constructor"
				},
				{
					"anonymous": false,
					"inputs": [
						{
							"indexed": true,
							"internalType": "uint256",
							"name": "plantId",
							"type": "uint256"
						}
					],
					"name": "PlantDied",
					"type": "event"
				},
				{
					"anonymous": false,
					"inputs": [
						{
							"indexed": true,
							"internalType": "uint256",
							"name": "plantId",
							"type": "uint256"
						},
						{
							"indexed": true,
							"internalType": "address",
							"name": "owner",
							"type": "address"
						},
						{
							"indexed": false,
							"internalType": "uint256",
							"name": "reward",
							"type": "uint256"
						}
					],
					"name": "PlantHarvested",
					"type": "event"
				},
				{
					"anonymous": false,
					"inputs": [
						{
							"indexed": true,
							"internalType": "address",
							"name": "owner",
							"type": "address"
						},
						{
							"indexed": true,
							"internalType": "uint256",
							"name": "plantId",
							"type": "uint256"
						}
					],
					"name": "PlantSeeded",
					"type": "event"
				},
				{
					"anonymous": false,
					"inputs": [
						{
							"indexed": true,
							"internalType": "uint256",
							"name": "plantId",
							"type": "uint256"
						},
						{
							"indexed": false,
							"internalType": "uint8",
							"name": "newWaterLevel",
							"type": "uint8"
						}
					],
					"name": "PlantWatered",
					"type": "event"
				},
				{
					"anonymous": false,
					"inputs": [
						{
							"indexed": true,
							"internalType": "uint256",
							"name": "plantId",
							"type": "uint256"
						},
						{
							"indexed": false,
							"internalType": "enum LiskGarden.GrowthStage",
							"name": "newStage",
							"type": "uint8"
						}
					],
					"name": "StageAdvanced",
					"type": "event"
				},
				{
					"inputs": [],
					"name": "HARVEST_REWARD",
					"outputs": [
						{
							"internalType": "uint256",
							"name": "",
							"type": "uint256"
						}
					],
					"stateMutability": "view",
					"type": "function"
				},
				{
					"inputs": [],
					"name": "PLANT_PRICE",
					"outputs": [
						{
							"internalType": "uint256",
							"name": "",
							"type": "uint256"
						}
					],
					"stateMutability": "view",
					"type": "function"
				},
				{
					"inputs": [],
					"name": "STAGE_DURATION",
					"outputs": [
						{
							"internalType": "uint256",
							"name": "",
							"type": "uint256"
						}
					],
					"stateMutability": "view",
					"type": "function"
				},
				{
					"inputs": [],
					"name": "WATER_DEPLETION_RATE",
					"outputs": [
						{
							"internalType": "uint8",
							"name": "",
							"type": "uint8"
						}
					],
					"stateMutability": "view",
					"type": "function"
				},
				{
					"inputs": [],
					"name": "WATER_DEPLETION_TIME",
					"outputs": [
						{
							"internalType": "uint256",
							"name": "",
							"type": "uint256"
						}
					],
					"stateMutability": "view",
					"type": "function"
				},
				{
					"inputs": [
						{
							"internalType": "uint256",
							"name": "plantId",
							"type": "uint256"
						}
					],
					"name": "calculateWaterLevel",
					"outputs": [
						{
							"internalType": "uint8",
							"name": "",
							"type": "uint8"
						}
					],
					"stateMutability": "view",
					"type": "function"
				},
				{
					"inputs": [],
					"name": "deposit",
					"outputs": [],
					"stateMutability": "payable",
					"type": "function"
				},
				{
					"inputs": [
						{
							"internalType": "uint256",
							"name": "plantId",
							"type": "uint256"
						}
					],
					"name": "getPlant",
					"outputs": [
						{
							"components": [
								{
									"internalType": "uint256",
									"name": "id",
									"type": "uint256"
								},
								{
									"internalType": "address",
									"name": "owner",
									"type": "address"
								},
								{
									"internalType": "enum LiskGarden.GrowthStage",
									"name": "stage",
									"type": "uint8"
								},
								{
									"internalType": "uint256",
									"name": "plantedDate",
									"type": "uint256"
								},
								{
									"internalType": "uint256",
									"name": "lastWatered",
									"type": "uint256"
								},
								{
									"internalType": "uint8",
									"name": "waterLevel",
									"type": "uint8"
								},
								{
									"internalType": "bool",
									"name": "exists",
									"type": "bool"
								},
								{
									"internalType": "bool",
									"name": "isDead",
									"type": "bool"
								}
							],
							"internalType": "struct LiskGarden.Plant",
							"name": "",
							"type": "tuple"
						}
					],
					"stateMutability": "view",
					"type": "function"
				},
				{
					"inputs": [
						{
							"internalType": "address",
							"name": "user",
							"type": "address"
						}
					],
					"name": "getUserPlants",
					"outputs": [
						{
							"internalType": "uint256[]",
							"name": "",
							"type": "uint256[]"
						}
					],
					"stateMutability": "view",
					"type": "function"
				},
				{
					"inputs": [
						{
							"internalType": "uint256",
							"name": "plantId",
							"type": "uint256"
						}
					],
					"name": "harvestPlant",
					"outputs": [],
					"stateMutability": "nonpayable",
					"type": "function"
				},
				{
					"inputs": [],
					"name": "owner",
					"outputs": [
						{
							"internalType": "address",
							"name": "",
							"type": "address"
						}
					],
					"stateMutability": "view",
					"type": "function"
				},
				{
					"inputs": [],
					"name": "plantCounter",
					"outputs": [
						{
							"internalType": "uint256",
							"name": "",
							"type": "uint256"
						}
					],
					"stateMutability": "view",
					"type": "function"
				},
				{
					"inputs": [],
					"name": "plantSeed",
					"outputs": [
						{
							"internalType": "uint256",
							"name": "",
							"type": "uint256"
						}
					],
					"stateMutability": "payable",
					"type": "function"
				},
				{
					"inputs": [
						{
							"internalType": "uint256",
							"name": "",
							"type": "uint256"
						}
					],
					"name": "plants",
					"outputs": [
						{
							"internalType": "uint256",
							"name": "id",
							"type": "uint256"
						},
						{
							"internalType": "address",
							"name": "owner",
							"type": "address"
						},
						{
							"internalType": "enum LiskGarden.GrowthStage",
							"name": "stage",
							"type": "uint8"
						},
						{
							"internalType": "uint256",
							"name": "plantedDate",
							"type": "uint256"
						},
						{
							"internalType": "uint256",
							"name": "lastWatered",
							"type": "uint256"
						},
						{
							"internalType": "uint8",
							"name": "waterLevel",
							"type": "uint8"
						},
						{
							"internalType": "bool",
							"name": "exists",
							"type": "bool"
						},
						{
							"internalType": "bool",
							"name": "isDead",
							"type": "bool"
						}
					],
					"stateMutability": "view",
					"type": "function"
				},
				{
					"inputs": [
						{
							"internalType": "uint256",
							"name": "plantId",
							"type": "uint256"
						}
					],
					"name": "updatePlantStage",
					"outputs": [],
					"stateMutability": "nonpayable",
					"type": "function"
				},
				{
					"inputs": [
						{
							"internalType": "address",
							"name": "",
							"type": "address"
						},
						{
							"internalType": "uint256",
							"name": "",
							"type": "uint256"
						}
					],
					"name": "userPlants",
					"outputs": [
						{
							"internalType": "uint256",
							"name": "",
							"type": "uint256"
						}
					],
					"stateMutability": "view",
					"type": "function"
				},
				{
					"inputs": [
						{
							"internalType": "uint256",
							"name": "plantId",
							"type": "uint256"
						}
					],
					"name": "waterPlant",
					"outputs": [],
					"stateMutability": "nonpayable",
					"type": "function"
				},
				{
					"inputs": [],
					"name": "withdraw",
					"outputs": [],
					"stateMutability": "nonpayable",
					"type": "function"
				},
				{
					"stateMutability": "payable",
					"type": "receive"
				}
			],
			"devdoc": {
				"kind": "dev",
				"methods": {},
				"version": 1
			},
			"evm": {
				"assembly": "    /* \"contracts/LiskGarden.sol\":61:10880  contract LiskGarden {... */\n  mstore(0x40, 0x80)\n    /* \"contracts/LiskGarden.sol\":3690:3741  constructor() {... */\n  callvalue\n  dup1\n  iszero\n  tag_1\n  jumpi\n  revert(0x00, 0x00)\ntag_1:\n  pop\n    /* \"contracts/LiskGarden.sol\":3723:3733  msg.sender */\n  caller\n    /* \"contracts/LiskGarden.sol\":3715:3720  owner */\n  0x03\n  0x00\n    /* \"contracts/LiskGarden.sol\":3715:3733  owner = msg.sender */\n  0x0100\n  exp\n  dup2\n  sload\n  dup2\n  0xffffffffffffffffffffffffffffffffffffffff\n  mul\n  not\n  and\n  swap1\n  dup4\n  0xffffffffffffffffffffffffffffffffffffffff\n  and\n  mul\n  or\n  swap1\n  sstore\n  pop\n    /* \"contracts/LiskGarden.sol\":61:10880  contract LiskGarden {... */\n  dataSize(sub_0)\n  dup1\n  dataOffset(sub_0)\n  0x00\n  codecopy\n  0x00\n  return\nstop\n\nsub_0: assembly {\n        /* \"contracts/LiskGarden.sol\":61:10880  contract LiskGarden {... */\n      mstore(0x40, 0x80)\n      jumpi(tag_1, lt(calldatasize, 0x04))\n      shr(0xe0, calldataload(0x00))\n      dup1\n      0x8dd2361c\n      gt\n      tag_21\n      jumpi\n      dup1\n      0xcfc9a5f8\n      gt\n      tag_22\n      jumpi\n      dup1\n      0xcfc9a5f8\n      eq\n      tag_16\n      jumpi\n      dup1\n      0xd0e30db0\n      eq\n      tag_17\n      jumpi\n      dup1\n      0xddd42596\n      eq\n      tag_18\n      jumpi\n      dup1\n      0xe38f8448\n      eq\n      tag_19\n      jumpi\n      dup1\n      0xed0b1f5f\n      eq\n      tag_20\n      jumpi\n      jump(tag_2)\n    tag_22:\n      dup1\n      0x8dd2361c\n      eq\n      tag_12\n      jumpi\n      dup1\n      0x9886bcfa\n      eq\n      tag_13\n      jumpi\n      dup1\n      0x9c471749\n      eq\n      tag_14\n      jumpi\n      dup1\n      0xbacb5ebd\n      eq\n      tag_15\n      jumpi\n      jump(tag_2)\n    tag_21:\n      dup1\n      0x754e150d\n      gt\n      tag_23\n      jumpi\n      dup1\n      0x754e150d\n      eq\n      tag_7\n      jumpi\n      dup1\n      0x7ed4c5be\n      eq\n      tag_8\n      jumpi\n      dup1\n      0x891c0785\n      eq\n      tag_9\n      jumpi\n      dup1\n      0x8aee578b\n      eq\n      tag_10\n      jumpi\n      dup1\n      0x8da5cb5b\n      eq\n      tag_11\n      jumpi\n      jump(tag_2)\n    tag_23:\n      dup1\n      0x30cec0eb\n      eq\n      tag_3\n      jumpi\n      dup1\n      0x3ccfd60b\n      eq\n      tag_4\n      jumpi\n      dup1\n      0x51f9efde\n      eq\n      tag_5\n      jumpi\n      dup1\n      0x74119a38\n      eq\n      tag_6\n      jumpi\n      jump(tag_2)\n    tag_1:\n      jumpi(tag_2, calldatasize)\n      stop\n    tag_2:\n      revert(0x00, 0x00)\n        /* \"contracts/LiskGarden.sol\":10395:10515  function getUserPlants(address user) external view returns (uint256[] memory) {... */\n    tag_3:\n      callvalue\n      dup1\n      iszero\n      tag_26\n      jumpi\n      revert(0x00, 0x00)\n    tag_26:\n      pop\n      tag_27\n      0x04\n      dup1\n      calldatasize\n      sub\n      dup2\n      add\n      swap1\n      tag_28\n      swap2\n      swap1\n      tag_29\n      jump\t// in\n    tag_28:\n      tag_30\n      jump\t// in\n    tag_27:\n      mload(0x40)\n      tag_31\n      swap2\n      swap1\n      tag_32\n      jump\t// in\n    tag_31:\n      mload(0x40)\n      dup1\n      swap2\n      sub\n      swap1\n      return\n        /* \"contracts/LiskGarden.sol\":10625:10838  function withdraw() external {... */\n    tag_4:\n      callvalue\n      dup1\n      iszero\n      tag_33\n      jumpi\n      revert(0x00, 0x00)\n    tag_33:\n      pop\n      tag_34\n      tag_35\n      jump\t// in\n    tag_34:\n      stop\n        /* \"contracts/LiskGarden.sol\":2251:2298  uint public constant STAGE_DURATION = 1 minutes */\n    tag_5:\n      callvalue\n      dup1\n      iszero\n      tag_36\n      jumpi\n      revert(0x00, 0x00)\n    tag_36:\n      pop\n      tag_37\n      tag_38\n      jump\t// in\n    tag_37:\n      mload(0x40)\n      tag_39\n      swap2\n      swap1\n      tag_40\n      jump\t// in\n    tag_39:\n      mload(0x40)\n      dup1\n      swap2\n      sub\n      swap1\n      return\n        /* \"contracts/LiskGarden.sol\":4256:5074  function plantSeed() external payable returns (uint256) {... */\n    tag_6:\n      tag_41\n      tag_42\n      jump\t// in\n    tag_41:\n      mload(0x40)\n      tag_43\n      swap2\n      swap1\n      tag_40\n      jump\t// in\n    tag_43:\n      mload(0x40)\n      dup1\n      swap2\n      sub\n      swap1\n      return\n        /* \"contracts/LiskGarden.sol\":5706:6304  function calculateWaterLevel(uint256 plantId) public view returns (uint8) {... */\n    tag_7:\n      callvalue\n      dup1\n      iszero\n      tag_44\n      jumpi\n      revert(0x00, 0x00)\n    tag_44:\n      pop\n      tag_45\n      0x04\n      dup1\n      calldatasize\n      sub\n      dup2\n      add\n      swap1\n      tag_46\n      swap2\n      swap1\n      tag_47\n      jump\t// in\n    tag_46:\n      tag_48\n      jump\t// in\n    tag_45:\n      mload(0x40)\n      tag_49\n      swap2\n      swap1\n      tag_50\n      jump\t// in\n    tag_49:\n      mload(0x40)\n      dup1\n      swap2\n      sub\n      swap1\n      return\n        /* \"contracts/LiskGarden.sol\":2356:2410  uint public constant WATER_DEPLETION_TIME = 30 seconds */\n    tag_8:\n      callvalue\n      dup1\n      iszero\n      tag_51\n      jumpi\n      revert(0x00, 0x00)\n    tag_51:\n      pop\n      tag_52\n      tag_53\n      jump\t// in\n    tag_52:\n      mload(0x40)\n      tag_54\n      swap2\n      swap1\n      tag_40\n      jump\t// in\n    tag_54:\n      mload(0x40)\n      dup1\n      swap2\n      sub\n      swap1\n      return\n        /* \"contracts/LiskGarden.sol\":2077:2129  uint256 public constant HARVEST_REWARD = 0.003 ether */\n    tag_9:\n      callvalue\n      dup1\n      iszero\n      tag_55\n      jumpi\n      revert(0x00, 0x00)\n    tag_55:\n      pop\n      tag_56\n      tag_57\n      jump\t// in\n    tag_56:\n      mload(0x40)\n      tag_58\n      swap2\n      swap1\n      tag_40\n      jump\t// in\n    tag_58:\n      mload(0x40)\n      dup1\n      swap2\n      sub\n      swap1\n      return\n        /* \"contracts/LiskGarden.sol\":1416:1463  mapping(address => uint256[]) public userPlants */\n    tag_10:\n      callvalue\n      dup1\n      iszero\n      tag_59\n      jumpi\n      revert(0x00, 0x00)\n    tag_59:\n      pop\n      tag_60\n      0x04\n      dup1\n      calldatasize\n      sub\n      dup2\n      add\n      swap1\n      tag_61\n      swap2\n      swap1\n      tag_62\n      jump\t// in\n    tag_61:\n      tag_63\n      jump\t// in\n    tag_60:\n      mload(0x40)\n      tag_64\n      swap2\n      swap1\n      tag_40\n      jump\t// in\n    tag_64:\n      mload(0x40)\n      dup1\n      swap2\n      sub\n      swap1\n      return\n        /* \"contracts/LiskGarden.sol\":1680:1700  address public owner */\n    tag_11:\n      callvalue\n      dup1\n      iszero\n      tag_65\n      jumpi\n      revert(0x00, 0x00)\n    tag_65:\n      pop\n      tag_66\n      tag_67\n      jump\t// in\n    tag_66:\n      mload(0x40)\n      tag_68\n      swap2\n      swap1\n      tag_69\n      jump\t// in\n    tag_68:\n      mload(0x40)\n      dup1\n      swap2\n      sub\n      swap1\n      return\n        /* \"contracts/LiskGarden.sol\":1231:1270  mapping(uint256 => Plant) public plants */\n    tag_12:\n      callvalue\n      dup1\n      iszero\n      tag_70\n      jumpi\n      revert(0x00, 0x00)\n    tag_70:\n      pop\n      tag_71\n      0x04\n      dup1\n      calldatasize\n      sub\n      dup2\n      add\n      swap1\n      tag_72\n      swap2\n      swap1\n      tag_47\n      jump\t// in\n    tag_72:\n      tag_73\n      jump\t// in\n    tag_71:\n      mload(0x40)\n      tag_74\n      swap9\n      swap8\n      swap7\n      swap6\n      swap5\n      swap4\n      swap3\n      swap2\n      swap1\n      tag_75\n      jump\t// in\n    tag_74:\n      mload(0x40)\n      dup1\n      swap2\n      sub\n      swap1\n      return\n        /* \"contracts/LiskGarden.sol\":7249:7726  function waterPlant(uint256 plantId) external {... */\n    tag_13:\n      callvalue\n      dup1\n      iszero\n      tag_76\n      jumpi\n      revert(0x00, 0x00)\n    tag_76:\n      pop\n      tag_77\n      0x04\n      dup1\n      calldatasize\n      sub\n      dup2\n      add\n      swap1\n      tag_78\n      swap2\n      swap1\n      tag_47\n      jump\t// in\n    tag_78:\n      tag_79\n      jump\t// in\n    tag_77:\n      stop\n        /* \"contracts/LiskGarden.sol\":1565:1592  uint256 public plantCounter */\n    tag_14:\n      callvalue\n      dup1\n      iszero\n      tag_80\n      jumpi\n      revert(0x00, 0x00)\n    tag_80:\n      pop\n      tag_81\n      tag_82\n      jump\t// in\n    tag_81:\n      mload(0x40)\n      tag_83\n      swap2\n      swap1\n      tag_40\n      jump\t// in\n    tag_83:\n      mload(0x40)\n      dup1\n      swap2\n      sub\n      swap1\n      return\n        /* \"contracts/LiskGarden.sol\":2539:2585  uint8 public constant WATER_DEPLETION_RATE = 2 */\n    tag_15:\n      callvalue\n      dup1\n      iszero\n      tag_84\n      jumpi\n      revert(0x00, 0x00)\n    tag_84:\n      pop\n      tag_85\n      tag_86\n      jump\t// in\n    tag_85:\n      mload(0x40)\n      tag_87\n      swap2\n      swap1\n      tag_50\n      jump\t// in\n    tag_87:\n      mload(0x40)\n      dup1\n      swap2\n      sub\n      swap1\n      return\n        /* \"contracts/LiskGarden.sol\":1972:2021  uint256 public constant PLANT_PRICE = 0.001 ether */\n    tag_16:\n      callvalue\n      dup1\n      iszero\n      tag_88\n      jumpi\n      revert(0x00, 0x00)\n    tag_88:\n      pop\n      tag_89\n      tag_90\n      jump\t// in\n    tag_89:\n      mload(0x40)\n      tag_91\n      swap2\n      swap1\n      tag_40\n      jump\t// in\n    tag_91:\n      mload(0x40)\n      dup1\n      swap2\n      sub\n      swap1\n      return\n        /* \"contracts/LiskGarden.sol\":10523:10617  function deposit() external payable {... */\n    tag_17:\n      tag_92\n      tag_93\n      jump\t// in\n    tag_92:\n      stop\n        /* \"contracts/LiskGarden.sol\":8210:9003  function updatePlantStage(uint256 plantId) public {... */\n    tag_18:\n      callvalue\n      dup1\n      iszero\n      tag_94\n      jumpi\n      revert(0x00, 0x00)\n    tag_94:\n      pop\n      tag_95\n      0x04\n      dup1\n      calldatasize\n      sub\n      dup2\n      add\n      swap1\n      tag_96\n      swap2\n      swap1\n      tag_47\n      jump\t// in\n    tag_96:\n      tag_97\n      jump\t// in\n    tag_95:\n      stop\n        /* \"contracts/LiskGarden.sol\":9354:10022  function harvestPlant(uint256 plantId) external {... */\n    tag_19:\n      callvalue\n      dup1\n      iszero\n      tag_98\n      jumpi\n      revert(0x00, 0x00)\n    tag_98:\n      pop\n      tag_99\n      0x04\n      dup1\n      calldatasize\n      sub\n      dup2\n      add\n      swap1\n      tag_100\n      swap2\n      swap1\n      tag_47\n      jump\t// in\n    tag_100:\n      tag_101\n      jump\t// in\n    tag_99:\n      stop\n        /* \"contracts/LiskGarden.sol\":10179:10387  function getPlant(uint256 plantId) external view returns (Plant memory) {... */\n    tag_20:\n      callvalue\n      dup1\n      iszero\n      tag_102\n      jumpi\n      revert(0x00, 0x00)\n    tag_102:\n      pop\n      tag_103\n      0x04\n      dup1\n      calldatasize\n      sub\n      dup2\n      add\n      swap1\n      tag_104\n      swap2\n      swap1\n      tag_47\n      jump\t// in\n    tag_104:\n      tag_105\n      jump\t// in\n    tag_103:\n      mload(0x40)\n      tag_106\n      swap2\n      swap1\n      tag_107\n      jump\t// in\n    tag_106:\n      mload(0x40)\n      dup1\n      swap2\n      sub\n      swap1\n      return\n        /* \"contracts/LiskGarden.sol\":10395:10515  function getUserPlants(address user) external view returns (uint256[] memory) {... */\n    tag_30:\n        /* \"contracts/LiskGarden.sol\":10455:10471  uint256[] memory */\n      0x60\n        /* \"contracts/LiskGarden.sol\":10491:10501  userPlants */\n      0x01\n        /* \"contracts/LiskGarden.sol\":10491:10507  userPlants[user] */\n      0x00\n        /* \"contracts/LiskGarden.sol\":10502:10506  user */\n      dup4\n        /* \"contracts/LiskGarden.sol\":10491:10507  userPlants[user] */\n      0xffffffffffffffffffffffffffffffffffffffff\n      and\n      0xffffffffffffffffffffffffffffffffffffffff\n      and\n      dup2\n      mstore\n      0x20\n      add\n      swap1\n      dup2\n      mstore\n      0x20\n      add\n      0x00\n      keccak256\n        /* \"contracts/LiskGarden.sol\":10484:10507  return userPlants[user] */\n      dup1\n      sload\n      dup1\n      0x20\n      mul\n      0x20\n      add\n      mload(0x40)\n      swap1\n      dup2\n      add\n      0x40\n      mstore\n      dup1\n      swap3\n      swap2\n      swap1\n      dup2\n      dup2\n      mstore\n      0x20\n      add\n      dup3\n      dup1\n      sload\n      dup1\n      iszero\n      tag_109\n      jumpi\n      0x20\n      mul\n      dup3\n      add\n      swap2\n      swap1\n      0x00\n      mstore\n      keccak256(0x00, 0x20)\n      swap1\n    tag_110:\n      dup2\n      sload\n      dup2\n      mstore\n      0x20\n      add\n      swap1\n      0x01\n      add\n      swap1\n      dup1\n      dup4\n      gt\n      tag_110\n      jumpi\n    tag_109:\n      pop\n      pop\n      pop\n      pop\n      pop\n      swap1\n      pop\n        /* \"contracts/LiskGarden.sol\":10395:10515  function getUserPlants(address user) external view returns (uint256[] memory) {... */\n      swap2\n      swap1\n      pop\n      jump\t// out\n        /* \"contracts/LiskGarden.sol\":10625:10838  function withdraw() external {... */\n    tag_35:\n        /* \"contracts/LiskGarden.sol\":10687:10692  owner */\n      0x03\n      0x00\n      swap1\n      sload\n      swap1\n      0x0100\n      exp\n      swap1\n      div\n      0xffffffffffffffffffffffffffffffffffffffff\n      and\n        /* \"contracts/LiskGarden.sol\":10673:10692  msg.sender == owner */\n      0xffffffffffffffffffffffffffffffffffffffff\n      and\n        /* \"contracts/LiskGarden.sol\":10673:10683  msg.sender */\n      caller\n        /* \"contracts/LiskGarden.sol\":10673:10692  msg.sender == owner */\n      0xffffffffffffffffffffffffffffffffffffffff\n      and\n      eq\n        /* \"contracts/LiskGarden.sol\":10665:10710  require(msg.sender == owner, \"Not the owner\") */\n      tag_112\n      jumpi\n      mload(0x40)\n      0x08c379a000000000000000000000000000000000000000000000000000000000\n      dup2\n      mstore\n      0x04\n      add\n      tag_113\n      swap1\n      tag_114\n      jump\t// in\n    tag_113:\n      mload(0x40)\n      dup1\n      swap2\n      sub\n      swap1\n      revert\n    tag_112:\n        /* \"contracts/LiskGarden.sol\":10722:10734  bool success */\n      0x00\n        /* \"contracts/LiskGarden.sol\":10740:10745  owner */\n      0x03\n      0x00\n      swap1\n      sload\n      swap1\n      0x0100\n      exp\n      swap1\n      div\n      0xffffffffffffffffffffffffffffffffffffffff\n      and\n        /* \"contracts/LiskGarden.sol\":10740:10750  owner.call */\n      0xffffffffffffffffffffffffffffffffffffffff\n      and\n        /* \"contracts/LiskGarden.sol\":10758:10779  address(this).balance */\n      selfbalance\n        /* \"contracts/LiskGarden.sol\":10740:10784  owner.call{value: address(this).balance}(\"\") */\n      mload(0x40)\n      tag_115\n      swap1\n      tag_116\n      jump\t// in\n    tag_115:\n      0x00\n      mload(0x40)\n      dup1\n      dup4\n      sub\n      dup2\n      dup6\n      dup8\n      gas\n      call\n      swap3\n      pop\n      pop\n      pop\n      returndatasize\n      dup1\n      0x00\n      dup2\n      eq\n      tag_119\n      jumpi\n      mload(0x40)\n      swap2\n      pop\n      and(add(returndatasize, 0x3f), not(0x1f))\n      dup3\n      add\n      0x40\n      mstore\n      returndatasize\n      dup3\n      mstore\n      returndatasize\n      0x00\n      0x20\n      dup5\n      add\n      returndatacopy\n      jump(tag_118)\n    tag_119:\n      0x60\n      swap2\n      pop\n    tag_118:\n      pop\n        /* \"contracts/LiskGarden.sol\":10721:10784  (bool success, ) = owner.call{value: address(this).balance}(\"\") */\n      pop\n      swap1\n      pop\n        /* \"contracts/LiskGarden.sol\":10803:10810  success */\n      dup1\n        /* \"contracts/LiskGarden.sol\":10795:10830  require(success, \"Transfer failed\") */\n      tag_120\n      jumpi\n      mload(0x40)\n      0x08c379a000000000000000000000000000000000000000000000000000000000\n      dup2\n      mstore\n      0x04\n      add\n      tag_121\n      swap1\n      tag_122\n      jump\t// in\n    tag_121:\n      mload(0x40)\n      dup1\n      swap2\n      sub\n      swap1\n      revert\n    tag_120:\n        /* \"contracts/LiskGarden.sol\":10654:10838  {... */\n      pop\n        /* \"contracts/LiskGarden.sol\":10625:10838  function withdraw() external {... */\n      jump\t// out\n        /* \"contracts/LiskGarden.sol\":2251:2298  uint public constant STAGE_DURATION = 1 minutes */\n    tag_38:\n        /* \"contracts/LiskGarden.sol\":2289:2298  1 minutes */\n      0x3c\n        /* \"contracts/LiskGarden.sol\":2251:2298  uint public constant STAGE_DURATION = 1 minutes */\n      dup2\n      jump\t// out\n        /* \"contracts/LiskGarden.sol\":4256:5074  function plantSeed() external payable returns (uint256) {... */\n    tag_42:\n        /* \"contracts/LiskGarden.sol\":4303:4310  uint256 */\n      0x00\n        /* \"contracts/LiskGarden.sol\":2010:2021  0.001 ether */\n      0x038d7ea4c68000\n        /* \"contracts/LiskGarden.sol\":4415:4424  msg.value */\n      callvalue\n        /* \"contracts/LiskGarden.sol\":4415:4439  msg.value >= PLANT_PRICE */\n      lt\n      iszero\n        /* \"contracts/LiskGarden.sol\":4407:4478  require(msg.value >= PLANT_PRICE, \"Insufficient funds to plant a seed\") */\n      tag_124\n      jumpi\n      mload(0x40)\n      0x08c379a000000000000000000000000000000000000000000000000000000000\n      dup2\n      mstore\n      0x04\n      add\n      tag_125\n      swap1\n      tag_126\n      jump\t// in\n    tag_125:\n      mload(0x40)\n      dup1\n      swap2\n      sub\n      swap1\n      revert\n    tag_124:\n        /* \"contracts/LiskGarden.sol\":4489:4501  plantCounter */\n      0x02\n      0x00\n        /* \"contracts/LiskGarden.sol\":4489:4503  plantCounter++ */\n      dup2\n      sload\n      dup1\n      swap3\n      swap2\n      swap1\n      tag_127\n      swap1\n      tag_128\n      jump\t// in\n    tag_127:\n      swap2\n      swap1\n      pop\n      sstore\n      pop\n        /* \"contracts/LiskGarden.sol\":4563:4584  Plant memory newPlant */\n      0x00\n        /* \"contracts/LiskGarden.sol\":4587:4877  Plant({... */\n      mload(0x40)\n      dup1\n      0x0100\n      add\n      0x40\n      mstore\n      dup1\n        /* \"contracts/LiskGarden.sol\":4612:4624  plantCounter */\n      sload(0x02)\n        /* \"contracts/LiskGarden.sol\":4587:4877  Plant({... */\n      dup2\n      mstore\n      0x20\n      add\n        /* \"contracts/LiskGarden.sol\":4646:4656  msg.sender */\n      caller\n        /* \"contracts/LiskGarden.sol\":4587:4877  Plant({... */\n      0xffffffffffffffffffffffffffffffffffffffff\n      and\n      dup2\n      mstore\n      0x20\n      add\n        /* \"contracts/LiskGarden.sol\":4678:4694  GrowthStage.SEED */\n      0x00\n        /* \"contracts/LiskGarden.sol\":4587:4877  Plant({... */\n      0x03\n      dup2\n      gt\n      iszero\n      tag_129\n      jumpi\n      tag_130\n      tag_131\n      jump\t// in\n    tag_130:\n    tag_129:\n      dup2\n      mstore\n      0x20\n      add\n        /* \"contracts/LiskGarden.sol\":4722:4737  block.timestamp */\n      timestamp\n        /* \"contracts/LiskGarden.sol\":4587:4877  Plant({... */\n      dup2\n      mstore\n      0x20\n      add\n        /* \"contracts/LiskGarden.sol\":4765:4780  block.timestamp */\n      timestamp\n        /* \"contracts/LiskGarden.sol\":4587:4877  Plant({... */\n      dup2\n      mstore\n      0x20\n      add\n        /* \"contracts/LiskGarden.sol\":4807:4810  100 */\n      0x64\n        /* \"contracts/LiskGarden.sol\":4587:4877  Plant({... */\n      0xff\n      and\n      dup2\n      mstore\n      0x20\n      add\n        /* \"contracts/LiskGarden.sol\":4833:4837  true */\n      0x01\n        /* \"contracts/LiskGarden.sol\":4587:4877  Plant({... */\n      iszero\n      iszero\n      dup2\n      mstore\n      0x20\n      add\n        /* \"contracts/LiskGarden.sol\":4860:4865  false */\n      0x00\n        /* \"contracts/LiskGarden.sol\":4587:4877  Plant({... */\n      iszero\n      iszero\n      dup2\n      mstore\n      pop\n        /* \"contracts/LiskGarden.sol\":4563:4877  Plant memory newPlant = Plant({... */\n      swap1\n      pop\n        /* \"contracts/LiskGarden.sol\":4921:4929  newPlant */\n      dup1\n        /* \"contracts/LiskGarden.sol\":4898:4904  plants */\n      0x00\n        /* \"contracts/LiskGarden.sol\":4898:4918  plants[plantCounter] */\n      0x00\n        /* \"contracts/LiskGarden.sol\":4905:4917  plantCounter */\n      sload(0x02)\n        /* \"contracts/LiskGarden.sol\":4898:4918  plants[plantCounter] */\n      dup2\n      mstore\n      0x20\n      add\n      swap1\n      dup2\n      mstore\n      0x20\n      add\n      0x00\n      keccak256\n        /* \"contracts/LiskGarden.sol\":4898:4929  plants[plantCounter] = newPlant */\n      0x00\n      dup3\n      add\n      mload\n      dup2\n      0x00\n      add\n      sstore\n      0x20\n      dup3\n      add\n      mload\n      dup2\n      0x01\n      add\n      exp(0x0100, 0x00)\n      dup2\n      sload\n      dup2\n      0xffffffffffffffffffffffffffffffffffffffff\n      mul\n      not\n      and\n      swap1\n      dup4\n      0xffffffffffffffffffffffffffffffffffffffff\n      and\n      mul\n      or\n      swap1\n      sstore\n      pop\n      0x40\n      dup3\n      add\n      mload\n      dup2\n      0x01\n      add\n      exp(0x0100, 0x14)\n      dup2\n      sload\n      dup2\n      0xff\n      mul\n      not\n      and\n      swap1\n      dup4\n      0x03\n      dup2\n      gt\n      iszero\n      tag_132\n      jumpi\n      tag_133\n      tag_131\n      jump\t// in\n    tag_133:\n    tag_132:\n      mul\n      or\n      swap1\n      sstore\n      pop\n      0x60\n      dup3\n      add\n      mload\n      dup2\n      0x02\n      add\n      sstore\n      0x80\n      dup3\n      add\n      mload\n      dup2\n      0x03\n      add\n      sstore\n      0xa0\n      dup3\n      add\n      mload\n      dup2\n      0x04\n      add\n      exp(0x0100, 0x00)\n      dup2\n      sload\n      dup2\n      0xff\n      mul\n      not\n      and\n      swap1\n      dup4\n      0xff\n      and\n      mul\n      or\n      swap1\n      sstore\n      pop\n      0xc0\n      dup3\n      add\n      mload\n      dup2\n      0x04\n      add\n      exp(0x0100, 0x01)\n      dup2\n      sload\n      dup2\n      0xff\n      mul\n      not\n      and\n      swap1\n      dup4\n      iszero\n      iszero\n      mul\n      or\n      swap1\n      sstore\n      pop\n      0xe0\n      dup3\n      add\n      mload\n      dup2\n      0x04\n      add\n      exp(0x0100, 0x02)\n      dup2\n      sload\n      dup2\n      0xff\n      mul\n      not\n      and\n      swap1\n      dup4\n      iszero\n      iszero\n      mul\n      or\n      swap1\n      sstore\n      pop\n      swap1\n      pop\n      pop\n        /* \"contracts/LiskGarden.sol\":4940:4950  userPlants */\n      0x01\n        /* \"contracts/LiskGarden.sol\":4940:4962  userPlants[msg.sender] */\n      0x00\n        /* \"contracts/LiskGarden.sol\":4951:4961  msg.sender */\n      caller\n        /* \"contracts/LiskGarden.sol\":4940:4962  userPlants[msg.sender] */\n      0xffffffffffffffffffffffffffffffffffffffff\n      and\n      0xffffffffffffffffffffffffffffffffffffffff\n      and\n      dup2\n      mstore\n      0x20\n      add\n      swap1\n      dup2\n      mstore\n      0x20\n      add\n      0x00\n      keccak256\n        /* \"contracts/LiskGarden.sol\":4968:4980  plantCounter */\n      sload(0x02)\n        /* \"contracts/LiskGarden.sol\":4940:4981  userPlants[msg.sender].push(plantCounter) */\n      swap1\n      dup1\n      0x01\n      dup2\n      sload\n      add\n      dup1\n      dup3\n      sstore\n      dup1\n      swap2\n      pop\n      pop\n      0x01\n      swap1\n      sub\n      swap1\n      0x00\n      mstore\n      keccak256(0x00, 0x20)\n      add\n      0x00\n      swap1\n      swap2\n      swap1\n      swap2\n      swap1\n      swap2\n      pop\n      sstore\n        /* \"contracts/LiskGarden.sol\":5023:5035  plantCounter */\n      sload(0x02)\n        /* \"contracts/LiskGarden.sol\":5011:5021  msg.sender */\n      caller\n        /* \"contracts/LiskGarden.sol\":4999:5036  PlantSeeded(msg.sender, plantCounter) */\n      0xffffffffffffffffffffffffffffffffffffffff\n      and\n      0x4f5b22082ac57121703b0b6c1203ef527cfbfa5069616fee6deb979d124adbf0\n      mload(0x40)\n      mload(0x40)\n      dup1\n      swap2\n      sub\n      swap1\n      log3\n        /* \"contracts/LiskGarden.sol\":5054:5066  plantCounter */\n      sload(0x02)\n        /* \"contracts/LiskGarden.sol\":5047:5066  return plantCounter */\n      swap2\n      pop\n      pop\n        /* \"contracts/LiskGarden.sol\":4256:5074  function plantSeed() external payable returns (uint256) {... */\n      swap1\n      jump\t// out\n        /* \"contracts/LiskGarden.sol\":5706:6304  function calculateWaterLevel(uint256 plantId) public view returns (uint8) {... */\n    tag_48:\n        /* \"contracts/LiskGarden.sol\":5773:5778  uint8 */\n      0x00\n        /* \"contracts/LiskGarden.sol\":5819:5837  Plant memory plant */\n      0x00\n        /* \"contracts/LiskGarden.sol\":5840:5846  plants */\n      0x00\n        /* \"contracts/LiskGarden.sol\":5840:5855  plants[plantId] */\n      0x00\n        /* \"contracts/LiskGarden.sol\":5847:5854  plantId */\n      dup5\n        /* \"contracts/LiskGarden.sol\":5840:5855  plants[plantId] */\n      dup2\n      mstore\n      0x20\n      add\n      swap1\n      dup2\n      mstore\n      0x20\n      add\n      0x00\n      keccak256\n        /* \"contracts/LiskGarden.sol\":5819:5855  Plant memory plant = plants[plantId] */\n      mload(0x40)\n      dup1\n      0x0100\n      add\n      0x40\n      mstore\n      swap1\n      dup2\n      0x00\n      dup3\n      add\n      sload\n      dup2\n      mstore\n      0x20\n      add\n      0x01\n      dup3\n      add\n      0x00\n      swap1\n      sload\n      swap1\n      0x0100\n      exp\n      swap1\n      div\n      0xffffffffffffffffffffffffffffffffffffffff\n      and\n      0xffffffffffffffffffffffffffffffffffffffff\n      and\n      0xffffffffffffffffffffffffffffffffffffffff\n      and\n      dup2\n      mstore\n      0x20\n      add\n      0x01\n      dup3\n      add\n      0x14\n      swap1\n      sload\n      swap1\n      0x0100\n      exp\n      swap1\n      div\n      0xff\n      and\n      0x03\n      dup2\n      gt\n      iszero\n      tag_136\n      jumpi\n      tag_137\n      tag_131\n      jump\t// in\n    tag_137:\n    tag_136:\n      0x03\n      dup2\n      gt\n      iszero\n      tag_138\n      jumpi\n      tag_139\n      tag_131\n      jump\t// in\n    tag_139:\n    tag_138:\n      dup2\n      mstore\n      0x20\n      add\n      0x02\n      dup3\n      add\n      sload\n      dup2\n      mstore\n      0x20\n      add\n      0x03\n      dup3\n      add\n      sload\n      dup2\n      mstore\n      0x20\n      add\n      0x04\n      dup3\n      add\n      0x00\n      swap1\n      sload\n      swap1\n      0x0100\n      exp\n      swap1\n      div\n      0xff\n      and\n      0xff\n      and\n      0xff\n      and\n      dup2\n      mstore\n      0x20\n      add\n      0x04\n      dup3\n      add\n      0x01\n      swap1\n      sload\n      swap1\n      0x0100\n      exp\n      swap1\n      div\n      0xff\n      and\n      iszero\n      iszero\n      iszero\n      iszero\n      dup2\n      mstore\n      0x20\n      add\n      0x04\n      dup3\n      add\n      0x02\n      swap1\n      sload\n      swap1\n      0x0100\n      exp\n      swap1\n      div\n      0xff\n      and\n      iszero\n      iszero\n      iszero\n      iszero\n      dup2\n      mstore\n      pop\n      pop\n      swap1\n      pop\n        /* \"contracts/LiskGarden.sol\":5871:5876  plant */\n      dup1\n        /* \"contracts/LiskGarden.sol\":5871:5883  plant.exists */\n      0xc0\n      add\n      mload\n        /* \"contracts/LiskGarden.sol\":5870:5883  !plant.exists */\n      iszero\n        /* \"contracts/LiskGarden.sol\":5870:5899  !plant.exists || plant.isDead */\n      dup1\n      tag_140\n      jumpi\n      pop\n        /* \"contracts/LiskGarden.sol\":5887:5892  plant */\n      dup1\n        /* \"contracts/LiskGarden.sol\":5887:5899  plant.isDead */\n      0xe0\n      add\n      mload\n        /* \"contracts/LiskGarden.sol\":5870:5899  !plant.exists || plant.isDead */\n    tag_140:\n        /* \"contracts/LiskGarden.sol\":5866:5936  if (!plant.exists || plant.isDead) {... */\n      iszero\n      tag_141\n      jumpi\n        /* \"contracts/LiskGarden.sol\":5923:5924  0 */\n      0x00\n        /* \"contracts/LiskGarden.sol\":5916:5924  return 0 */\n      swap2\n      pop\n      pop\n      jump(tag_135)\n        /* \"contracts/LiskGarden.sol\":5866:5936  if (!plant.exists || plant.isDead) {... */\n    tag_141:\n        /* \"contracts/LiskGarden.sol\":5946:5970  uint256 timeSinceWatered */\n      0x00\n        /* \"contracts/LiskGarden.sol\":5991:5996  plant */\n      dup2\n        /* \"contracts/LiskGarden.sol\":5991:6008  plant.lastWatered */\n      0x80\n      add\n      mload\n        /* \"contracts/LiskGarden.sol\":5973:5988  block.timestamp */\n      timestamp\n        /* \"contracts/LiskGarden.sol\":5973:6008  block.timestamp - plant.lastWatered */\n      tag_142\n      swap2\n      swap1\n      tag_143\n      jump\t// in\n    tag_142:\n        /* \"contracts/LiskGarden.sol\":5946:6008  uint256 timeSinceWatered = block.timestamp - plant.lastWatered */\n      swap1\n      pop\n        /* \"contracts/LiskGarden.sol\":6019:6045  uint256 depletionIntervals */\n      0x00\n        /* \"contracts/LiskGarden.sol\":2400:2410  30 seconds */\n      0x1e\n        /* \"contracts/LiskGarden.sol\":6048:6064  timeSinceWatered */\n      dup3\n        /* \"contracts/LiskGarden.sol\":6048:6087  timeSinceWatered / WATER_DEPLETION_TIME */\n      tag_144\n      swap2\n      swap1\n      tag_145\n      jump\t// in\n    tag_144:\n        /* \"contracts/LiskGarden.sol\":6019:6087  uint256 depletionIntervals = timeSinceWatered / WATER_DEPLETION_TIME */\n      swap1\n      pop\n        /* \"contracts/LiskGarden.sol\":6098:6115  uint256 waterLost */\n      0x00\n        /* \"contracts/LiskGarden.sol\":2584:2585  2 */\n      0x02\n        /* \"contracts/LiskGarden.sol\":6118:6159  depletionIntervals * WATER_DEPLETION_RATE */\n      0xff\n      and\n        /* \"contracts/LiskGarden.sol\":6118:6136  depletionIntervals */\n      dup3\n        /* \"contracts/LiskGarden.sol\":6118:6159  depletionIntervals * WATER_DEPLETION_RATE */\n      tag_146\n      swap2\n      swap1\n      tag_147\n      jump\t// in\n    tag_146:\n        /* \"contracts/LiskGarden.sol\":6098:6159  uint256 waterLost = depletionIntervals * WATER_DEPLETION_RATE */\n      swap1\n      pop\n        /* \"contracts/LiskGarden.sol\":6189:6194  plant */\n      dup4\n        /* \"contracts/LiskGarden.sol\":6189:6205  plant.waterLevel */\n      0xa0\n      add\n      mload\n        /* \"contracts/LiskGarden.sol\":6176:6205  waterLost >= plant.waterLevel */\n      0xff\n      and\n        /* \"contracts/LiskGarden.sol\":6176:6185  waterLost */\n      dup2\n        /* \"contracts/LiskGarden.sol\":6176:6205  waterLost >= plant.waterLevel */\n      lt\n        /* \"contracts/LiskGarden.sol\":6172:6242  if (waterLost >= plant.waterLevel) {... */\n      tag_148\n      jumpi\n        /* \"contracts/LiskGarden.sol\":6229:6230  0 */\n      0x00\n        /* \"contracts/LiskGarden.sol\":6222:6230  return 0 */\n      swap5\n      pop\n      pop\n      pop\n      pop\n      pop\n      jump(tag_135)\n        /* \"contracts/LiskGarden.sol\":6172:6242  if (waterLost >= plant.waterLevel) {... */\n    tag_148:\n        /* \"contracts/LiskGarden.sol\":6286:6295  waterLost */\n      dup1\n        /* \"contracts/LiskGarden.sol\":6267:6272  plant */\n      dup5\n        /* \"contracts/LiskGarden.sol\":6267:6283  plant.waterLevel */\n      0xa0\n      add\n      mload\n        /* \"contracts/LiskGarden.sol\":6267:6295  plant.waterLevel - waterLost */\n      0xff\n      and\n      tag_149\n      swap2\n      swap1\n      tag_143\n      jump\t// in\n    tag_149:\n        /* \"contracts/LiskGarden.sol\":6254:6296  return uint8(plant.waterLevel - waterLost) */\n      swap5\n      pop\n      pop\n      pop\n      pop\n      pop\n        /* \"contracts/LiskGarden.sol\":5706:6304  function calculateWaterLevel(uint256 plantId) public view returns (uint8) {... */\n    tag_135:\n      swap2\n      swap1\n      pop\n      jump\t// out\n        /* \"contracts/LiskGarden.sol\":2356:2410  uint public constant WATER_DEPLETION_TIME = 30 seconds */\n    tag_53:\n        /* \"contracts/LiskGarden.sol\":2400:2410  30 seconds */\n      0x1e\n        /* \"contracts/LiskGarden.sol\":2356:2410  uint public constant WATER_DEPLETION_TIME = 30 seconds */\n      dup2\n      jump\t// out\n        /* \"contracts/LiskGarden.sol\":2077:2129  uint256 public constant HARVEST_REWARD = 0.003 ether */\n    tag_57:\n        /* \"contracts/LiskGarden.sol\":2118:2129  0.003 ether */\n      0x0aa87bee538000\n        /* \"contracts/LiskGarden.sol\":2077:2129  uint256 public constant HARVEST_REWARD = 0.003 ether */\n      dup2\n      jump\t// out\n        /* \"contracts/LiskGarden.sol\":1416:1463  mapping(address => uint256[]) public userPlants */\n    tag_63:\n      mstore(0x20, 0x01)\n      dup2\n      0x00\n      mstore\n      keccak256(0x00, 0x40)\n      dup2\n      dup2\n      sload\n      dup2\n      lt\n      tag_150\n      jumpi\n      0x00\n      dup1\n      revert\n    tag_150:\n      swap1\n      0x00\n      mstore\n      keccak256(0x00, 0x20)\n      add\n      0x00\n      swap2\n      pop\n      swap2\n      pop\n      pop\n      sload\n      dup2\n      jump\t// out\n        /* \"contracts/LiskGarden.sol\":1680:1700  address public owner */\n    tag_67:\n      0x03\n      0x00\n      swap1\n      sload\n      swap1\n      0x0100\n      exp\n      swap1\n      div\n      0xffffffffffffffffffffffffffffffffffffffff\n      and\n      dup2\n      jump\t// out\n        /* \"contracts/LiskGarden.sol\":1231:1270  mapping(uint256 => Plant) public plants */\n    tag_73:\n      mstore(0x20, 0x00)\n      dup1\n      0x00\n      mstore\n      keccak256(0x00, 0x40)\n      0x00\n      swap2\n      pop\n      swap1\n      pop\n      dup1\n      0x00\n      add\n      sload\n      swap1\n      dup1\n      0x01\n      add\n      0x00\n      swap1\n      sload\n      swap1\n      0x0100\n      exp\n      swap1\n      div\n      0xffffffffffffffffffffffffffffffffffffffff\n      and\n      swap1\n      dup1\n      0x01\n      add\n      0x14\n      swap1\n      sload\n      swap1\n      0x0100\n      exp\n      swap1\n      div\n      0xff\n      and\n      swap1\n      dup1\n      0x02\n      add\n      sload\n      swap1\n      dup1\n      0x03\n      add\n      sload\n      swap1\n      dup1\n      0x04\n      add\n      0x00\n      swap1\n      sload\n      swap1\n      0x0100\n      exp\n      swap1\n      div\n      0xff\n      and\n      swap1\n      dup1\n      0x04\n      add\n      0x01\n      swap1\n      sload\n      swap1\n      0x0100\n      exp\n      swap1\n      div\n      0xff\n      and\n      swap1\n      dup1\n      0x04\n      add\n      0x02\n      swap1\n      sload\n      swap1\n      0x0100\n      exp\n      swap1\n      div\n      0xff\n      and\n      swap1\n      pop\n      dup9\n      jump\t// out\n        /* \"contracts/LiskGarden.sol\":7249:7726  function waterPlant(uint256 plantId) external {... */\n    tag_79:\n        /* \"contracts/LiskGarden.sol\":7334:7353  Plant storage plant */\n      0x00\n        /* \"contracts/LiskGarden.sol\":7356:7362  plants */\n      0x00\n        /* \"contracts/LiskGarden.sol\":7356:7371  plants[plantId] */\n      0x00\n        /* \"contracts/LiskGarden.sol\":7363:7370  plantId */\n      dup4\n        /* \"contracts/LiskGarden.sol\":7356:7371  plants[plantId] */\n      dup2\n      mstore\n      0x20\n      add\n      swap1\n      dup2\n      mstore\n      0x20\n      add\n      0x00\n      keccak256\n        /* \"contracts/LiskGarden.sol\":7334:7371  Plant storage plant = plants[plantId] */\n      swap1\n      pop\n        /* \"contracts/LiskGarden.sol\":7392:7397  plant */\n      dup1\n        /* \"contracts/LiskGarden.sol\":7392:7404  plant.exists */\n      0x04\n      add\n      0x01\n      swap1\n      sload\n      swap1\n      0x0100\n      exp\n      swap1\n      div\n      0xff\n      and\n        /* \"contracts/LiskGarden.sol\":7384:7424  require(plant.exists, \"Plant not found\") */\n      tag_153\n      jumpi\n      mload(0x40)\n      0x08c379a000000000000000000000000000000000000000000000000000000000\n      dup2\n      mstore\n      0x04\n      add\n      tag_154\n      swap1\n      tag_155\n      jump\t// in\n    tag_154:\n      mload(0x40)\n      dup1\n      swap2\n      sub\n      swap1\n      revert\n    tag_153:\n        /* \"contracts/LiskGarden.sol\":7458:7468  msg.sender */\n      caller\n        /* \"contracts/LiskGarden.sol\":7443:7468  plant.owner == msg.sender */\n      0xffffffffffffffffffffffffffffffffffffffff\n      and\n        /* \"contracts/LiskGarden.sol\":7443:7448  plant */\n      dup2\n        /* \"contracts/LiskGarden.sol\":7443:7454  plant.owner */\n      0x01\n      add\n      0x00\n      swap1\n      sload\n      swap1\n      0x0100\n      exp\n      swap1\n      div\n      0xffffffffffffffffffffffffffffffffffffffff\n      and\n        /* \"contracts/LiskGarden.sol\":7443:7468  plant.owner == msg.sender */\n      0xffffffffffffffffffffffffffffffffffffffff\n      and\n      eq\n        /* \"contracts/LiskGarden.sol\":7435:7486  require(plant.owner == msg.sender, \"Not the owner\") */\n      tag_156\n      jumpi\n      mload(0x40)\n      0x08c379a000000000000000000000000000000000000000000000000000000000\n      dup2\n      mstore\n      0x04\n      add\n      tag_157\n      swap1\n      tag_114\n      jump\t// in\n    tag_157:\n      mload(0x40)\n      dup1\n      swap2\n      sub\n      swap1\n      revert\n    tag_156:\n        /* \"contracts/LiskGarden.sol\":7506:7511  plant */\n      dup1\n        /* \"contracts/LiskGarden.sol\":7506:7518  plant.isDead */\n      0x04\n      add\n      0x02\n      swap1\n      sload\n      swap1\n      0x0100\n      exp\n      swap1\n      div\n      0xff\n      and\n        /* \"contracts/LiskGarden.sol\":7505:7518  !plant.isDead */\n      iszero\n        /* \"contracts/LiskGarden.sol\":7497:7536  require(!plant.isDead, \"Plant is dead\") */\n      tag_158\n      jumpi\n      mload(0x40)\n      0x08c379a000000000000000000000000000000000000000000000000000000000\n      dup2\n      mstore\n      0x04\n      add\n      tag_159\n      swap1\n      tag_160\n      jump\t// in\n    tag_159:\n      mload(0x40)\n      dup1\n      swap2\n      sub\n      swap1\n      revert\n    tag_158:\n        /* \"contracts/LiskGarden.sol\":7576:7579  100 */\n      0x64\n        /* \"contracts/LiskGarden.sol\":7557:7562  plant */\n      dup2\n        /* \"contracts/LiskGarden.sol\":7557:7573  plant.waterLevel */\n      0x04\n      add\n      0x00\n        /* \"contracts/LiskGarden.sol\":7557:7579  plant.waterLevel = 100 */\n      0x0100\n      exp\n      dup2\n      sload\n      dup2\n      0xff\n      mul\n      not\n      and\n      swap1\n      dup4\n      0xff\n      and\n      mul\n      or\n      swap1\n      sstore\n      pop\n        /* \"contracts/LiskGarden.sol\":7610:7625  block.timestamp */\n      timestamp\n        /* \"contracts/LiskGarden.sol\":7590:7595  plant */\n      dup2\n        /* \"contracts/LiskGarden.sol\":7590:7607  plant.lastWatered */\n      0x03\n      add\n        /* \"contracts/LiskGarden.sol\":7590:7625  plant.lastWatered = block.timestamp */\n      dup2\n      swap1\n      sstore\n      pop\n        /* \"contracts/LiskGarden.sol\":7656:7663  plantId */\n      dup2\n        /* \"contracts/LiskGarden.sol\":7643:7682  PlantWatered(plantId, plant.waterLevel) */\n      0xd4b742b9ba48fffa1f14267075a7793851770764117c423fd0a6550dfc8cb574\n        /* \"contracts/LiskGarden.sol\":7665:7670  plant */\n      dup3\n        /* \"contracts/LiskGarden.sol\":7665:7681  plant.waterLevel */\n      0x04\n      add\n      0x00\n      swap1\n      sload\n      swap1\n      0x0100\n      exp\n      swap1\n      div\n      0xff\n      and\n        /* \"contracts/LiskGarden.sol\":7643:7682  PlantWatered(plantId, plant.waterLevel) */\n      mload(0x40)\n      tag_161\n      swap2\n      swap1\n      tag_50\n      jump\t// in\n    tag_161:\n      mload(0x40)\n      dup1\n      swap2\n      sub\n      swap1\n      log2\n        /* \"contracts/LiskGarden.sol\":7693:7718  updatePlantStage(plantId) */\n      tag_162\n        /* \"contracts/LiskGarden.sol\":7710:7717  plantId */\n      dup3\n        /* \"contracts/LiskGarden.sol\":7693:7709  updatePlantStage */\n      tag_97\n        /* \"contracts/LiskGarden.sol\":7693:7718  updatePlantStage(plantId) */\n      jump\t// in\n    tag_162:\n        /* \"contracts/LiskGarden.sol\":7295:7726  {... */\n      pop\n        /* \"contracts/LiskGarden.sol\":7249:7726  function waterPlant(uint256 plantId) external {... */\n      pop\n      jump\t// out\n        /* \"contracts/LiskGarden.sol\":1565:1592  uint256 public plantCounter */\n    tag_82:\n      sload(0x02)\n      dup2\n      jump\t// out\n        /* \"contracts/LiskGarden.sol\":2539:2585  uint8 public constant WATER_DEPLETION_RATE = 2 */\n    tag_86:\n        /* \"contracts/LiskGarden.sol\":2584:2585  2 */\n      0x02\n        /* \"contracts/LiskGarden.sol\":2539:2585  uint8 public constant WATER_DEPLETION_RATE = 2 */\n      dup2\n      jump\t// out\n        /* \"contracts/LiskGarden.sol\":1972:2021  uint256 public constant PLANT_PRICE = 0.001 ether */\n    tag_90:\n        /* \"contracts/LiskGarden.sol\":2010:2021  0.001 ether */\n      0x038d7ea4c68000\n        /* \"contracts/LiskGarden.sol\":1972:2021  uint256 public constant PLANT_PRICE = 0.001 ether */\n      dup2\n      jump\t// out\n        /* \"contracts/LiskGarden.sol\":10523:10617  function deposit() external payable {... */\n    tag_93:\n        /* \"contracts/LiskGarden.sol\":10590:10591  0 */\n      0x00\n        /* \"contracts/LiskGarden.sol\":10578:10587  msg.value */\n      callvalue\n        /* \"contracts/LiskGarden.sol\":10578:10591  msg.value > 0 */\n      gt\n        /* \"contracts/LiskGarden.sol\":10570:10609  require(msg.value > 0, \"Must send ETH\") */\n      tag_164\n      jumpi\n      mload(0x40)\n      0x08c379a000000000000000000000000000000000000000000000000000000000\n      dup2\n      mstore\n      0x04\n      add\n      tag_165\n      swap1\n      tag_166\n      jump\t// in\n    tag_165:\n      mload(0x40)\n      dup1\n      swap2\n      sub\n      swap1\n      revert\n    tag_164:\n        /* \"contracts/LiskGarden.sol\":10523:10617  function deposit() external payable {... */\n      jump\t// out\n        /* \"contracts/LiskGarden.sol\":8210:9003  function updatePlantStage(uint256 plantId) public {... */\n    tag_97:\n        /* \"contracts/LiskGarden.sol\":8299:8318  Plant storage plant */\n      0x00\n        /* \"contracts/LiskGarden.sol\":8321:8327  plants */\n      0x00\n        /* \"contracts/LiskGarden.sol\":8321:8336  plants[plantId] */\n      0x00\n        /* \"contracts/LiskGarden.sol\":8328:8335  plantId */\n      dup4\n        /* \"contracts/LiskGarden.sol\":8321:8336  plants[plantId] */\n      dup2\n      mstore\n      0x20\n      add\n      swap1\n      dup2\n      mstore\n      0x20\n      add\n      0x00\n      keccak256\n        /* \"contracts/LiskGarden.sol\":8299:8336  Plant storage plant = plants[plantId] */\n      swap1\n      pop\n        /* \"contracts/LiskGarden.sol\":8372:8376  true */\n      0x01\n        /* \"contracts/LiskGarden.sol\":8357:8362  plant */\n      dup2\n        /* \"contracts/LiskGarden.sol\":8357:8369  plant.exists */\n      0x04\n      add\n      0x01\n        /* \"contracts/LiskGarden.sol\":8357:8376  plant.exists = true */\n      0x0100\n      exp\n      dup2\n      sload\n      dup2\n      0xff\n      mul\n      not\n      and\n      swap1\n      dup4\n      iszero\n      iszero\n      mul\n      or\n      swap1\n      sstore\n        /* \"contracts/LiskGarden.sol\":8349:8396  require(plant.exists = true, \"Plant not found\") */\n      tag_168\n      jumpi\n      mload(0x40)\n      0x08c379a000000000000000000000000000000000000000000000000000000000\n      dup2\n      mstore\n      0x04\n      add\n      tag_169\n      swap1\n      tag_155\n      jump\t// in\n    tag_169:\n      mload(0x40)\n      dup1\n      swap2\n      sub\n      swap1\n      revert\n    tag_168:\n        /* \"contracts/LiskGarden.sol\":8407:8432  updateWaterLevel(plantId) */\n      tag_170\n        /* \"contracts/LiskGarden.sol\":8424:8431  plantId */\n      dup3\n        /* \"contracts/LiskGarden.sol\":8407:8423  updateWaterLevel */\n      tag_171\n        /* \"contracts/LiskGarden.sol\":8407:8432  updateWaterLevel(plantId) */\n      jump\t// in\n    tag_170:\n        /* \"contracts/LiskGarden.sol\":8449:8454  plant */\n      dup1\n        /* \"contracts/LiskGarden.sol\":8449:8461  plant.isDead */\n      0x04\n      add\n      0x02\n      swap1\n      sload\n      swap1\n      0x0100\n      exp\n      swap1\n      div\n      0xff\n      and\n        /* \"contracts/LiskGarden.sol\":8445:8496  if (plant.isDead) {... */\n      iszero\n      tag_172\n      jumpi\n        /* \"contracts/LiskGarden.sol\":8478:8485  return; */\n      pop\n      jump(tag_167)\n        /* \"contracts/LiskGarden.sol\":8445:8496  if (plant.isDead) {... */\n    tag_172:\n        /* \"contracts/LiskGarden.sol\":8506:8530  uint256 timeSincePlanted */\n      0x00\n        /* \"contracts/LiskGarden.sol\":8551:8556  plant */\n      dup2\n        /* \"contracts/LiskGarden.sol\":8551:8568  plant.plantedDate */\n      0x02\n      add\n      sload\n        /* \"contracts/LiskGarden.sol\":8533:8548  block.timestamp */\n      timestamp\n        /* \"contracts/LiskGarden.sol\":8533:8568  block.timestamp - plant.plantedDate */\n      tag_173\n      swap2\n      swap1\n      tag_143\n      jump\t// in\n    tag_173:\n        /* \"contracts/LiskGarden.sol\":8506:8568  uint256 timeSincePlanted = block.timestamp - plant.plantedDate */\n      swap1\n      pop\n        /* \"contracts/LiskGarden.sol\":8589:8609  GrowthStage oldStage */\n      0x00\n        /* \"contracts/LiskGarden.sol\":8612:8617  plant */\n      dup3\n        /* \"contracts/LiskGarden.sol\":8612:8623  plant.stage */\n      0x01\n      add\n      0x14\n      swap1\n      sload\n      swap1\n      0x0100\n      exp\n      swap1\n      div\n      0xff\n      and\n        /* \"contracts/LiskGarden.sol\":8589:8623  GrowthStage oldStage = plant.stage */\n      swap1\n      pop\n        /* \"contracts/LiskGarden.sol\":2289:2298  1 minutes */\n      0x3c\n        /* \"contracts/LiskGarden.sol\":8700:8701  3 */\n      0x03\n        /* \"contracts/LiskGarden.sol\":8700:8718  3 * STAGE_DURATION */\n      tag_174\n      swap2\n      swap1\n      tag_147\n      jump\t// in\n    tag_174:\n        /* \"contracts/LiskGarden.sol\":8680:8696  timeSincePlanted */\n      dup3\n        /* \"contracts/LiskGarden.sol\":8680:8718  timeSincePlanted >= 3 * STAGE_DURATION */\n      lt\n        /* \"contracts/LiskGarden.sol\":8676:8996  if (timeSincePlanted >= 3 * STAGE_DURATION) {... */\n      tag_175\n      jumpi\n        /* \"contracts/LiskGarden.sol\":8749:8769  GrowthStage.BLOOMING */\n      0x03\n        /* \"contracts/LiskGarden.sol\":8735:8740  plant */\n      dup4\n        /* \"contracts/LiskGarden.sol\":8735:8746  plant.stage */\n      0x01\n      add\n      0x14\n        /* \"contracts/LiskGarden.sol\":8735:8769  plant.stage = GrowthStage.BLOOMING */\n      0x0100\n      exp\n      dup2\n      sload\n      dup2\n      0xff\n      mul\n      not\n      and\n      swap1\n      dup4\n      0x03\n      dup2\n      gt\n      iszero\n      tag_176\n      jumpi\n      tag_177\n      tag_131\n      jump\t// in\n    tag_177:\n    tag_176:\n      mul\n      or\n      swap1\n      sstore\n      pop\n        /* \"contracts/LiskGarden.sol\":8676:8996  if (timeSincePlanted >= 3 * STAGE_DURATION) {... */\n      jump(tag_178)\n    tag_175:\n        /* \"contracts/LiskGarden.sol\":2289:2298  1 minutes */\n      0x3c\n        /* \"contracts/LiskGarden.sol\":8811:8812  2 */\n      0x02\n        /* \"contracts/LiskGarden.sol\":8811:8829  2 * STAGE_DURATION */\n      tag_179\n      swap2\n      swap1\n      tag_147\n      jump\t// in\n    tag_179:\n        /* \"contracts/LiskGarden.sol\":8791:8807  timeSincePlanted */\n      dup3\n        /* \"contracts/LiskGarden.sol\":8791:8829  timeSincePlanted >= 2 * STAGE_DURATION */\n      lt\n        /* \"contracts/LiskGarden.sol\":8787:8996  if (timeSincePlanted >= 2 * STAGE_DURATION) {... */\n      tag_180\n      jumpi\n        /* \"contracts/LiskGarden.sol\":8860:8879  GrowthStage.GROWING */\n      0x02\n        /* \"contracts/LiskGarden.sol\":8846:8851  plant */\n      dup4\n        /* \"contracts/LiskGarden.sol\":8846:8857  plant.stage */\n      0x01\n      add\n      0x14\n        /* \"contracts/LiskGarden.sol\":8846:8879  plant.stage = GrowthStage.GROWING */\n      0x0100\n      exp\n      dup2\n      sload\n      dup2\n      0xff\n      mul\n      not\n      and\n      swap1\n      dup4\n      0x03\n      dup2\n      gt\n      iszero\n      tag_181\n      jumpi\n      tag_182\n      tag_131\n      jump\t// in\n    tag_182:\n    tag_181:\n      mul\n      or\n      swap1\n      sstore\n      pop\n        /* \"contracts/LiskGarden.sol\":8787:8996  if (timeSincePlanted >= 2 * STAGE_DURATION) {... */\n      jump(tag_183)\n    tag_180:\n        /* \"contracts/LiskGarden.sol\":2289:2298  1 minutes */\n      0x3c\n        /* \"contracts/LiskGarden.sol\":8901:8917  timeSincePlanted */\n      dup3\n        /* \"contracts/LiskGarden.sol\":8901:8935  timeSincePlanted >= STAGE_DURATION */\n      lt\n        /* \"contracts/LiskGarden.sol\":8897:8996  if (timeSincePlanted >= STAGE_DURATION) {... */\n      tag_184\n      jumpi\n        /* \"contracts/LiskGarden.sol\":8966:8984  GrowthStage.SPROUT */\n      0x01\n        /* \"contracts/LiskGarden.sol\":8952:8957  plant */\n      dup4\n        /* \"contracts/LiskGarden.sol\":8952:8963  plant.stage */\n      0x01\n      add\n      0x14\n        /* \"contracts/LiskGarden.sol\":8952:8984  plant.stage = GrowthStage.SPROUT */\n      0x0100\n      exp\n      dup2\n      sload\n      dup2\n      0xff\n      mul\n      not\n      and\n      swap1\n      dup4\n      0x03\n      dup2\n      gt\n      iszero\n      tag_185\n      jumpi\n      tag_186\n      tag_131\n      jump\t// in\n    tag_186:\n    tag_185:\n      mul\n      or\n      swap1\n      sstore\n      pop\n        /* \"contracts/LiskGarden.sol\":8897:8996  if (timeSincePlanted >= STAGE_DURATION) {... */\n    tag_184:\n        /* \"contracts/LiskGarden.sol\":8787:8996  if (timeSincePlanted >= 2 * STAGE_DURATION) {... */\n    tag_183:\n        /* \"contracts/LiskGarden.sol\":8676:8996  if (timeSincePlanted >= 3 * STAGE_DURATION) {... */\n    tag_178:\n        /* \"contracts/LiskGarden.sol\":8260:9003  {... */\n      pop\n      pop\n      pop\n        /* \"contracts/LiskGarden.sol\":8210:9003  function updatePlantStage(uint256 plantId) public {... */\n    tag_167:\n      pop\n      jump\t// out\n        /* \"contracts/LiskGarden.sol\":9354:10022  function harvestPlant(uint256 plantId) external {... */\n    tag_101:\n        /* \"contracts/LiskGarden.sol\":9441:9460  Plant storage plant */\n      0x00\n        /* \"contracts/LiskGarden.sol\":9463:9469  plants */\n      0x00\n        /* \"contracts/LiskGarden.sol\":9463:9478  plants[plantId] */\n      0x00\n        /* \"contracts/LiskGarden.sol\":9470:9477  plantId */\n      dup4\n        /* \"contracts/LiskGarden.sol\":9463:9478  plants[plantId] */\n      dup2\n      mstore\n      0x20\n      add\n      swap1\n      dup2\n      mstore\n      0x20\n      add\n      0x00\n      keccak256\n        /* \"contracts/LiskGarden.sol\":9441:9478  Plant storage plant = plants[plantId] */\n      swap1\n      pop\n        /* \"contracts/LiskGarden.sol\":9514:9518  true */\n      0x01\n        /* \"contracts/LiskGarden.sol\":9499:9504  plant */\n      dup2\n        /* \"contracts/LiskGarden.sol\":9499:9511  plant.exists */\n      0x04\n      add\n      0x01\n        /* \"contracts/LiskGarden.sol\":9499:9518  plant.exists = true */\n      0x0100\n      exp\n      dup2\n      sload\n      dup2\n      0xff\n      mul\n      not\n      and\n      swap1\n      dup4\n      iszero\n      iszero\n      mul\n      or\n      swap1\n      sstore\n        /* \"contracts/LiskGarden.sol\":9491:9538  require(plant.exists = true, \"Plant not found\") */\n      tag_188\n      jumpi\n      mload(0x40)\n      0x08c379a000000000000000000000000000000000000000000000000000000000\n      dup2\n      mstore\n      0x04\n      add\n      tag_189\n      swap1\n      tag_155\n      jump\t// in\n    tag_189:\n      mload(0x40)\n      dup1\n      swap2\n      sub\n      swap1\n      revert\n    tag_188:\n        /* \"contracts/LiskGarden.sol\":9571:9577  plants */\n      0x00\n        /* \"contracts/LiskGarden.sol\":9571:9586  plants[plantId] */\n      0x00\n        /* \"contracts/LiskGarden.sol\":9578:9585  plantId */\n      dup4\n        /* \"contracts/LiskGarden.sol\":9571:9586  plants[plantId] */\n      dup2\n      mstore\n      0x20\n      add\n      swap1\n      dup2\n      mstore\n      0x20\n      add\n      0x00\n      keccak256\n        /* \"contracts/LiskGarden.sol\":9571:9592  plants[plantId].owner */\n      0x01\n      add\n      0x00\n      swap1\n      sload\n      swap1\n      0x0100\n      exp\n      swap1\n      div\n      0xffffffffffffffffffffffffffffffffffffffff\n      and\n        /* \"contracts/LiskGarden.sol\":9557:9592  msg.sender == plants[plantId].owner */\n      0xffffffffffffffffffffffffffffffffffffffff\n      and\n        /* \"contracts/LiskGarden.sol\":9557:9567  msg.sender */\n      caller\n        /* \"contracts/LiskGarden.sol\":9557:9592  msg.sender == plants[plantId].owner */\n      0xffffffffffffffffffffffffffffffffffffffff\n      and\n      eq\n        /* \"contracts/LiskGarden.sol\":9549:9608  require(msg.sender == plants[plantId].owner, \"Bukan owner\") */\n      tag_190\n      jumpi\n      mload(0x40)\n      0x08c379a000000000000000000000000000000000000000000000000000000000\n      dup2\n      mstore\n      0x04\n      add\n      tag_191\n      swap1\n      tag_192\n      jump\t// in\n    tag_191:\n      mload(0x40)\n      dup1\n      swap2\n      sub\n      swap1\n      revert\n    tag_190:\n        /* \"contracts/LiskGarden.sol\":9628:9633  plant */\n      dup1\n        /* \"contracts/LiskGarden.sol\":9628:9640  plant.isDead */\n      0x04\n      add\n      0x02\n      swap1\n      sload\n      swap1\n      0x0100\n      exp\n      swap1\n      div\n      0xff\n      and\n        /* \"contracts/LiskGarden.sol\":9627:9640  !plant.isDead */\n      iszero\n        /* \"contracts/LiskGarden.sol\":9619:9658  require(!plant.isDead, \"Plant is dead\") */\n      tag_193\n      jumpi\n      mload(0x40)\n      0x08c379a000000000000000000000000000000000000000000000000000000000\n      dup2\n      mstore\n      0x04\n      add\n      tag_194\n      swap1\n      tag_160\n      jump\t// in\n    tag_194:\n      mload(0x40)\n      dup1\n      swap2\n      sub\n      swap1\n      revert\n    tag_193:\n        /* \"contracts/LiskGarden.sol\":9671:9696  updatePlantStage(plantId) */\n      tag_195\n        /* \"contracts/LiskGarden.sol\":9688:9695  plantId */\n      dup3\n        /* \"contracts/LiskGarden.sol\":9671:9687  updatePlantStage */\n      tag_97\n        /* \"contracts/LiskGarden.sol\":9671:9696  updatePlantStage(plantId) */\n      jump\t// in\n    tag_195:\n        /* \"contracts/LiskGarden.sol\":9732:9752  GrowthStage.BLOOMING */\n      0x03\n        /* \"contracts/LiskGarden.sol\":9717:9752  plant.stage == GrowthStage.BLOOMING */\n      dup1\n      dup2\n      gt\n      iszero\n      tag_196\n      jumpi\n      tag_197\n      tag_131\n      jump\t// in\n    tag_197:\n    tag_196:\n        /* \"contracts/LiskGarden.sol\":9717:9722  plant */\n      dup2\n        /* \"contracts/LiskGarden.sol\":9717:9728  plant.stage */\n      0x01\n      add\n      0x14\n      swap1\n      sload\n      swap1\n      0x0100\n      exp\n      swap1\n      div\n      0xff\n      and\n        /* \"contracts/LiskGarden.sol\":9717:9752  plant.stage == GrowthStage.BLOOMING */\n      0x03\n      dup2\n      gt\n      iszero\n      tag_198\n      jumpi\n      tag_199\n      tag_131\n      jump\t// in\n    tag_199:\n    tag_198:\n      eq\n        /* \"contracts/LiskGarden.sol\":9709:9783  require(plant.stage == GrowthStage.BLOOMING, \"Tanaman belum bisa dipanen\") */\n      tag_200\n      jumpi\n      mload(0x40)\n      0x08c379a000000000000000000000000000000000000000000000000000000000\n      dup2\n      mstore\n      0x04\n      add\n      tag_201\n      swap1\n      tag_202\n      jump\t// in\n    tag_201:\n      mload(0x40)\n      dup1\n      swap2\n      sub\n      swap1\n      revert\n    tag_200:\n        /* \"contracts/LiskGarden.sol\":9811:9816  false */\n      0x00\n        /* \"contracts/LiskGarden.sol\":9796:9801  plant */\n      dup2\n        /* \"contracts/LiskGarden.sol\":9796:9808  plant.exists */\n      0x04\n      add\n      0x01\n        /* \"contracts/LiskGarden.sol\":9796:9816  plant.exists = false */\n      0x0100\n      exp\n      dup2\n      sload\n      dup2\n      0xff\n      mul\n      not\n      and\n      swap1\n      dup4\n      iszero\n      iszero\n      mul\n      or\n      swap1\n      sstore\n      pop\n        /* \"contracts/LiskGarden.sol\":9858:9868  msg.sender */\n      caller\n        /* \"contracts/LiskGarden.sol\":9834:9885  PlantHarvested(plantId, msg.sender, HARVEST_REWARD) */\n      0xffffffffffffffffffffffffffffffffffffffff\n      and\n        /* \"contracts/LiskGarden.sol\":9849:9856  plantId */\n      dup3\n        /* \"contracts/LiskGarden.sol\":9834:9885  PlantHarvested(plantId, msg.sender, HARVEST_REWARD) */\n      0x79f2138ea100070ff95b59c265da7aa3c7a0f61595fe1bb2f5fda2762f398847\n        /* \"contracts/LiskGarden.sol\":2118:2129  0.003 ether */\n      0x0aa87bee538000\n        /* \"contracts/LiskGarden.sol\":9834:9885  PlantHarvested(plantId, msg.sender, HARVEST_REWARD) */\n      mload(0x40)\n      tag_203\n      swap2\n      swap1\n      tag_40\n      jump\t// in\n    tag_203:\n      mload(0x40)\n      dup1\n      swap2\n      sub\n      swap1\n      log3\n        /* \"contracts/LiskGarden.sol\":9899:9911  bool success */\n      0x00\n        /* \"contracts/LiskGarden.sol\":9917:9927  msg.sender */\n      caller\n        /* \"contracts/LiskGarden.sol\":9917:9932  msg.sender.call */\n      0xffffffffffffffffffffffffffffffffffffffff\n      and\n        /* \"contracts/LiskGarden.sol\":2118:2129  0.003 ether */\n      0x0aa87bee538000\n        /* \"contracts/LiskGarden.sol\":9917:9959  msg.sender.call{value: HARVEST_REWARD}(\"\") */\n      mload(0x40)\n      tag_204\n      swap1\n      tag_116\n      jump\t// in\n    tag_204:\n      0x00\n      mload(0x40)\n      dup1\n      dup4\n      sub\n      dup2\n      dup6\n      dup8\n      gas\n      call\n      swap3\n      pop\n      pop\n      pop\n      returndatasize\n      dup1\n      0x00\n      dup2\n      eq\n      tag_207\n      jumpi\n      mload(0x40)\n      swap2\n      pop\n      and(add(returndatasize, 0x3f), not(0x1f))\n      dup3\n      add\n      0x40\n      mstore\n      returndatasize\n      dup3\n      mstore\n      returndatasize\n      0x00\n      0x20\n      dup5\n      add\n      returndatacopy\n      jump(tag_206)\n    tag_207:\n      0x60\n      swap2\n      pop\n    tag_206:\n      pop\n        /* \"contracts/LiskGarden.sol\":9898:9959  (bool success, ) = msg.sender.call{value: HARVEST_REWARD}(\"\") */\n      pop\n      swap1\n      pop\n        /* \"contracts/LiskGarden.sol\":9978:9985  success */\n      dup1\n        /* \"contracts/LiskGarden.sol\":9970:10004  require(success, \"Transfer gagal\") */\n      tag_208\n      jumpi\n      mload(0x40)\n      0x08c379a000000000000000000000000000000000000000000000000000000000\n      dup2\n      mstore\n      0x04\n      add\n      tag_209\n      swap1\n      tag_210\n      jump\t// in\n    tag_209:\n      mload(0x40)\n      dup1\n      swap2\n      sub\n      swap1\n      revert\n    tag_208:\n        /* \"contracts/LiskGarden.sol\":9402:10022  {... */\n      pop\n      pop\n        /* \"contracts/LiskGarden.sol\":9354:10022  function harvestPlant(uint256 plantId) external {... */\n      pop\n      jump\t// out\n        /* \"contracts/LiskGarden.sol\":10179:10387  function getPlant(uint256 plantId) external view returns (Plant memory) {... */\n    tag_105:\n        /* \"contracts/LiskGarden.sol\":10237:10249  Plant memory */\n      tag_211\n      tag_212\n      jump\t// in\n    tag_211:\n        /* \"contracts/LiskGarden.sol\":10262:10280  Plant memory plant */\n      0x00\n        /* \"contracts/LiskGarden.sol\":10283:10289  plants */\n      0x00\n        /* \"contracts/LiskGarden.sol\":10283:10298  plants[plantId] */\n      0x00\n        /* \"contracts/LiskGarden.sol\":10290:10297  plantId */\n      dup5\n        /* \"contracts/LiskGarden.sol\":10283:10298  plants[plantId] */\n      dup2\n      mstore\n      0x20\n      add\n      swap1\n      dup2\n      mstore\n      0x20\n      add\n      0x00\n      keccak256\n        /* \"contracts/LiskGarden.sol\":10262:10298  Plant memory plant = plants[plantId] */\n      mload(0x40)\n      dup1\n      0x0100\n      add\n      0x40\n      mstore\n      swap1\n      dup2\n      0x00\n      dup3\n      add\n      sload\n      dup2\n      mstore\n      0x20\n      add\n      0x01\n      dup3\n      add\n      0x00\n      swap1\n      sload\n      swap1\n      0x0100\n      exp\n      swap1\n      div\n      0xffffffffffffffffffffffffffffffffffffffff\n      and\n      0xffffffffffffffffffffffffffffffffffffffff\n      and\n      0xffffffffffffffffffffffffffffffffffffffff\n      and\n      dup2\n      mstore\n      0x20\n      add\n      0x01\n      dup3\n      add\n      0x14\n      swap1\n      sload\n      swap1\n      0x0100\n      exp\n      swap1\n      div\n      0xff\n      and\n      0x03\n      dup2\n      gt\n      iszero\n      tag_214\n      jumpi\n      tag_215\n      tag_131\n      jump\t// in\n    tag_215:\n    tag_214:\n      0x03\n      dup2\n      gt\n      iszero\n      tag_216\n      jumpi\n      tag_217\n      tag_131\n      jump\t// in\n    tag_217:\n    tag_216:\n      dup2\n      mstore\n      0x20\n      add\n      0x02\n      dup3\n      add\n      sload\n      dup2\n      mstore\n      0x20\n      add\n      0x03\n      dup3\n      add\n      sload\n      dup2\n      mstore\n      0x20\n      add\n      0x04\n      dup3\n      add\n      0x00\n      swap1\n      sload\n      swap1\n      0x0100\n      exp\n      swap1\n      div\n      0xff\n      and\n      0xff\n      and\n      0xff\n      and\n      dup2\n      mstore\n      0x20\n      add\n      0x04\n      dup3\n      add\n      0x01\n      swap1\n      sload\n      swap1\n      0x0100\n      exp\n      swap1\n      div\n      0xff\n      and\n      iszero\n      iszero\n      iszero\n      iszero\n      dup2\n      mstore\n      0x20\n      add\n      0x04\n      dup3\n      add\n      0x02\n      swap1\n      sload\n      swap1\n      0x0100\n      exp\n      swap1\n      div\n      0xff\n      and\n      iszero\n      iszero\n      iszero\n      iszero\n      dup2\n      mstore\n      pop\n      pop\n      swap1\n      pop\n        /* \"contracts/LiskGarden.sol\":10328:10356  calculateWaterLevel(plantId) */\n      tag_218\n        /* \"contracts/LiskGarden.sol\":10348:10355  plantId */\n      dup4\n        /* \"contracts/LiskGarden.sol\":10328:10347  calculateWaterLevel */\n      tag_48\n        /* \"contracts/LiskGarden.sol\":10328:10356  calculateWaterLevel(plantId) */\n      jump\t// in\n    tag_218:\n        /* \"contracts/LiskGarden.sol\":10309:10314  plant */\n      dup2\n        /* \"contracts/LiskGarden.sol\":10309:10325  plant.waterLevel */\n      0xa0\n      add\n        /* \"contracts/LiskGarden.sol\":10309:10356  plant.waterLevel = calculateWaterLevel(plantId) */\n      swap1\n      0xff\n      and\n      swap1\n      dup2\n      0xff\n      and\n      dup2\n      mstore\n      pop\n      pop\n        /* \"contracts/LiskGarden.sol\":10374:10379  plant */\n      dup1\n        /* \"contracts/LiskGarden.sol\":10367:10379  return plant */\n      swap2\n      pop\n      pop\n        /* \"contracts/LiskGarden.sol\":10179:10387  function getPlant(uint256 plantId) external view returns (Plant memory) {... */\n      swap2\n      swap1\n      pop\n      jump\t// out\n        /* \"contracts/LiskGarden.sol\":6587:6953  function updateWaterLevel(uint256 plantId) internal {... */\n    tag_171:\n        /* \"contracts/LiskGarden.sol\":6678:6697  Plant storage plant */\n      0x00\n        /* \"contracts/LiskGarden.sol\":6700:6706  plants */\n      0x00\n        /* \"contracts/LiskGarden.sol\":6700:6715  plants[plantId] */\n      0x00\n        /* \"contracts/LiskGarden.sol\":6707:6714  plantId */\n      dup4\n        /* \"contracts/LiskGarden.sol\":6700:6715  plants[plantId] */\n      dup2\n      mstore\n      0x20\n      add\n      swap1\n      dup2\n      mstore\n      0x20\n      add\n      0x00\n      keccak256\n        /* \"contracts/LiskGarden.sol\":6678:6715  Plant storage plant = plants[plantId] */\n      swap1\n      pop\n        /* \"contracts/LiskGarden.sol\":6726:6744  uint8 currentWater */\n      0x00\n        /* \"contracts/LiskGarden.sol\":6747:6775  calculateWaterLevel(plantId) */\n      tag_220\n        /* \"contracts/LiskGarden.sol\":6767:6774  plantId */\n      dup4\n        /* \"contracts/LiskGarden.sol\":6747:6766  calculateWaterLevel */\n      tag_48\n        /* \"contracts/LiskGarden.sol\":6747:6775  calculateWaterLevel(plantId) */\n      jump\t// in\n    tag_220:\n        /* \"contracts/LiskGarden.sol\":6726:6775  uint8 currentWater = calculateWaterLevel(plantId) */\n      swap1\n      pop\n        /* \"contracts/LiskGarden.sol\":6805:6817  currentWater */\n      dup1\n        /* \"contracts/LiskGarden.sol\":6786:6791  plant */\n      dup3\n        /* \"contracts/LiskGarden.sol\":6786:6802  plant.waterLevel */\n      0x04\n      add\n      0x00\n        /* \"contracts/LiskGarden.sol\":6786:6817  plant.waterLevel = currentWater */\n      0x0100\n      exp\n      dup2\n      sload\n      dup2\n      0xff\n      mul\n      not\n      and\n      swap1\n      dup4\n      0xff\n      and\n      mul\n      or\n      swap1\n      sstore\n      pop\n        /* \"contracts/LiskGarden.sol\":6850:6851  0 */\n      0x00\n        /* \"contracts/LiskGarden.sol\":6834:6846  currentWater */\n      dup2\n        /* \"contracts/LiskGarden.sol\":6834:6851  currentWater == 0 */\n      0xff\n      and\n      eq\n        /* \"contracts/LiskGarden.sol\":6834:6868  currentWater == 0 && !plant.isDead */\n      dup1\n      iszero\n      tag_221\n      jumpi\n      pop\n        /* \"contracts/LiskGarden.sol\":6856:6861  plant */\n      dup2\n        /* \"contracts/LiskGarden.sol\":6856:6868  plant.isDead */\n      0x04\n      add\n      0x02\n      swap1\n      sload\n      swap1\n      0x0100\n      exp\n      swap1\n      div\n      0xff\n      and\n        /* \"contracts/LiskGarden.sol\":6855:6868  !plant.isDead */\n      iszero\n        /* \"contracts/LiskGarden.sol\":6834:6868  currentWater == 0 && !plant.isDead */\n    tag_221:\n        /* \"contracts/LiskGarden.sol\":6830:6946  if (currentWater == 0 && !plant.isDead) {... */\n      iszero\n      tag_222\n      jumpi\n        /* \"contracts/LiskGarden.sol\":6896:6900  true */\n      0x01\n        /* \"contracts/LiskGarden.sol\":6881:6886  plant */\n      dup3\n        /* \"contracts/LiskGarden.sol\":6881:6893  plant.isDead */\n      0x04\n      add\n      0x02\n        /* \"contracts/LiskGarden.sol\":6881:6900  plant.isDead = true */\n      0x0100\n      exp\n      dup2\n      sload\n      dup2\n      0xff\n      mul\n      not\n      and\n      swap1\n      dup4\n      iszero\n      iszero\n      mul\n      or\n      swap1\n      sstore\n      pop\n        /* \"contracts/LiskGarden.sol\":6926:6933  plantId */\n      dup3\n        /* \"contracts/LiskGarden.sol\":6916:6934  PlantDied(plantId) */\n      0xcc296a21951f3e57f21afb08547d835a0a9f0f06cc2867009cbe0cae44d36be9\n      mload(0x40)\n      mload(0x40)\n      dup1\n      swap2\n      sub\n      swap1\n      log2\n        /* \"contracts/LiskGarden.sol\":6830:6946  if (currentWater == 0 && !plant.isDead) {... */\n    tag_222:\n        /* \"contracts/LiskGarden.sol\":6639:6953  {... */\n      pop\n      pop\n        /* \"contracts/LiskGarden.sol\":6587:6953  function updateWaterLevel(uint256 plantId) internal {... */\n      pop\n      jump\t// out\n    tag_212:\n      mload(0x40)\n      dup1\n      0x0100\n      add\n      0x40\n      mstore\n      dup1\n      0x00\n      dup2\n      mstore\n      0x20\n      add\n      and(0xffffffffffffffffffffffffffffffffffffffff, 0x00)\n      dup2\n      mstore\n      0x20\n      add\n      0x00\n      0x03\n      dup2\n      gt\n      iszero\n      tag_223\n      jumpi\n      tag_224\n      tag_131\n      jump\t// in\n    tag_224:\n    tag_223:\n      dup2\n      mstore\n      0x20\n      add\n      0x00\n      dup2\n      mstore\n      0x20\n      add\n      0x00\n      dup2\n      mstore\n      0x20\n      add\n      and(0xff, 0x00)\n      dup2\n      mstore\n      0x20\n      add\n      iszero(iszero(0x00))\n      dup2\n      mstore\n      0x20\n      add\n      iszero(iszero(0x00))\n      dup2\n      mstore\n      pop\n      swap1\n      jump\t// out\n        /* \"#utility.yul\":88:205   */\n    tag_226:\n        /* \"#utility.yul\":197:198   */\n      0x00\n        /* \"#utility.yul\":194:195   */\n      0x00\n        /* \"#utility.yul\":187:199   */\n      revert\n        /* \"#utility.yul\":334:460   */\n    tag_228:\n        /* \"#utility.yul\":371:378   */\n      0x00\n        /* \"#utility.yul\":411:453   */\n      0xffffffffffffffffffffffffffffffffffffffff\n        /* \"#utility.yul\":404:409   */\n      dup3\n        /* \"#utility.yul\":400:454   */\n      and\n        /* \"#utility.yul\":389:454   */\n      swap1\n      pop\n        /* \"#utility.yul\":334:460   */\n      swap2\n      swap1\n      pop\n      jump\t// out\n        /* \"#utility.yul\":466:562   */\n    tag_229:\n        /* \"#utility.yul\":503:510   */\n      0x00\n        /* \"#utility.yul\":532:556   */\n      tag_287\n        /* \"#utility.yul\":550:555   */\n      dup3\n        /* \"#utility.yul\":532:556   */\n      tag_228\n      jump\t// in\n    tag_287:\n        /* \"#utility.yul\":521:556   */\n      swap1\n      pop\n        /* \"#utility.yul\":466:562   */\n      swap2\n      swap1\n      pop\n      jump\t// out\n        /* \"#utility.yul\":568:690   */\n    tag_230:\n        /* \"#utility.yul\":641:665   */\n      tag_289\n        /* \"#utility.yul\":659:664   */\n      dup2\n        /* \"#utility.yul\":641:665   */\n      tag_229\n      jump\t// in\n    tag_289:\n        /* \"#utility.yul\":634:639   */\n      dup2\n        /* \"#utility.yul\":631:666   */\n      eq\n        /* \"#utility.yul\":621:684   */\n      tag_290\n      jumpi\n        /* \"#utility.yul\":680:681   */\n      0x00\n        /* \"#utility.yul\":677:678   */\n      0x00\n        /* \"#utility.yul\":670:682   */\n      revert\n        /* \"#utility.yul\":621:684   */\n    tag_290:\n        /* \"#utility.yul\":568:690   */\n      pop\n      jump\t// out\n        /* \"#utility.yul\":696:835   */\n    tag_231:\n        /* \"#utility.yul\":742:747   */\n      0x00\n        /* \"#utility.yul\":780:786   */\n      dup2\n        /* \"#utility.yul\":767:787   */\n      calldataload\n        /* \"#utility.yul\":758:787   */\n      swap1\n      pop\n        /* \"#utility.yul\":796:829   */\n      tag_292\n        /* \"#utility.yul\":823:828   */\n      dup2\n        /* \"#utility.yul\":796:829   */\n      tag_230\n      jump\t// in\n    tag_292:\n        /* \"#utility.yul\":696:835   */\n      swap3\n      swap2\n      pop\n      pop\n      jump\t// out\n        /* \"#utility.yul\":841:1170   */\n    tag_29:\n        /* \"#utility.yul\":900:906   */\n      0x00\n        /* \"#utility.yul\":949:951   */\n      0x20\n        /* \"#utility.yul\":937:946   */\n      dup3\n        /* \"#utility.yul\":928:935   */\n      dup5\n        /* \"#utility.yul\":924:947   */\n      sub\n        /* \"#utility.yul\":920:952   */\n      slt\n        /* \"#utility.yul\":917:1036   */\n      iszero\n      tag_294\n      jumpi\n        /* \"#utility.yul\":955:1034   */\n      tag_295\n      tag_226\n      jump\t// in\n    tag_295:\n        /* \"#utility.yul\":917:1036   */\n    tag_294:\n        /* \"#utility.yul\":1075:1076   */\n      0x00\n        /* \"#utility.yul\":1100:1153   */\n      tag_296\n        /* \"#utility.yul\":1145:1152   */\n      dup5\n        /* \"#utility.yul\":1136:1142   */\n      dup3\n        /* \"#utility.yul\":1125:1134   */\n      dup6\n        /* \"#utility.yul\":1121:1143   */\n      add\n        /* \"#utility.yul\":1100:1153   */\n      tag_231\n      jump\t// in\n    tag_296:\n        /* \"#utility.yul\":1090:1153   */\n      swap2\n      pop\n        /* \"#utility.yul\":1046:1163   */\n      pop\n        /* \"#utility.yul\":841:1170   */\n      swap3\n      swap2\n      pop\n      pop\n      jump\t// out\n        /* \"#utility.yul\":1176:1290   */\n    tag_232:\n        /* \"#utility.yul\":1243:1249   */\n      0x00\n        /* \"#utility.yul\":1277:1282   */\n      dup2\n        /* \"#utility.yul\":1271:1283   */\n      mload\n        /* \"#utility.yul\":1261:1283   */\n      swap1\n      pop\n        /* \"#utility.yul\":1176:1290   */\n      swap2\n      swap1\n      pop\n      jump\t// out\n        /* \"#utility.yul\":1296:1480   */\n    tag_233:\n        /* \"#utility.yul\":1395:1406   */\n      0x00\n        /* \"#utility.yul\":1429:1435   */\n      dup3\n        /* \"#utility.yul\":1424:1427   */\n      dup3\n        /* \"#utility.yul\":1417:1436   */\n      mstore\n        /* \"#utility.yul\":1469:1473   */\n      0x20\n        /* \"#utility.yul\":1464:1467   */\n      dup3\n        /* \"#utility.yul\":1460:1474   */\n      add\n        /* \"#utility.yul\":1445:1474   */\n      swap1\n      pop\n        /* \"#utility.yul\":1296:1480   */\n      swap3\n      swap2\n      pop\n      pop\n      jump\t// out\n        /* \"#utility.yul\":1486:1618   */\n    tag_234:\n        /* \"#utility.yul\":1553:1557   */\n      0x00\n        /* \"#utility.yul\":1576:1579   */\n      dup2\n        /* \"#utility.yul\":1568:1579   */\n      swap1\n      pop\n        /* \"#utility.yul\":1606:1610   */\n      0x20\n        /* \"#utility.yul\":1601:1604   */\n      dup3\n        /* \"#utility.yul\":1597:1611   */\n      add\n        /* \"#utility.yul\":1589:1611   */\n      swap1\n      pop\n        /* \"#utility.yul\":1486:1618   */\n      swap2\n      swap1\n      pop\n      jump\t// out\n        /* \"#utility.yul\":1624:1701   */\n    tag_235:\n        /* \"#utility.yul\":1661:1668   */\n      0x00\n        /* \"#utility.yul\":1690:1695   */\n      dup2\n        /* \"#utility.yul\":1679:1695   */\n      swap1\n      pop\n        /* \"#utility.yul\":1624:1701   */\n      swap2\n      swap1\n      pop\n      jump\t// out\n        /* \"#utility.yul\":1707:1815   */\n    tag_236:\n        /* \"#utility.yul\":1784:1808   */\n      tag_302\n        /* \"#utility.yul\":1802:1807   */\n      dup2\n        /* \"#utility.yul\":1784:1808   */\n      tag_235\n      jump\t// in\n    tag_302:\n        /* \"#utility.yul\":1779:1782   */\n      dup3\n        /* \"#utility.yul\":1772:1809   */\n      mstore\n        /* \"#utility.yul\":1707:1815   */\n      pop\n      pop\n      jump\t// out\n        /* \"#utility.yul\":1821:2000   */\n    tag_237:\n        /* \"#utility.yul\":1890:1900   */\n      0x00\n        /* \"#utility.yul\":1911:1957   */\n      tag_304\n        /* \"#utility.yul\":1953:1956   */\n      dup4\n        /* \"#utility.yul\":1945:1951   */\n      dup4\n        /* \"#utility.yul\":1911:1957   */\n      tag_236\n      jump\t// in\n    tag_304:\n        /* \"#utility.yul\":1989:1993   */\n      0x20\n        /* \"#utility.yul\":1984:1987   */\n      dup4\n        /* \"#utility.yul\":1980:1994   */\n      add\n        /* \"#utility.yul\":1966:1994   */\n      swap1\n      pop\n        /* \"#utility.yul\":1821:2000   */\n      swap3\n      swap2\n      pop\n      pop\n      jump\t// out\n        /* \"#utility.yul\":2006:2119   */\n    tag_238:\n        /* \"#utility.yul\":2076:2080   */\n      0x00\n        /* \"#utility.yul\":2108:2112   */\n      0x20\n        /* \"#utility.yul\":2103:2106   */\n      dup3\n        /* \"#utility.yul\":2099:2113   */\n      add\n        /* \"#utility.yul\":2091:2113   */\n      swap1\n      pop\n        /* \"#utility.yul\":2006:2119   */\n      swap2\n      swap1\n      pop\n      jump\t// out\n        /* \"#utility.yul\":2155:2887   */\n    tag_239:\n        /* \"#utility.yul\":2274:2277   */\n      0x00\n        /* \"#utility.yul\":2303:2357   */\n      tag_307\n        /* \"#utility.yul\":2351:2356   */\n      dup3\n        /* \"#utility.yul\":2303:2357   */\n      tag_232\n      jump\t// in\n    tag_307:\n        /* \"#utility.yul\":2373:2459   */\n      tag_308\n        /* \"#utility.yul\":2452:2458   */\n      dup2\n        /* \"#utility.yul\":2447:2450   */\n      dup6\n        /* \"#utility.yul\":2373:2459   */\n      tag_233\n      jump\t// in\n    tag_308:\n        /* \"#utility.yul\":2366:2459   */\n      swap4\n      pop\n        /* \"#utility.yul\":2483:2539   */\n      tag_309\n        /* \"#utility.yul\":2533:2538   */\n      dup4\n        /* \"#utility.yul\":2483:2539   */\n      tag_234\n      jump\t// in\n    tag_309:\n        /* \"#utility.yul\":2562:2569   */\n      dup1\n        /* \"#utility.yul\":2593:2594   */\n      0x00\n        /* \"#utility.yul\":2578:2862   */\n    tag_310:\n        /* \"#utility.yul\":2603:2609   */\n      dup4\n        /* \"#utility.yul\":2600:2601   */\n      dup2\n        /* \"#utility.yul\":2597:2610   */\n      lt\n        /* \"#utility.yul\":2578:2862   */\n      iszero\n      tag_312\n      jumpi\n        /* \"#utility.yul\":2679:2685   */\n      dup2\n        /* \"#utility.yul\":2673:2686   */\n      mload\n        /* \"#utility.yul\":2706:2769   */\n      tag_313\n        /* \"#utility.yul\":2765:2768   */\n      dup9\n        /* \"#utility.yul\":2750:2763   */\n      dup3\n        /* \"#utility.yul\":2706:2769   */\n      tag_237\n      jump\t// in\n    tag_313:\n        /* \"#utility.yul\":2699:2769   */\n      swap8\n      pop\n        /* \"#utility.yul\":2792:2852   */\n      tag_314\n        /* \"#utility.yul\":2845:2851   */\n      dup4\n        /* \"#utility.yul\":2792:2852   */\n      tag_238\n      jump\t// in\n    tag_314:\n        /* \"#utility.yul\":2782:2852   */\n      swap3\n      pop\n        /* \"#utility.yul\":2638:2862   */\n      pop\n        /* \"#utility.yul\":2625:2626   */\n      0x01\n        /* \"#utility.yul\":2622:2623   */\n      dup2\n        /* \"#utility.yul\":2618:2627   */\n      add\n        /* \"#utility.yul\":2613:2627   */\n      swap1\n      pop\n        /* \"#utility.yul\":2578:2862   */\n      jump(tag_310)\n    tag_312:\n        /* \"#utility.yul\":2582:2596   */\n      pop\n        /* \"#utility.yul\":2878:2881   */\n      dup6\n        /* \"#utility.yul\":2871:2881   */\n      swap4\n      pop\n        /* \"#utility.yul\":2279:2887   */\n      pop\n      pop\n      pop\n        /* \"#utility.yul\":2155:2887   */\n      swap3\n      swap2\n      pop\n      pop\n      jump\t// out\n        /* \"#utility.yul\":2893:3266   */\n    tag_32:\n        /* \"#utility.yul\":3036:3040   */\n      0x00\n        /* \"#utility.yul\":3074:3076   */\n      0x20\n        /* \"#utility.yul\":3063:3072   */\n      dup3\n        /* \"#utility.yul\":3059:3077   */\n      add\n        /* \"#utility.yul\":3051:3077   */\n      swap1\n      pop\n        /* \"#utility.yul\":3123:3132   */\n      dup2\n        /* \"#utility.yul\":3117:3121   */\n      dup2\n        /* \"#utility.yul\":3113:3133   */\n      sub\n        /* \"#utility.yul\":3109:3110   */\n      0x00\n        /* \"#utility.yul\":3098:3107   */\n      dup4\n        /* \"#utility.yul\":3094:3111   */\n      add\n        /* \"#utility.yul\":3087:3134   */\n      mstore\n        /* \"#utility.yul\":3151:3259   */\n      tag_316\n        /* \"#utility.yul\":3254:3258   */\n      dup2\n        /* \"#utility.yul\":3245:3251   */\n      dup5\n        /* \"#utility.yul\":3151:3259   */\n      tag_239\n      jump\t// in\n    tag_316:\n        /* \"#utility.yul\":3143:3259   */\n      swap1\n      pop\n        /* \"#utility.yul\":2893:3266   */\n      swap3\n      swap2\n      pop\n      pop\n      jump\t// out\n        /* \"#utility.yul\":3272:3390   */\n    tag_240:\n        /* \"#utility.yul\":3359:3383   */\n      tag_318\n        /* \"#utility.yul\":3377:3382   */\n      dup2\n        /* \"#utility.yul\":3359:3383   */\n      tag_235\n      jump\t// in\n    tag_318:\n        /* \"#utility.yul\":3354:3357   */\n      dup3\n        /* \"#utility.yul\":3347:3384   */\n      mstore\n        /* \"#utility.yul\":3272:3390   */\n      pop\n      pop\n      jump\t// out\n        /* \"#utility.yul\":3396:3618   */\n    tag_40:\n        /* \"#utility.yul\":3489:3493   */\n      0x00\n        /* \"#utility.yul\":3527:3529   */\n      0x20\n        /* \"#utility.yul\":3516:3525   */\n      dup3\n        /* \"#utility.yul\":3512:3530   */\n      add\n        /* \"#utility.yul\":3504:3530   */\n      swap1\n      pop\n        /* \"#utility.yul\":3540:3611   */\n      tag_320\n        /* \"#utility.yul\":3608:3609   */\n      0x00\n        /* \"#utility.yul\":3597:3606   */\n      dup4\n        /* \"#utility.yul\":3593:3610   */\n      add\n        /* \"#utility.yul\":3584:3590   */\n      dup5\n        /* \"#utility.yul\":3540:3611   */\n      tag_240\n      jump\t// in\n    tag_320:\n        /* \"#utility.yul\":3396:3618   */\n      swap3\n      swap2\n      pop\n      pop\n      jump\t// out\n        /* \"#utility.yul\":3624:3746   */\n    tag_241:\n        /* \"#utility.yul\":3697:3721   */\n      tag_322\n        /* \"#utility.yul\":3715:3720   */\n      dup2\n        /* \"#utility.yul\":3697:3721   */\n      tag_235\n      jump\t// in\n    tag_322:\n        /* \"#utility.yul\":3690:3695   */\n      dup2\n        /* \"#utility.yul\":3687:3722   */\n      eq\n        /* \"#utility.yul\":3677:3740   */\n      tag_323\n      jumpi\n        /* \"#utility.yul\":3736:3737   */\n      0x00\n        /* \"#utility.yul\":3733:3734   */\n      0x00\n        /* \"#utility.yul\":3726:3738   */\n      revert\n        /* \"#utility.yul\":3677:3740   */\n    tag_323:\n        /* \"#utility.yul\":3624:3746   */\n      pop\n      jump\t// out\n        /* \"#utility.yul\":3752:3891   */\n    tag_242:\n        /* \"#utility.yul\":3798:3803   */\n      0x00\n        /* \"#utility.yul\":3836:3842   */\n      dup2\n        /* \"#utility.yul\":3823:3843   */\n      calldataload\n        /* \"#utility.yul\":3814:3843   */\n      swap1\n      pop\n        /* \"#utility.yul\":3852:3885   */\n      tag_325\n        /* \"#utility.yul\":3879:3884   */\n      dup2\n        /* \"#utility.yul\":3852:3885   */\n      tag_241\n      jump\t// in\n    tag_325:\n        /* \"#utility.yul\":3752:3891   */\n      swap3\n      swap2\n      pop\n      pop\n      jump\t// out\n        /* \"#utility.yul\":3897:4226   */\n    tag_47:\n        /* \"#utility.yul\":3956:3962   */\n      0x00\n        /* \"#utility.yul\":4005:4007   */\n      0x20\n        /* \"#utility.yul\":3993:4002   */\n      dup3\n        /* \"#utility.yul\":3984:3991   */\n      dup5\n        /* \"#utility.yul\":3980:4003   */\n      sub\n        /* \"#utility.yul\":3976:4008   */\n      slt\n        /* \"#utility.yul\":3973:4092   */\n      iszero\n      tag_327\n      jumpi\n        /* \"#utility.yul\":4011:4090   */\n      tag_328\n      tag_226\n      jump\t// in\n    tag_328:\n        /* \"#utility.yul\":3973:4092   */\n    tag_327:\n        /* \"#utility.yul\":4131:4132   */\n      0x00\n        /* \"#utility.yul\":4156:4209   */\n      tag_329\n        /* \"#utility.yul\":4201:4208   */\n      dup5\n        /* \"#utility.yul\":4192:4198   */\n      dup3\n        /* \"#utility.yul\":4181:4190   */\n      dup6\n        /* \"#utility.yul\":4177:4199   */\n      add\n        /* \"#utility.yul\":4156:4209   */\n      tag_242\n      jump\t// in\n    tag_329:\n        /* \"#utility.yul\":4146:4209   */\n      swap2\n      pop\n        /* \"#utility.yul\":4102:4219   */\n      pop\n        /* \"#utility.yul\":3897:4226   */\n      swap3\n      swap2\n      pop\n      pop\n      jump\t// out\n        /* \"#utility.yul\":4232:4318   */\n    tag_243:\n        /* \"#utility.yul\":4267:4274   */\n      0x00\n        /* \"#utility.yul\":4307:4311   */\n      0xff\n        /* \"#utility.yul\":4300:4305   */\n      dup3\n        /* \"#utility.yul\":4296:4312   */\n      and\n        /* \"#utility.yul\":4285:4312   */\n      swap1\n      pop\n        /* \"#utility.yul\":4232:4318   */\n      swap2\n      swap1\n      pop\n      jump\t// out\n        /* \"#utility.yul\":4324:4436   */\n    tag_244:\n        /* \"#utility.yul\":4407:4429   */\n      tag_332\n        /* \"#utility.yul\":4423:4428   */\n      dup2\n        /* \"#utility.yul\":4407:4429   */\n      tag_243\n      jump\t// in\n    tag_332:\n        /* \"#utility.yul\":4402:4405   */\n      dup3\n        /* \"#utility.yul\":4395:4430   */\n      mstore\n        /* \"#utility.yul\":4324:4436   */\n      pop\n      pop\n      jump\t// out\n        /* \"#utility.yul\":4442:4656   */\n    tag_50:\n        /* \"#utility.yul\":4531:4535   */\n      0x00\n        /* \"#utility.yul\":4569:4571   */\n      0x20\n        /* \"#utility.yul\":4558:4567   */\n      dup3\n        /* \"#utility.yul\":4554:4572   */\n      add\n        /* \"#utility.yul\":4546:4572   */\n      swap1\n      pop\n        /* \"#utility.yul\":4582:4649   */\n      tag_334\n        /* \"#utility.yul\":4646:4647   */\n      0x00\n        /* \"#utility.yul\":4635:4644   */\n      dup4\n        /* \"#utility.yul\":4631:4648   */\n      add\n        /* \"#utility.yul\":4622:4628   */\n      dup5\n        /* \"#utility.yul\":4582:4649   */\n      tag_244\n      jump\t// in\n    tag_334:\n        /* \"#utility.yul\":4442:4656   */\n      swap3\n      swap2\n      pop\n      pop\n      jump\t// out\n        /* \"#utility.yul\":4662:5136   */\n    tag_62:\n        /* \"#utility.yul\":4730:4736   */\n      0x00\n        /* \"#utility.yul\":4738:4744   */\n      0x00\n        /* \"#utility.yul\":4787:4789   */\n      0x40\n        /* \"#utility.yul\":4775:4784   */\n      dup4\n        /* \"#utility.yul\":4766:4773   */\n      dup6\n        /* \"#utility.yul\":4762:4785   */\n      sub\n        /* \"#utility.yul\":4758:4790   */\n      slt\n        /* \"#utility.yul\":4755:4874   */\n      iszero\n      tag_336\n      jumpi\n        /* \"#utility.yul\":4793:4872   */\n      tag_337\n      tag_226\n      jump\t// in\n    tag_337:\n        /* \"#utility.yul\":4755:4874   */\n    tag_336:\n        /* \"#utility.yul\":4913:4914   */\n      0x00\n        /* \"#utility.yul\":4938:4991   */\n      tag_338\n        /* \"#utility.yul\":4983:4990   */\n      dup6\n        /* \"#utility.yul\":4974:4980   */\n      dup3\n        /* \"#utility.yul\":4963:4972   */\n      dup7\n        /* \"#utility.yul\":4959:4981   */\n      add\n        /* \"#utility.yul\":4938:4991   */\n      tag_231\n      jump\t// in\n    tag_338:\n        /* \"#utility.yul\":4928:4991   */\n      swap3\n      pop\n        /* \"#utility.yul\":4884:5001   */\n      pop\n        /* \"#utility.yul\":5040:5042   */\n      0x20\n        /* \"#utility.yul\":5066:5119   */\n      tag_339\n        /* \"#utility.yul\":5111:5118   */\n      dup6\n        /* \"#utility.yul\":5102:5108   */\n      dup3\n        /* \"#utility.yul\":5091:5100   */\n      dup7\n        /* \"#utility.yul\":5087:5109   */\n      add\n        /* \"#utility.yul\":5066:5119   */\n      tag_242\n      jump\t// in\n    tag_339:\n        /* \"#utility.yul\":5056:5119   */\n      swap2\n      pop\n        /* \"#utility.yul\":5011:5129   */\n      pop\n        /* \"#utility.yul\":4662:5136   */\n      swap3\n      pop\n      swap3\n      swap1\n      pop\n      jump\t// out\n        /* \"#utility.yul\":5142:5260   */\n    tag_245:\n        /* \"#utility.yul\":5229:5253   */\n      tag_341\n        /* \"#utility.yul\":5247:5252   */\n      dup2\n        /* \"#utility.yul\":5229:5253   */\n      tag_229\n      jump\t// in\n    tag_341:\n        /* \"#utility.yul\":5224:5227   */\n      dup3\n        /* \"#utility.yul\":5217:5254   */\n      mstore\n        /* \"#utility.yul\":5142:5260   */\n      pop\n      pop\n      jump\t// out\n        /* \"#utility.yul\":5266:5488   */\n    tag_69:\n        /* \"#utility.yul\":5359:5363   */\n      0x00\n        /* \"#utility.yul\":5397:5399   */\n      0x20\n        /* \"#utility.yul\":5386:5395   */\n      dup3\n        /* \"#utility.yul\":5382:5400   */\n      add\n        /* \"#utility.yul\":5374:5400   */\n      swap1\n      pop\n        /* \"#utility.yul\":5410:5481   */\n      tag_343\n        /* \"#utility.yul\":5478:5479   */\n      0x00\n        /* \"#utility.yul\":5467:5476   */\n      dup4\n        /* \"#utility.yul\":5463:5480   */\n      add\n        /* \"#utility.yul\":5454:5460   */\n      dup5\n        /* \"#utility.yul\":5410:5481   */\n      tag_245\n      jump\t// in\n    tag_343:\n        /* \"#utility.yul\":5266:5488   */\n      swap3\n      swap2\n      pop\n      pop\n      jump\t// out\n        /* \"#utility.yul\":5494:5674   */\n    tag_131:\n        /* \"#utility.yul\":5542:5619   */\n      0x4e487b7100000000000000000000000000000000000000000000000000000000\n        /* \"#utility.yul\":5539:5540   */\n      0x00\n        /* \"#utility.yul\":5532:5620   */\n      mstore\n        /* \"#utility.yul\":5639:5643   */\n      0x21\n        /* \"#utility.yul\":5636:5637   */\n      0x04\n        /* \"#utility.yul\":5629:5644   */\n      mstore\n        /* \"#utility.yul\":5663:5667   */\n      0x24\n        /* \"#utility.yul\":5660:5661   */\n      0x00\n        /* \"#utility.yul\":5653:5668   */\n      revert\n        /* \"#utility.yul\":5680:5798   */\n    tag_246:\n        /* \"#utility.yul\":5766:5767   */\n      0x04\n        /* \"#utility.yul\":5759:5764   */\n      dup2\n        /* \"#utility.yul\":5756:5768   */\n      lt\n        /* \"#utility.yul\":5746:5792   */\n      tag_346\n      jumpi\n        /* \"#utility.yul\":5772:5790   */\n      tag_347\n      tag_131\n      jump\t// in\n    tag_347:\n        /* \"#utility.yul\":5746:5792   */\n    tag_346:\n        /* \"#utility.yul\":5680:5798   */\n      pop\n      jump\t// out\n        /* \"#utility.yul\":5804:5941   */\n    tag_247:\n        /* \"#utility.yul\":5854:5861   */\n      0x00\n        /* \"#utility.yul\":5883:5888   */\n      dup2\n        /* \"#utility.yul\":5872:5888   */\n      swap1\n      pop\n        /* \"#utility.yul\":5889:5935   */\n      tag_349\n        /* \"#utility.yul\":5929:5934   */\n      dup3\n        /* \"#utility.yul\":5889:5935   */\n      tag_246\n      jump\t// in\n    tag_349:\n        /* \"#utility.yul\":5804:5941   */\n      swap2\n      swap1\n      pop\n      jump\t// out\n        /* \"#utility.yul\":5947:6084   */\n    tag_248:\n        /* \"#utility.yul\":6008:6017   */\n      0x00\n        /* \"#utility.yul\":6041:6078   */\n      tag_351\n        /* \"#utility.yul\":6072:6077   */\n      dup3\n        /* \"#utility.yul\":6041:6078   */\n      tag_247\n      jump\t// in\n    tag_351:\n        /* \"#utility.yul\":6028:6078   */\n      swap1\n      pop\n        /* \"#utility.yul\":5947:6084   */\n      swap2\n      swap1\n      pop\n      jump\t// out\n        /* \"#utility.yul\":6090:6243   */\n    tag_249:\n        /* \"#utility.yul\":6188:6236   */\n      tag_353\n        /* \"#utility.yul\":6230:6235   */\n      dup2\n        /* \"#utility.yul\":6188:6236   */\n      tag_248\n      jump\t// in\n    tag_353:\n        /* \"#utility.yul\":6183:6186   */\n      dup3\n        /* \"#utility.yul\":6176:6237   */\n      mstore\n        /* \"#utility.yul\":6090:6243   */\n      pop\n      pop\n      jump\t// out\n        /* \"#utility.yul\":6249:6339   */\n    tag_250:\n        /* \"#utility.yul\":6283:6290   */\n      0x00\n        /* \"#utility.yul\":6326:6331   */\n      dup2\n        /* \"#utility.yul\":6319:6332   */\n      iszero\n        /* \"#utility.yul\":6312:6333   */\n      iszero\n        /* \"#utility.yul\":6301:6333   */\n      swap1\n      pop\n        /* \"#utility.yul\":6249:6339   */\n      swap2\n      swap1\n      pop\n      jump\t// out\n        /* \"#utility.yul\":6345:6454   */\n    tag_251:\n        /* \"#utility.yul\":6426:6447   */\n      tag_356\n        /* \"#utility.yul\":6441:6446   */\n      dup2\n        /* \"#utility.yul\":6426:6447   */\n      tag_250\n      jump\t// in\n    tag_356:\n        /* \"#utility.yul\":6421:6424   */\n      dup3\n        /* \"#utility.yul\":6414:6448   */\n      mstore\n        /* \"#utility.yul\":6345:6454   */\n      pop\n      pop\n      jump\t// out\n        /* \"#utility.yul\":6460:7447   */\n    tag_75:\n        /* \"#utility.yul\":6744:6748   */\n      0x00\n        /* \"#utility.yul\":6782:6785   */\n      0x0100\n        /* \"#utility.yul\":6771:6780   */\n      dup3\n        /* \"#utility.yul\":6767:6786   */\n      add\n        /* \"#utility.yul\":6759:6786   */\n      swap1\n      pop\n        /* \"#utility.yul\":6796:6867   */\n      tag_358\n        /* \"#utility.yul\":6864:6865   */\n      0x00\n        /* \"#utility.yul\":6853:6862   */\n      dup4\n        /* \"#utility.yul\":6849:6866   */\n      add\n        /* \"#utility.yul\":6840:6846   */\n      dup12\n        /* \"#utility.yul\":6796:6867   */\n      tag_240\n      jump\t// in\n    tag_358:\n        /* \"#utility.yul\":6877:6949   */\n      tag_359\n        /* \"#utility.yul\":6945:6947   */\n      0x20\n        /* \"#utility.yul\":6934:6943   */\n      dup4\n        /* \"#utility.yul\":6930:6948   */\n      add\n        /* \"#utility.yul\":6921:6927   */\n      dup11\n        /* \"#utility.yul\":6877:6949   */\n      tag_245\n      jump\t// in\n    tag_359:\n        /* \"#utility.yul\":6959:7042   */\n      tag_360\n        /* \"#utility.yul\":7038:7040   */\n      0x40\n        /* \"#utility.yul\":7027:7036   */\n      dup4\n        /* \"#utility.yul\":7023:7041   */\n      add\n        /* \"#utility.yul\":7014:7020   */\n      dup10\n        /* \"#utility.yul\":6959:7042   */\n      tag_249\n      jump\t// in\n    tag_360:\n        /* \"#utility.yul\":7052:7124   */\n      tag_361\n        /* \"#utility.yul\":7120:7122   */\n      0x60\n        /* \"#utility.yul\":7109:7118   */\n      dup4\n        /* \"#utility.yul\":7105:7123   */\n      add\n        /* \"#utility.yul\":7096:7102   */\n      dup9\n        /* \"#utility.yul\":7052:7124   */\n      tag_240\n      jump\t// in\n    tag_361:\n        /* \"#utility.yul\":7134:7207   */\n      tag_362\n        /* \"#utility.yul\":7202:7205   */\n      0x80\n        /* \"#utility.yul\":7191:7200   */\n      dup4\n        /* \"#utility.yul\":7187:7206   */\n      add\n        /* \"#utility.yul\":7178:7184   */\n      dup8\n        /* \"#utility.yul\":7134:7207   */\n      tag_240\n      jump\t// in\n    tag_362:\n        /* \"#utility.yul\":7217:7286   */\n      tag_363\n        /* \"#utility.yul\":7281:7284   */\n      0xa0\n        /* \"#utility.yul\":7270:7279   */\n      dup4\n        /* \"#utility.yul\":7266:7285   */\n      add\n        /* \"#utility.yul\":7257:7263   */\n      dup7\n        /* \"#utility.yul\":7217:7286   */\n      tag_244\n      jump\t// in\n    tag_363:\n        /* \"#utility.yul\":7296:7363   */\n      tag_364\n        /* \"#utility.yul\":7358:7361   */\n      0xc0\n        /* \"#utility.yul\":7347:7356   */\n      dup4\n        /* \"#utility.yul\":7343:7362   */\n      add\n        /* \"#utility.yul\":7334:7340   */\n      dup6\n        /* \"#utility.yul\":7296:7363   */\n      tag_251\n      jump\t// in\n    tag_364:\n        /* \"#utility.yul\":7373:7440   */\n      tag_365\n        /* \"#utility.yul\":7435:7438   */\n      0xe0\n        /* \"#utility.yul\":7424:7433   */\n      dup4\n        /* \"#utility.yul\":7420:7439   */\n      add\n        /* \"#utility.yul\":7411:7417   */\n      dup5\n        /* \"#utility.yul\":7373:7440   */\n      tag_251\n      jump\t// in\n    tag_365:\n        /* \"#utility.yul\":6460:7447   */\n      swap10\n      swap9\n      pop\n      pop\n      pop\n      pop\n      pop\n      pop\n      pop\n      pop\n      pop\n      jump\t// out\n        /* \"#utility.yul\":7453:7561   */\n    tag_252:\n        /* \"#utility.yul\":7530:7554   */\n      tag_367\n        /* \"#utility.yul\":7548:7553   */\n      dup2\n        /* \"#utility.yul\":7530:7554   */\n      tag_229\n      jump\t// in\n    tag_367:\n        /* \"#utility.yul\":7525:7528   */\n      dup3\n        /* \"#utility.yul\":7518:7555   */\n      mstore\n        /* \"#utility.yul\":7453:7561   */\n      pop\n      pop\n      jump\t// out\n        /* \"#utility.yul\":7567:7710   */\n    tag_253:\n        /* \"#utility.yul\":7655:7703   */\n      tag_369\n        /* \"#utility.yul\":7697:7702   */\n      dup2\n        /* \"#utility.yul\":7655:7703   */\n      tag_248\n      jump\t// in\n    tag_369:\n        /* \"#utility.yul\":7650:7653   */\n      dup3\n        /* \"#utility.yul\":7643:7704   */\n      mstore\n        /* \"#utility.yul\":7567:7710   */\n      pop\n      pop\n      jump\t// out\n        /* \"#utility.yul\":7716:7818   */\n    tag_254:\n        /* \"#utility.yul\":7789:7811   */\n      tag_371\n        /* \"#utility.yul\":7805:7810   */\n      dup2\n        /* \"#utility.yul\":7789:7811   */\n      tag_243\n      jump\t// in\n    tag_371:\n        /* \"#utility.yul\":7784:7787   */\n      dup3\n        /* \"#utility.yul\":7777:7812   */\n      mstore\n        /* \"#utility.yul\":7716:7818   */\n      pop\n      pop\n      jump\t// out\n        /* \"#utility.yul\":7824:7923   */\n    tag_255:\n        /* \"#utility.yul\":7895:7916   */\n      tag_373\n        /* \"#utility.yul\":7910:7915   */\n      dup2\n        /* \"#utility.yul\":7895:7916   */\n      tag_250\n      jump\t// in\n    tag_373:\n        /* \"#utility.yul\":7890:7893   */\n      dup3\n        /* \"#utility.yul\":7883:7917   */\n      mstore\n        /* \"#utility.yul\":7824:7923   */\n      pop\n      pop\n      jump\t// out\n        /* \"#utility.yul\":7987:9551   */\n    tag_256:\n        /* \"#utility.yul\":8126:8132   */\n      0x0100\n        /* \"#utility.yul\":8121:8124   */\n      dup3\n        /* \"#utility.yul\":8117:8133   */\n      add\n        /* \"#utility.yul\":8213:8217   */\n      0x00\n        /* \"#utility.yul\":8206:8211   */\n      dup3\n        /* \"#utility.yul\":8202:8218   */\n      add\n        /* \"#utility.yul\":8196:8219   */\n      mload\n        /* \"#utility.yul\":8232:8295   */\n      tag_375\n        /* \"#utility.yul\":8289:8293   */\n      0x00\n        /* \"#utility.yul\":8284:8287   */\n      dup6\n        /* \"#utility.yul\":8280:8294   */\n      add\n        /* \"#utility.yul\":8266:8278   */\n      dup3\n        /* \"#utility.yul\":8232:8295   */\n      tag_236\n      jump\t// in\n    tag_375:\n        /* \"#utility.yul\":8143:8305   */\n      pop\n        /* \"#utility.yul\":8388:8392   */\n      0x20\n        /* \"#utility.yul\":8381:8386   */\n      dup3\n        /* \"#utility.yul\":8377:8393   */\n      add\n        /* \"#utility.yul\":8371:8394   */\n      mload\n        /* \"#utility.yul\":8407:8470   */\n      tag_376\n        /* \"#utility.yul\":8464:8468   */\n      0x20\n        /* \"#utility.yul\":8459:8462   */\n      dup6\n        /* \"#utility.yul\":8455:8469   */\n      add\n        /* \"#utility.yul\":8441:8453   */\n      dup3\n        /* \"#utility.yul\":8407:8470   */\n      tag_252\n      jump\t// in\n    tag_376:\n        /* \"#utility.yul\":8315:8480   */\n      pop\n        /* \"#utility.yul\":8563:8567   */\n      0x40\n        /* \"#utility.yul\":8556:8561   */\n      dup3\n        /* \"#utility.yul\":8552:8568   */\n      add\n        /* \"#utility.yul\":8546:8569   */\n      mload\n        /* \"#utility.yul\":8582:8656   */\n      tag_377\n        /* \"#utility.yul\":8650:8654   */\n      0x40\n        /* \"#utility.yul\":8645:8648   */\n      dup6\n        /* \"#utility.yul\":8641:8655   */\n      add\n        /* \"#utility.yul\":8627:8639   */\n      dup3\n        /* \"#utility.yul\":8582:8656   */\n      tag_253\n      jump\t// in\n    tag_377:\n        /* \"#utility.yul\":8490:8666   */\n      pop\n        /* \"#utility.yul\":8755:8759   */\n      0x60\n        /* \"#utility.yul\":8748:8753   */\n      dup3\n        /* \"#utility.yul\":8744:8760   */\n      add\n        /* \"#utility.yul\":8738:8761   */\n      mload\n        /* \"#utility.yul\":8774:8837   */\n      tag_378\n        /* \"#utility.yul\":8831:8835   */\n      0x60\n        /* \"#utility.yul\":8826:8829   */\n      dup6\n        /* \"#utility.yul\":8822:8836   */\n      add\n        /* \"#utility.yul\":8808:8820   */\n      dup3\n        /* \"#utility.yul\":8774:8837   */\n      tag_236\n      jump\t// in\n    tag_378:\n        /* \"#utility.yul\":8676:8847   */\n      pop\n        /* \"#utility.yul\":8936:8940   */\n      0x80\n        /* \"#utility.yul\":8929:8934   */\n      dup3\n        /* \"#utility.yul\":8925:8941   */\n      add\n        /* \"#utility.yul\":8919:8942   */\n      mload\n        /* \"#utility.yul\":8955:9018   */\n      tag_379\n        /* \"#utility.yul\":9012:9016   */\n      0x80\n        /* \"#utility.yul\":9007:9010   */\n      dup6\n        /* \"#utility.yul\":9003:9017   */\n      add\n        /* \"#utility.yul\":8989:9001   */\n      dup3\n        /* \"#utility.yul\":8955:9018   */\n      tag_236\n      jump\t// in\n    tag_379:\n        /* \"#utility.yul\":8857:9028   */\n      pop\n        /* \"#utility.yul\":9116:9120   */\n      0xa0\n        /* \"#utility.yul\":9109:9114   */\n      dup3\n        /* \"#utility.yul\":9105:9121   */\n      add\n        /* \"#utility.yul\":9099:9122   */\n      mload\n        /* \"#utility.yul\":9135:9194   */\n      tag_380\n        /* \"#utility.yul\":9188:9192   */\n      0xa0\n        /* \"#utility.yul\":9183:9186   */\n      dup6\n        /* \"#utility.yul\":9179:9193   */\n      add\n        /* \"#utility.yul\":9165:9177   */\n      dup3\n        /* \"#utility.yul\":9135:9194   */\n      tag_254\n      jump\t// in\n    tag_380:\n        /* \"#utility.yul\":9038:9204   */\n      pop\n        /* \"#utility.yul\":9288:9292   */\n      0xc0\n        /* \"#utility.yul\":9281:9286   */\n      dup3\n        /* \"#utility.yul\":9277:9293   */\n      add\n        /* \"#utility.yul\":9271:9294   */\n      mload\n        /* \"#utility.yul\":9307:9364   */\n      tag_381\n        /* \"#utility.yul\":9358:9362   */\n      0xc0\n        /* \"#utility.yul\":9353:9356   */\n      dup6\n        /* \"#utility.yul\":9349:9363   */\n      add\n        /* \"#utility.yul\":9335:9347   */\n      dup3\n        /* \"#utility.yul\":9307:9364   */\n      tag_255\n      jump\t// in\n    tag_381:\n        /* \"#utility.yul\":9214:9374   */\n      pop\n        /* \"#utility.yul\":9458:9462   */\n      0xe0\n        /* \"#utility.yul\":9451:9456   */\n      dup3\n        /* \"#utility.yul\":9447:9463   */\n      add\n        /* \"#utility.yul\":9441:9464   */\n      mload\n        /* \"#utility.yul\":9477:9534   */\n      tag_382\n        /* \"#utility.yul\":9528:9532   */\n      0xe0\n        /* \"#utility.yul\":9523:9526   */\n      dup6\n        /* \"#utility.yul\":9519:9533   */\n      add\n        /* \"#utility.yul\":9505:9517   */\n      dup3\n        /* \"#utility.yul\":9477:9534   */\n      tag_255\n      jump\t// in\n    tag_382:\n        /* \"#utility.yul\":9384:9544   */\n      pop\n        /* \"#utility.yul\":8095:9551   */\n      pop\n        /* \"#utility.yul\":7987:9551   */\n      pop\n      pop\n      jump\t// out\n        /* \"#utility.yul\":9557:9864   */\n    tag_107:\n        /* \"#utility.yul\":9692:9696   */\n      0x00\n        /* \"#utility.yul\":9730:9733   */\n      0x0100\n        /* \"#utility.yul\":9719:9728   */\n      dup3\n        /* \"#utility.yul\":9715:9734   */\n      add\n        /* \"#utility.yul\":9707:9734   */\n      swap1\n      pop\n        /* \"#utility.yul\":9744:9857   */\n      tag_384\n        /* \"#utility.yul\":9854:9855   */\n      0x00\n        /* \"#utility.yul\":9843:9852   */\n      dup4\n        /* \"#utility.yul\":9839:9856   */\n      add\n        /* \"#utility.yul\":9830:9836   */\n      dup5\n        /* \"#utility.yul\":9744:9857   */\n      tag_256\n      jump\t// in\n    tag_384:\n        /* \"#utility.yul\":9557:9864   */\n      swap3\n      swap2\n      pop\n      pop\n      jump\t// out\n        /* \"#utility.yul\":9870:10039   */\n    tag_257:\n        /* \"#utility.yul\":9954:9965   */\n      0x00\n        /* \"#utility.yul\":9988:9994   */\n      dup3\n        /* \"#utility.yul\":9983:9986   */\n      dup3\n        /* \"#utility.yul\":9976:9995   */\n      mstore\n        /* \"#utility.yul\":10028:10032   */\n      0x20\n        /* \"#utility.yul\":10023:10026   */\n      dup3\n        /* \"#utility.yul\":10019:10033   */\n      add\n        /* \"#utility.yul\":10004:10033   */\n      swap1\n      pop\n        /* \"#utility.yul\":9870:10039   */\n      swap3\n      swap2\n      pop\n      pop\n      jump\t// out\n        /* \"#utility.yul\":10045:10208   */\n    tag_258:\n        /* \"#utility.yul\":10185:10200   */\n      0x4e6f7420746865206f776e657200000000000000000000000000000000000000\n        /* \"#utility.yul\":10181:10182   */\n      0x00\n        /* \"#utility.yul\":10173:10179   */\n      dup3\n        /* \"#utility.yul\":10169:10183   */\n      add\n        /* \"#utility.yul\":10162:10201   */\n      mstore\n        /* \"#utility.yul\":10045:10208   */\n      pop\n      jump\t// out\n        /* \"#utility.yul\":10214:10580   */\n    tag_259:\n        /* \"#utility.yul\":10356:10359   */\n      0x00\n        /* \"#utility.yul\":10377:10444   */\n      tag_388\n        /* \"#utility.yul\":10441:10443   */\n      0x0d\n        /* \"#utility.yul\":10436:10439   */\n      dup4\n        /* \"#utility.yul\":10377:10444   */\n      tag_257\n      jump\t// in\n    tag_388:\n        /* \"#utility.yul\":10370:10444   */\n      swap2\n      pop\n        /* \"#utility.yul\":10453:10546   */\n      tag_389\n        /* \"#utility.yul\":10542:10545   */\n      dup3\n        /* \"#utility.yul\":10453:10546   */\n      tag_258\n      jump\t// in\n    tag_389:\n        /* \"#utility.yul\":10571:10573   */\n      0x20\n        /* \"#utility.yul\":10566:10569   */\n      dup3\n        /* \"#utility.yul\":10562:10574   */\n      add\n        /* \"#utility.yul\":10555:10574   */\n      swap1\n      pop\n        /* \"#utility.yul\":10214:10580   */\n      swap2\n      swap1\n      pop\n      jump\t// out\n        /* \"#utility.yul\":10586:11005   */\n    tag_114:\n        /* \"#utility.yul\":10752:10756   */\n      0x00\n        /* \"#utility.yul\":10790:10792   */\n      0x20\n        /* \"#utility.yul\":10779:10788   */\n      dup3\n        /* \"#utility.yul\":10775:10793   */\n      add\n        /* \"#utility.yul\":10767:10793   */\n      swap1\n      pop\n        /* \"#utility.yul\":10839:10848   */\n      dup2\n        /* \"#utility.yul\":10833:10837   */\n      dup2\n        /* \"#utility.yul\":10829:10849   */\n      sub\n        /* \"#utility.yul\":10825:10826   */\n      0x00\n        /* \"#utility.yul\":10814:10823   */\n      dup4\n        /* \"#utility.yul\":10810:10827   */\n      add\n        /* \"#utility.yul\":10803:10850   */\n      mstore\n        /* \"#utility.yul\":10867:10998   */\n      tag_391\n        /* \"#utility.yul\":10993:10997   */\n      dup2\n        /* \"#utility.yul\":10867:10998   */\n      tag_259\n      jump\t// in\n    tag_391:\n        /* \"#utility.yul\":10859:10998   */\n      swap1\n      pop\n        /* \"#utility.yul\":10586:11005   */\n      swap2\n      swap1\n      pop\n      jump\t// out\n        /* \"#utility.yul\":11011:11158   */\n    tag_260:\n        /* \"#utility.yul\":11112:11123   */\n      0x00\n        /* \"#utility.yul\":11149:11152   */\n      dup2\n        /* \"#utility.yul\":11134:11152   */\n      swap1\n      pop\n        /* \"#utility.yul\":11011:11158   */\n      swap3\n      swap2\n      pop\n      pop\n      jump\t// out\n        /* \"#utility.yul\":11164:11278   */\n    tag_261:\n      pop\n      jump\t// out\n        /* \"#utility.yul\":11284:11682   */\n    tag_262:\n        /* \"#utility.yul\":11443:11446   */\n      0x00\n        /* \"#utility.yul\":11464:11547   */\n      tag_395\n        /* \"#utility.yul\":11545:11546   */\n      0x00\n        /* \"#utility.yul\":11540:11543   */\n      dup4\n        /* \"#utility.yul\":11464:11547   */\n      tag_260\n      jump\t// in\n    tag_395:\n        /* \"#utility.yul\":11457:11547   */\n      swap2\n      pop\n        /* \"#utility.yul\":11556:11649   */\n      tag_396\n        /* \"#utility.yul\":11645:11648   */\n      dup3\n        /* \"#utility.yul\":11556:11649   */\n      tag_261\n      jump\t// in\n    tag_396:\n        /* \"#utility.yul\":11674:11675   */\n      0x00\n        /* \"#utility.yul\":11669:11672   */\n      dup3\n        /* \"#utility.yul\":11665:11676   */\n      add\n        /* \"#utility.yul\":11658:11676   */\n      swap1\n      pop\n        /* \"#utility.yul\":11284:11682   */\n      swap2\n      swap1\n      pop\n      jump\t// out\n        /* \"#utility.yul\":11688:12067   */\n    tag_116:\n        /* \"#utility.yul\":11872:11875   */\n      0x00\n        /* \"#utility.yul\":11894:12041   */\n      tag_398\n        /* \"#utility.yul\":12037:12040   */\n      dup3\n        /* \"#utility.yul\":11894:12041   */\n      tag_262\n      jump\t// in\n    tag_398:\n        /* \"#utility.yul\":11887:12041   */\n      swap2\n      pop\n        /* \"#utility.yul\":12058:12061   */\n      dup2\n        /* \"#utility.yul\":12051:12061   */\n      swap1\n      pop\n        /* \"#utility.yul\":11688:12067   */\n      swap2\n      swap1\n      pop\n      jump\t// out\n        /* \"#utility.yul\":12073:12238   */\n    tag_263:\n        /* \"#utility.yul\":12213:12230   */\n      0x5472616e73666572206661696c65640000000000000000000000000000000000\n        /* \"#utility.yul\":12209:12210   */\n      0x00\n        /* \"#utility.yul\":12201:12207   */\n      dup3\n        /* \"#utility.yul\":12197:12211   */\n      add\n        /* \"#utility.yul\":12190:12231   */\n      mstore\n        /* \"#utility.yul\":12073:12238   */\n      pop\n      jump\t// out\n        /* \"#utility.yul\":12244:12610   */\n    tag_264:\n        /* \"#utility.yul\":12386:12389   */\n      0x00\n        /* \"#utility.yul\":12407:12474   */\n      tag_401\n        /* \"#utility.yul\":12471:12473   */\n      0x0f\n        /* \"#utility.yul\":12466:12469   */\n      dup4\n        /* \"#utility.yul\":12407:12474   */\n      tag_257\n      jump\t// in\n    tag_401:\n        /* \"#utility.yul\":12400:12474   */\n      swap2\n      pop\n        /* \"#utility.yul\":12483:12576   */\n      tag_402\n        /* \"#utility.yul\":12572:12575   */\n      dup3\n        /* \"#utility.yul\":12483:12576   */\n      tag_263\n      jump\t// in\n    tag_402:\n        /* \"#utility.yul\":12601:12603   */\n      0x20\n        /* \"#utility.yul\":12596:12599   */\n      dup3\n        /* \"#utility.yul\":12592:12604   */\n      add\n        /* \"#utility.yul\":12585:12604   */\n      swap1\n      pop\n        /* \"#utility.yul\":12244:12610   */\n      swap2\n      swap1\n      pop\n      jump\t// out\n        /* \"#utility.yul\":12616:13035   */\n    tag_122:\n        /* \"#utility.yul\":12782:12786   */\n      0x00\n        /* \"#utility.yul\":12820:12822   */\n      0x20\n        /* \"#utility.yul\":12809:12818   */\n      dup3\n        /* \"#utility.yul\":12805:12823   */\n      add\n        /* \"#utility.yul\":12797:12823   */\n      swap1\n      pop\n        /* \"#utility.yul\":12869:12878   */\n      dup2\n        /* \"#utility.yul\":12863:12867   */\n      dup2\n        /* \"#utility.yul\":12859:12879   */\n      sub\n        /* \"#utility.yul\":12855:12856   */\n      0x00\n        /* \"#utility.yul\":12844:12853   */\n      dup4\n        /* \"#utility.yul\":12840:12857   */\n      add\n        /* \"#utility.yul\":12833:12880   */\n      mstore\n        /* \"#utility.yul\":12897:13028   */\n      tag_404\n        /* \"#utility.yul\":13023:13027   */\n      dup2\n        /* \"#utility.yul\":12897:13028   */\n      tag_264\n      jump\t// in\n    tag_404:\n        /* \"#utility.yul\":12889:13028   */\n      swap1\n      pop\n        /* \"#utility.yul\":12616:13035   */\n      swap2\n      swap1\n      pop\n      jump\t// out\n        /* \"#utility.yul\":13041:13262   */\n    tag_265:\n        /* \"#utility.yul\":13181:13215   */\n      0x496e73756666696369656e742066756e647320746f20706c616e742061207365\n        /* \"#utility.yul\":13177:13178   */\n      0x00\n        /* \"#utility.yul\":13169:13175   */\n      dup3\n        /* \"#utility.yul\":13165:13179   */\n      add\n        /* \"#utility.yul\":13158:13216   */\n      mstore\n        /* \"#utility.yul\":13250:13254   */\n      0x6564000000000000000000000000000000000000000000000000000000000000\n        /* \"#utility.yul\":13245:13247   */\n      0x20\n        /* \"#utility.yul\":13237:13243   */\n      dup3\n        /* \"#utility.yul\":13233:13248   */\n      add\n        /* \"#utility.yul\":13226:13255   */\n      mstore\n        /* \"#utility.yul\":13041:13262   */\n      pop\n      jump\t// out\n        /* \"#utility.yul\":13268:13634   */\n    tag_266:\n        /* \"#utility.yul\":13410:13413   */\n      0x00\n        /* \"#utility.yul\":13431:13498   */\n      tag_407\n        /* \"#utility.yul\":13495:13497   */\n      0x22\n        /* \"#utility.yul\":13490:13493   */\n      dup4\n        /* \"#utility.yul\":13431:13498   */\n      tag_257\n      jump\t// in\n    tag_407:\n        /* \"#utility.yul\":13424:13498   */\n      swap2\n      pop\n        /* \"#utility.yul\":13507:13600   */\n      tag_408\n        /* \"#utility.yul\":13596:13599   */\n      dup3\n        /* \"#utility.yul\":13507:13600   */\n      tag_265\n      jump\t// in\n    tag_408:\n        /* \"#utility.yul\":13625:13627   */\n      0x40\n        /* \"#utility.yul\":13620:13623   */\n      dup3\n        /* \"#utility.yul\":13616:13628   */\n      add\n        /* \"#utility.yul\":13609:13628   */\n      swap1\n      pop\n        /* \"#utility.yul\":13268:13634   */\n      swap2\n      swap1\n      pop\n      jump\t// out\n        /* \"#utility.yul\":13640:14059   */\n    tag_126:\n        /* \"#utility.yul\":13806:13810   */\n      0x00\n        /* \"#utility.yul\":13844:13846   */\n      0x20\n        /* \"#utility.yul\":13833:13842   */\n      dup3\n        /* \"#utility.yul\":13829:13847   */\n      add\n        /* \"#utility.yul\":13821:13847   */\n      swap1\n      pop\n        /* \"#utility.yul\":13893:13902   */\n      dup2\n        /* \"#utility.yul\":13887:13891   */\n      dup2\n        /* \"#utility.yul\":13883:13903   */\n      sub\n        /* \"#utility.yul\":13879:13880   */\n      0x00\n        /* \"#utility.yul\":13868:13877   */\n      dup4\n        /* \"#utility.yul\":13864:13881   */\n      add\n        /* \"#utility.yul\":13857:13904   */\n      mstore\n        /* \"#utility.yul\":13921:14052   */\n      tag_410\n        /* \"#utility.yul\":14047:14051   */\n      dup2\n        /* \"#utility.yul\":13921:14052   */\n      tag_266\n      jump\t// in\n    tag_410:\n        /* \"#utility.yul\":13913:14052   */\n      swap1\n      pop\n        /* \"#utility.yul\":13640:14059   */\n      swap2\n      swap1\n      pop\n      jump\t// out\n        /* \"#utility.yul\":14065:14245   */\n    tag_267:\n        /* \"#utility.yul\":14113:14190   */\n      0x4e487b7100000000000000000000000000000000000000000000000000000000\n        /* \"#utility.yul\":14110:14111   */\n      0x00\n        /* \"#utility.yul\":14103:14191   */\n      mstore\n        /* \"#utility.yul\":14210:14214   */\n      0x11\n        /* \"#utility.yul\":14207:14208   */\n      0x04\n        /* \"#utility.yul\":14200:14215   */\n      mstore\n        /* \"#utility.yul\":14234:14238   */\n      0x24\n        /* \"#utility.yul\":14231:14232   */\n      0x00\n        /* \"#utility.yul\":14224:14239   */\n      revert\n        /* \"#utility.yul\":14251:14484   */\n    tag_128:\n        /* \"#utility.yul\":14290:14293   */\n      0x00\n        /* \"#utility.yul\":14313:14337   */\n      tag_413\n        /* \"#utility.yul\":14331:14336   */\n      dup3\n        /* \"#utility.yul\":14313:14337   */\n      tag_235\n      jump\t// in\n    tag_413:\n        /* \"#utility.yul\":14304:14337   */\n      swap2\n      pop\n        /* \"#utility.yul\":14359:14425   */\n      0xffffffffffffffffffffffffffffffffffffffffffffffffffffffffffffffff\n        /* \"#utility.yul\":14352:14357   */\n      dup3\n        /* \"#utility.yul\":14349:14426   */\n      sub\n        /* \"#utility.yul\":14346:14449   */\n      tag_414\n      jumpi\n        /* \"#utility.yul\":14429:14447   */\n      tag_415\n      tag_267\n      jump\t// in\n    tag_415:\n        /* \"#utility.yul\":14346:14449   */\n    tag_414:\n        /* \"#utility.yul\":14476:14477   */\n      0x01\n        /* \"#utility.yul\":14469:14474   */\n      dup3\n        /* \"#utility.yul\":14465:14478   */\n      add\n        /* \"#utility.yul\":14458:14478   */\n      swap1\n      pop\n        /* \"#utility.yul\":14251:14484   */\n      swap2\n      swap1\n      pop\n      jump\t// out\n        /* \"#utility.yul\":14490:14684   */\n    tag_143:\n        /* \"#utility.yul\":14530:14534   */\n      0x00\n        /* \"#utility.yul\":14550:14570   */\n      tag_417\n        /* \"#utility.yul\":14568:14569   */\n      dup3\n        /* \"#utility.yul\":14550:14570   */\n      tag_235\n      jump\t// in\n    tag_417:\n        /* \"#utility.yul\":14545:14570   */\n      swap2\n      pop\n        /* \"#utility.yul\":14584:14604   */\n      tag_418\n        /* \"#utility.yul\":14602:14603   */\n      dup4\n        /* \"#utility.yul\":14584:14604   */\n      tag_235\n      jump\t// in\n    tag_418:\n        /* \"#utility.yul\":14579:14604   */\n      swap3\n      pop\n        /* \"#utility.yul\":14628:14629   */\n      dup3\n        /* \"#utility.yul\":14625:14626   */\n      dup3\n        /* \"#utility.yul\":14621:14630   */\n      sub\n        /* \"#utility.yul\":14613:14630   */\n      swap1\n      pop\n        /* \"#utility.yul\":14652:14653   */\n      dup2\n        /* \"#utility.yul\":14646:14650   */\n      dup2\n        /* \"#utility.yul\":14643:14654   */\n      gt\n        /* \"#utility.yul\":14640:14677   */\n      iszero\n      tag_419\n      jumpi\n        /* \"#utility.yul\":14657:14675   */\n      tag_420\n      tag_267\n      jump\t// in\n    tag_420:\n        /* \"#utility.yul\":14640:14677   */\n    tag_419:\n        /* \"#utility.yul\":14490:14684   */\n      swap3\n      swap2\n      pop\n      pop\n      jump\t// out\n        /* \"#utility.yul\":14690:14870   */\n    tag_268:\n        /* \"#utility.yul\":14738:14815   */\n      0x4e487b7100000000000000000000000000000000000000000000000000000000\n        /* \"#utility.yul\":14735:14736   */\n      0x00\n        /* \"#utility.yul\":14728:14816   */\n      mstore\n        /* \"#utility.yul\":14835:14839   */\n      0x12\n        /* \"#utility.yul\":14832:14833   */\n      0x04\n        /* \"#utility.yul\":14825:14840   */\n      mstore\n        /* \"#utility.yul\":14859:14863   */\n      0x24\n        /* \"#utility.yul\":14856:14857   */\n      0x00\n        /* \"#utility.yul\":14849:14864   */\n      revert\n        /* \"#utility.yul\":14876:15061   */\n    tag_145:\n        /* \"#utility.yul\":14916:14917   */\n      0x00\n        /* \"#utility.yul\":14933:14953   */\n      tag_423\n        /* \"#utility.yul\":14951:14952   */\n      dup3\n        /* \"#utility.yul\":14933:14953   */\n      tag_235\n      jump\t// in\n    tag_423:\n        /* \"#utility.yul\":14928:14953   */\n      swap2\n      pop\n        /* \"#utility.yul\":14967:14987   */\n      tag_424\n        /* \"#utility.yul\":14985:14986   */\n      dup4\n        /* \"#utility.yul\":14967:14987   */\n      tag_235\n      jump\t// in\n    tag_424:\n        /* \"#utility.yul\":14962:14987   */\n      swap3\n      pop\n        /* \"#utility.yul\":15006:15007   */\n      dup3\n        /* \"#utility.yul\":14996:15031   */\n      tag_425\n      jumpi\n        /* \"#utility.yul\":15011:15029   */\n      tag_426\n      tag_268\n      jump\t// in\n    tag_426:\n        /* \"#utility.yul\":14996:15031   */\n    tag_425:\n        /* \"#utility.yul\":15053:15054   */\n      dup3\n        /* \"#utility.yul\":15050:15051   */\n      dup3\n        /* \"#utility.yul\":15046:15055   */\n      div\n        /* \"#utility.yul\":15041:15055   */\n      swap1\n      pop\n        /* \"#utility.yul\":14876:15061   */\n      swap3\n      swap2\n      pop\n      pop\n      jump\t// out\n        /* \"#utility.yul\":15067:15477   */\n    tag_147:\n        /* \"#utility.yul\":15107:15114   */\n      0x00\n        /* \"#utility.yul\":15130:15150   */\n      tag_428\n        /* \"#utility.yul\":15148:15149   */\n      dup3\n        /* \"#utility.yul\":15130:15150   */\n      tag_235\n      jump\t// in\n    tag_428:\n        /* \"#utility.yul\":15125:15150   */\n      swap2\n      pop\n        /* \"#utility.yul\":15164:15184   */\n      tag_429\n        /* \"#utility.yul\":15182:15183   */\n      dup4\n        /* \"#utility.yul\":15164:15184   */\n      tag_235\n      jump\t// in\n    tag_429:\n        /* \"#utility.yul\":15159:15184   */\n      swap3\n      pop\n        /* \"#utility.yul\":15219:15220   */\n      dup3\n        /* \"#utility.yul\":15216:15217   */\n      dup3\n        /* \"#utility.yul\":15212:15221   */\n      mul\n        /* \"#utility.yul\":15241:15271   */\n      tag_430\n        /* \"#utility.yul\":15259:15270   */\n      dup2\n        /* \"#utility.yul\":15241:15271   */\n      tag_235\n      jump\t// in\n    tag_430:\n        /* \"#utility.yul\":15230:15271   */\n      swap2\n      pop\n        /* \"#utility.yul\":15420:15421   */\n      dup3\n        /* \"#utility.yul\":15411:15418   */\n      dup3\n        /* \"#utility.yul\":15407:15422   */\n      div\n        /* \"#utility.yul\":15404:15405   */\n      dup5\n        /* \"#utility.yul\":15401:15423   */\n      eq\n        /* \"#utility.yul\":15381:15382   */\n      dup4\n        /* \"#utility.yul\":15374:15383   */\n      iszero\n        /* \"#utility.yul\":15354:15437   */\n      or\n        /* \"#utility.yul\":15331:15470   */\n      tag_431\n      jumpi\n        /* \"#utility.yul\":15450:15468   */\n      tag_432\n      tag_267\n      jump\t// in\n    tag_432:\n        /* \"#utility.yul\":15331:15470   */\n    tag_431:\n        /* \"#utility.yul\":15115:15477   */\n      pop\n        /* \"#utility.yul\":15067:15477   */\n      swap3\n      swap2\n      pop\n      pop\n      jump\t// out\n        /* \"#utility.yul\":15483:15648   */\n    tag_269:\n        /* \"#utility.yul\":15623:15640   */\n      0x506c616e74206e6f7420666f756e640000000000000000000000000000000000\n        /* \"#utility.yul\":15619:15620   */\n      0x00\n        /* \"#utility.yul\":15611:15617   */\n      dup3\n        /* \"#utility.yul\":15607:15621   */\n      add\n        /* \"#utility.yul\":15600:15641   */\n      mstore\n        /* \"#utility.yul\":15483:15648   */\n      pop\n      jump\t// out\n        /* \"#utility.yul\":15654:16020   */\n    tag_270:\n        /* \"#utility.yul\":15796:15799   */\n      0x00\n        /* \"#utility.yul\":15817:15884   */\n      tag_435\n        /* \"#utility.yul\":15881:15883   */\n      0x0f\n        /* \"#utility.yul\":15876:15879   */\n      dup4\n        /* \"#utility.yul\":15817:15884   */\n      tag_257\n      jump\t// in\n    tag_435:\n        /* \"#utility.yul\":15810:15884   */\n      swap2\n      pop\n        /* \"#utility.yul\":15893:15986   */\n      tag_436\n        /* \"#utility.yul\":15982:15985   */\n      dup3\n        /* \"#utility.yul\":15893:15986   */\n      tag_269\n      jump\t// in\n    tag_436:\n        /* \"#utility.yul\":16011:16013   */\n      0x20\n        /* \"#utility.yul\":16006:16009   */\n      dup3\n        /* \"#utility.yul\":16002:16014   */\n      add\n        /* \"#utility.yul\":15995:16014   */\n      swap1\n      pop\n        /* \"#utility.yul\":15654:16020   */\n      swap2\n      swap1\n      pop\n      jump\t// out\n        /* \"#utility.yul\":16026:16445   */\n    tag_155:\n        /* \"#utility.yul\":16192:16196   */\n      0x00\n        /* \"#utility.yul\":16230:16232   */\n      0x20\n        /* \"#utility.yul\":16219:16228   */\n      dup3\n        /* \"#utility.yul\":16215:16233   */\n      add\n        /* \"#utility.yul\":16207:16233   */\n      swap1\n      pop\n        /* \"#utility.yul\":16279:16288   */\n      dup2\n        /* \"#utility.yul\":16273:16277   */\n      dup2\n        /* \"#utility.yul\":16269:16289   */\n      sub\n        /* \"#utility.yul\":16265:16266   */\n      0x00\n        /* \"#utility.yul\":16254:16263   */\n      dup4\n        /* \"#utility.yul\":16250:16267   */\n      add\n        /* \"#utility.yul\":16243:16290   */\n      mstore\n        /* \"#utility.yul\":16307:16438   */\n      tag_438\n        /* \"#utility.yul\":16433:16437   */\n      dup2\n        /* \"#utility.yul\":16307:16438   */\n      tag_270\n      jump\t// in\n    tag_438:\n        /* \"#utility.yul\":16299:16438   */\n      swap1\n      pop\n        /* \"#utility.yul\":16026:16445   */\n      swap2\n      swap1\n      pop\n      jump\t// out\n        /* \"#utility.yul\":16451:16614   */\n    tag_271:\n        /* \"#utility.yul\":16591:16606   */\n      0x506c616e74206973206465616400000000000000000000000000000000000000\n        /* \"#utility.yul\":16587:16588   */\n      0x00\n        /* \"#utility.yul\":16579:16585   */\n      dup3\n        /* \"#utility.yul\":16575:16589   */\n      add\n        /* \"#utility.yul\":16568:16607   */\n      mstore\n        /* \"#utility.yul\":16451:16614   */\n      pop\n      jump\t// out\n        /* \"#utility.yul\":16620:16986   */\n    tag_272:\n        /* \"#utility.yul\":16762:16765   */\n      0x00\n        /* \"#utility.yul\":16783:16850   */\n      tag_441\n        /* \"#utility.yul\":16847:16849   */\n      0x0d\n        /* \"#utility.yul\":16842:16845   */\n      dup4\n        /* \"#utility.yul\":16783:16850   */\n      tag_257\n      jump\t// in\n    tag_441:\n        /* \"#utility.yul\":16776:16850   */\n      swap2\n      pop\n        /* \"#utility.yul\":16859:16952   */\n      tag_442\n        /* \"#utility.yul\":16948:16951   */\n      dup3\n        /* \"#utility.yul\":16859:16952   */\n      tag_271\n      jump\t// in\n    tag_442:\n        /* \"#utility.yul\":16977:16979   */\n      0x20\n        /* \"#utility.yul\":16972:16975   */\n      dup3\n        /* \"#utility.yul\":16968:16980   */\n      add\n        /* \"#utility.yul\":16961:16980   */\n      swap1\n      pop\n        /* \"#utility.yul\":16620:16986   */\n      swap2\n      swap1\n      pop\n      jump\t// out\n        /* \"#utility.yul\":16992:17411   */\n    tag_160:\n        /* \"#utility.yul\":17158:17162   */\n      0x00\n        /* \"#utility.yul\":17196:17198   */\n      0x20\n        /* \"#utility.yul\":17185:17194   */\n      dup3\n        /* \"#utility.yul\":17181:17199   */\n      add\n        /* \"#utility.yul\":17173:17199   */\n      swap1\n      pop\n        /* \"#utility.yul\":17245:17254   */\n      dup2\n        /* \"#utility.yul\":17239:17243   */\n      dup2\n        /* \"#utility.yul\":17235:17255   */\n      sub\n        /* \"#utility.yul\":17231:17232   */\n      0x00\n        /* \"#utility.yul\":17220:17229   */\n      dup4\n        /* \"#utility.yul\":17216:17233   */\n      add\n        /* \"#utility.yul\":17209:17256   */\n      mstore\n        /* \"#utility.yul\":17273:17404   */\n      tag_444\n        /* \"#utility.yul\":17399:17403   */\n      dup2\n        /* \"#utility.yul\":17273:17404   */\n      tag_272\n      jump\t// in\n    tag_444:\n        /* \"#utility.yul\":17265:17404   */\n      swap1\n      pop\n        /* \"#utility.yul\":16992:17411   */\n      swap2\n      swap1\n      pop\n      jump\t// out\n        /* \"#utility.yul\":17417:17580   */\n    tag_273:\n        /* \"#utility.yul\":17557:17572   */\n      0x4d7573742073656e642045544800000000000000000000000000000000000000\n        /* \"#utility.yul\":17553:17554   */\n      0x00\n        /* \"#utility.yul\":17545:17551   */\n      dup3\n        /* \"#utility.yul\":17541:17555   */\n      add\n        /* \"#utility.yul\":17534:17573   */\n      mstore\n        /* \"#utility.yul\":17417:17580   */\n      pop\n      jump\t// out\n        /* \"#utility.yul\":17586:17952   */\n    tag_274:\n        /* \"#utility.yul\":17728:17731   */\n      0x00\n        /* \"#utility.yul\":17749:17816   */\n      tag_447\n        /* \"#utility.yul\":17813:17815   */\n      0x0d\n        /* \"#utility.yul\":17808:17811   */\n      dup4\n        /* \"#utility.yul\":17749:17816   */\n      tag_257\n      jump\t// in\n    tag_447:\n        /* \"#utility.yul\":17742:17816   */\n      swap2\n      pop\n        /* \"#utility.yul\":17825:17918   */\n      tag_448\n        /* \"#utility.yul\":17914:17917   */\n      dup3\n        /* \"#utility.yul\":17825:17918   */\n      tag_273\n      jump\t// in\n    tag_448:\n        /* \"#utility.yul\":17943:17945   */\n      0x20\n        /* \"#utility.yul\":17938:17941   */\n      dup3\n        /* \"#utility.yul\":17934:17946   */\n      add\n        /* \"#utility.yul\":17927:17946   */\n      swap1\n      pop\n        /* \"#utility.yul\":17586:17952   */\n      swap2\n      swap1\n      pop\n      jump\t// out\n        /* \"#utility.yul\":17958:18377   */\n    tag_166:\n        /* \"#utility.yul\":18124:18128   */\n      0x00\n        /* \"#utility.yul\":18162:18164   */\n      0x20\n        /* \"#utility.yul\":18151:18160   */\n      dup3\n        /* \"#utility.yul\":18147:18165   */\n      add\n        /* \"#utility.yul\":18139:18165   */\n      swap1\n      pop\n        /* \"#utility.yul\":18211:18220   */\n      dup2\n        /* \"#utility.yul\":18205:18209   */\n      dup2\n        /* \"#utility.yul\":18201:18221   */\n      sub\n        /* \"#utility.yul\":18197:18198   */\n      0x00\n        /* \"#utility.yul\":18186:18195   */\n      dup4\n        /* \"#utility.yul\":18182:18199   */\n      add\n        /* \"#utility.yul\":18175:18222   */\n      mstore\n        /* \"#utility.yul\":18239:18370   */\n      tag_450\n        /* \"#utility.yul\":18365:18369   */\n      dup2\n        /* \"#utility.yul\":18239:18370   */\n      tag_274\n      jump\t// in\n    tag_450:\n        /* \"#utility.yul\":18231:18370   */\n      swap1\n      pop\n        /* \"#utility.yul\":17958:18377   */\n      swap2\n      swap1\n      pop\n      jump\t// out\n        /* \"#utility.yul\":18383:18544   */\n    tag_275:\n        /* \"#utility.yul\":18523:18536   */\n      0x42756b616e206f776e6572000000000000000000000000000000000000000000\n        /* \"#utility.yul\":18519:18520   */\n      0x00\n        /* \"#utility.yul\":18511:18517   */\n      dup3\n        /* \"#utility.yul\":18507:18521   */\n      add\n        /* \"#utility.yul\":18500:18537   */\n      mstore\n        /* \"#utility.yul\":18383:18544   */\n      pop\n      jump\t// out\n        /* \"#utility.yul\":18550:18916   */\n    tag_276:\n        /* \"#utility.yul\":18692:18695   */\n      0x00\n        /* \"#utility.yul\":18713:18780   */\n      tag_453\n        /* \"#utility.yul\":18777:18779   */\n      0x0b\n        /* \"#utility.yul\":18772:18775   */\n      dup4\n        /* \"#utility.yul\":18713:18780   */\n      tag_257\n      jump\t// in\n    tag_453:\n        /* \"#utility.yul\":18706:18780   */\n      swap2\n      pop\n        /* \"#utility.yul\":18789:18882   */\n      tag_454\n        /* \"#utility.yul\":18878:18881   */\n      dup3\n        /* \"#utility.yul\":18789:18882   */\n      tag_275\n      jump\t// in\n    tag_454:\n        /* \"#utility.yul\":18907:18909   */\n      0x20\n        /* \"#utility.yul\":18902:18905   */\n      dup3\n        /* \"#utility.yul\":18898:18910   */\n      add\n        /* \"#utility.yul\":18891:18910   */\n      swap1\n      pop\n        /* \"#utility.yul\":18550:18916   */\n      swap2\n      swap1\n      pop\n      jump\t// out\n        /* \"#utility.yul\":18922:19341   */\n    tag_192:\n        /* \"#utility.yul\":19088:19092   */\n      0x00\n        /* \"#utility.yul\":19126:19128   */\n      0x20\n        /* \"#utility.yul\":19115:19124   */\n      dup3\n        /* \"#utility.yul\":19111:19129   */\n      add\n        /* \"#utility.yul\":19103:19129   */\n      swap1\n      pop\n        /* \"#utility.yul\":19175:19184   */\n      dup2\n        /* \"#utility.yul\":19169:19173   */\n      dup2\n        /* \"#utility.yul\":19165:19185   */\n      sub\n        /* \"#utility.yul\":19161:19162   */\n      0x00\n        /* \"#utility.yul\":19150:19159   */\n      dup4\n        /* \"#utility.yul\":19146:19163   */\n      add\n        /* \"#utility.yul\":19139:19186   */\n      mstore\n        /* \"#utility.yul\":19203:19334   */\n      tag_456\n        /* \"#utility.yul\":19329:19333   */\n      dup2\n        /* \"#utility.yul\":19203:19334   */\n      tag_276\n      jump\t// in\n    tag_456:\n        /* \"#utility.yul\":19195:19334   */\n      swap1\n      pop\n        /* \"#utility.yul\":18922:19341   */\n      swap2\n      swap1\n      pop\n      jump\t// out\n        /* \"#utility.yul\":19347:19523   */\n    tag_277:\n        /* \"#utility.yul\":19487:19515   */\n      0x54616e616d616e2062656c756d206269736120646970616e656e000000000000\n        /* \"#utility.yul\":19483:19484   */\n      0x00\n        /* \"#utility.yul\":19475:19481   */\n      dup3\n        /* \"#utility.yul\":19471:19485   */\n      add\n        /* \"#utility.yul\":19464:19516   */\n      mstore\n        /* \"#utility.yul\":19347:19523   */\n      pop\n      jump\t// out\n        /* \"#utility.yul\":19529:19895   */\n    tag_278:\n        /* \"#utility.yul\":19671:19674   */\n      0x00\n        /* \"#utility.yul\":19692:19759   */\n      tag_459\n        /* \"#utility.yul\":19756:19758   */\n      0x1a\n        /* \"#utility.yul\":19751:19754   */\n      dup4\n        /* \"#utility.yul\":19692:19759   */\n      tag_257\n      jump\t// in\n    tag_459:\n        /* \"#utility.yul\":19685:19759   */\n      swap2\n      pop\n        /* \"#utility.yul\":19768:19861   */\n      tag_460\n        /* \"#utility.yul\":19857:19860   */\n      dup3\n        /* \"#utility.yul\":19768:19861   */\n      tag_277\n      jump\t// in\n    tag_460:\n        /* \"#utility.yul\":19886:19888   */\n      0x20\n        /* \"#utility.yul\":19881:19884   */\n      dup3\n        /* \"#utility.yul\":19877:19889   */\n      add\n        /* \"#utility.yul\":19870:19889   */\n      swap1\n      pop\n        /* \"#utility.yul\":19529:19895   */\n      swap2\n      swap1\n      pop\n      jump\t// out\n        /* \"#utility.yul\":19901:20320   */\n    tag_202:\n        /* \"#utility.yul\":20067:20071   */\n      0x00\n        /* \"#utility.yul\":20105:20107   */\n      0x20\n        /* \"#utility.yul\":20094:20103   */\n      dup3\n        /* \"#utility.yul\":20090:20108   */\n      add\n        /* \"#utility.yul\":20082:20108   */\n      swap1\n      pop\n        /* \"#utility.yul\":20154:20163   */\n      dup2\n        /* \"#utility.yul\":20148:20152   */\n      dup2\n        /* \"#utility.yul\":20144:20164   */\n      sub\n        /* \"#utility.yul\":20140:20141   */\n      0x00\n        /* \"#utility.yul\":20129:20138   */\n      dup4\n        /* \"#utility.yul\":20125:20142   */\n      add\n        /* \"#utility.yul\":20118:20165   */\n      mstore\n        /* \"#utility.yul\":20182:20313   */\n      tag_462\n        /* \"#utility.yul\":20308:20312   */\n      dup2\n        /* \"#utility.yul\":20182:20313   */\n      tag_278\n      jump\t// in\n    tag_462:\n        /* \"#utility.yul\":20174:20313   */\n      swap1\n      pop\n        /* \"#utility.yul\":19901:20320   */\n      swap2\n      swap1\n      pop\n      jump\t// out\n        /* \"#utility.yul\":20326:20490   */\n    tag_279:\n        /* \"#utility.yul\":20466:20482   */\n      0x5472616e7366657220676167616c000000000000000000000000000000000000\n        /* \"#utility.yul\":20462:20463   */\n      0x00\n        /* \"#utility.yul\":20454:20460   */\n      dup3\n        /* \"#utility.yul\":20450:20464   */\n      add\n        /* \"#utility.yul\":20443:20483   */\n      mstore\n        /* \"#utility.yul\":20326:20490   */\n      pop\n      jump\t// out\n        /* \"#utility.yul\":20496:20862   */\n    tag_280:\n        /* \"#utility.yul\":20638:20641   */\n      0x00\n        /* \"#utility.yul\":20659:20726   */\n      tag_465\n        /* \"#utility.yul\":20723:20725   */\n      0x0e\n        /* \"#utility.yul\":20718:20721   */\n      dup4\n        /* \"#utility.yul\":20659:20726   */\n      tag_257\n      jump\t// in\n    tag_465:\n        /* \"#utility.yul\":20652:20726   */\n      swap2\n      pop\n        /* \"#utility.yul\":20735:20828   */\n      tag_466\n        /* \"#utility.yul\":20824:20827   */\n      dup3\n        /* \"#utility.yul\":20735:20828   */\n      tag_279\n      jump\t// in\n    tag_466:\n        /* \"#utility.yul\":20853:20855   */\n      0x20\n        /* \"#utility.yul\":20848:20851   */\n      dup3\n        /* \"#utility.yul\":20844:20856   */\n      add\n        /* \"#utility.yul\":20837:20856   */\n      swap1\n      pop\n        /* \"#utility.yul\":20496:20862   */\n      swap2\n      swap1\n      pop\n      jump\t// out\n        /* \"#utility.yul\":20868:21287   */\n    tag_210:\n        /* \"#utility.yul\":21034:21038   */\n      0x00\n        /* \"#utility.yul\":21072:21074   */\n      0x20\n        /* \"#utility.yul\":21061:21070   */\n      dup3\n        /* \"#utility.yul\":21057:21075   */\n      add\n        /* \"#utility.yul\":21049:21075   */\n      swap1\n      pop\n        /* \"#utility.yul\":21121:21130   */\n      dup2\n        /* \"#utility.yul\":21115:21119   */\n      dup2\n        /* \"#utility.yul\":21111:21131   */\n      sub\n        /* \"#utility.yul\":21107:21108   */\n      0x00\n        /* \"#utility.yul\":21096:21105   */\n      dup4\n        /* \"#utility.yul\":21092:21109   */\n      add\n        /* \"#utility.yul\":21085:21132   */\n      mstore\n        /* \"#utility.yul\":21149:21280   */\n      tag_468\n        /* \"#utility.yul\":21275:21279   */\n      dup2\n        /* \"#utility.yul\":21149:21280   */\n      tag_280\n      jump\t// in\n    tag_468:\n        /* \"#utility.yul\":21141:21280   */\n      swap1\n      pop\n        /* \"#utility.yul\":20868:21287   */\n      swap2\n      swap1\n      pop\n      jump\t// out\n\n    auxdata: 0xa264697066735822122096b1d4ca18e99b7d252e509b9244751a9c7687d09315ac66dea41389855be0c264736f6c634300081e0033\n}\n",
				"bytecode": {
					"linkReferences": {},
					"object": "6080604052348015600e575f5ffd5b503360035f6101000a81548173ffffffffffffffffffffffffffffffffffffffff021916908373ffffffffffffffffffffffffffffffffffffffff160217905550611e708061005c5f395ff3fe60806040526004361061010c575f3560e01c80638dd2361c11610094578063cfc9a5f811610063578063cfc9a5f814610366578063d0e30db014610390578063ddd425961461039a578063e38f8448146103c2578063ed0b1f5f146103ea57610113565b80638dd2361c146102a75780639886bcfa146102ea5780639c47174914610312578063bacb5ebd1461033c57610113565b8063754e150d116100db578063754e150d146101b15780637ed4c5be146101ed578063891c0785146102175780638aee578b146102415780638da5cb5b1461027d57610113565b806330cec0eb146101175780633ccfd60b1461015357806351f9efde1461016957806374119a381461019357610113565b3661011357005b5f5ffd5b348015610122575f5ffd5b5061013d600480360381019061013891906114b5565b610426565b60405161014a91906115a0565b60405180910390f35b34801561015e575f5ffd5b506101676104b9565b005b348015610174575f5ffd5b5061017d610614565b60405161018a91906115cf565b60405180910390f35b61019b610619565b6040516101a891906115cf565b60405180910390f35b3480156101bc575f5ffd5b506101d760048036038101906101d29190611612565b6108a5565b6040516101e49190611658565b60405180910390f35b3480156101f8575f5ffd5b50610201610a53565b60405161020e91906115cf565b60405180910390f35b348015610222575f5ffd5b5061022b610a58565b60405161023891906115cf565b60405180910390f35b34801561024c575f5ffd5b5061026760048036038101906102629190611671565b610a63565b60405161027491906115cf565b60405180910390f35b348015610288575f5ffd5b50610291610a8e565b60405161029e91906116be565b60405180910390f35b3480156102b2575f5ffd5b506102cd60048036038101906102c89190611612565b610ab3565b6040516102e1989796959493929190611764565b60405180910390f35b3480156102f5575f5ffd5b50610310600480360381019061030b9190611612565b610b48565b005b34801561031d575f5ffd5b50610326610d0a565b60405161033391906115cf565b60405180910390f35b348015610347575f5ffd5b50610350610d10565b60405161035d9190611658565b60405180910390f35b348015610371575f5ffd5b5061037a610d15565b60405161038791906115cf565b60405180910390f35b610398610d20565b005b3480156103a5575f5ffd5b506103c060048036038101906103bb9190611612565b610d64565b005b3480156103cd575f5ffd5b506103e860048036038101906103e39190611612565b610eeb565b005b3480156103f5575f5ffd5b50610410600480360381019061040b9190611612565b6111f1565b60405161041d91906118bc565b60405180910390f35b606060015f8373ffffffffffffffffffffffffffffffffffffffff1673ffffffffffffffffffffffffffffffffffffffff1681526020019081526020015f208054806020026020016040519081016040528092919081815260200182805480156104ad57602002820191905f5260205f20905b815481526020019060010190808311610499575b50505050509050919050565b60035f9054906101000a900473ffffffffffffffffffffffffffffffffffffffff1673ffffffffffffffffffffffffffffffffffffffff163373ffffffffffffffffffffffffffffffffffffffff1614610548576040517f08c379a000000000000000000000000000000000000000000000000000000000815260040161053f90611930565b60405180910390fd5b5f60035f9054906101000a900473ffffffffffffffffffffffffffffffffffffffff1673ffffffffffffffffffffffffffffffffffffffff164760405161058e9061197b565b5f6040518083038185875af1925050503d805f81146105c8576040519150601f19603f3d011682016040523d82523d5f602084013e6105cd565b606091505b5050905080610611576040517f08c379a0000000000000000000000000000000000000000000000000000000008152600401610608906119d9565b60405180910390fd5b50565b603c81565b5f66038d7ea4c68000341015610664576040517f08c379a000000000000000000000000000000000000000000000000000000000815260040161065b90611a67565b60405180910390fd5b60025f81548092919061067690611ab2565b91905055505f60405180610100016040528060025481526020013373ffffffffffffffffffffffffffffffffffffffff1681526020015f60038111156106bf576106be6116d7565b5b8152602001428152602001428152602001606460ff1681526020016001151581526020015f15158152509050805f5f60025481526020019081526020015f205f820151815f01556020820151816001015f6101000a81548173ffffffffffffffffffffffffffffffffffffffff021916908373ffffffffffffffffffffffffffffffffffffffff16021790555060408201518160010160146101000a81548160ff02191690836003811115610777576107766116d7565b5b0217905550606082015181600201556080820151816003015560a0820151816004015f6101000a81548160ff021916908360ff16021790555060c08201518160040160016101000a81548160ff02191690831515021790555060e08201518160040160026101000a81548160ff02191690831515021790555090505060015f3373ffffffffffffffffffffffffffffffffffffffff1673ffffffffffffffffffffffffffffffffffffffff1681526020019081526020015f20600254908060018154018082558091505060019003905f5260205f20015f90919091909150556002543373ffffffffffffffffffffffffffffffffffffffff167f4f5b22082ac57121703b0b6c1203ef527cfbfa5069616fee6deb979d124adbf060405160405180910390a360025491505090565b5f5f5f5f8481526020019081526020015f20604051806101000160405290815f8201548152602001600182015f9054906101000a900473ffffffffffffffffffffffffffffffffffffffff1673ffffffffffffffffffffffffffffffffffffffff1673ffffffffffffffffffffffffffffffffffffffff1681526020016001820160149054906101000a900460ff166003811115610946576109456116d7565b5b6003811115610958576109576116d7565b5b81526020016002820154815260200160038201548152602001600482015f9054906101000a900460ff1660ff1660ff1681526020016004820160019054906101000a900460ff161515151581526020016004820160029054906101000a900460ff16151515158152505090508060c0015115806109d657508060e001515b156109e4575f915050610a4e565b5f8160800151426109f59190611af9565b90505f601e82610a059190611b59565b90505f600260ff1682610a189190611b89565b90508360a0015160ff168110610a34575f945050505050610a4e565b808460a0015160ff16610a479190611af9565b9450505050505b919050565b601e81565b660aa87bee53800081565b6001602052815f5260405f208181548110610a7c575f80fd5b905f5260205f20015f91509150505481565b60035f9054906101000a900473ffffffffffffffffffffffffffffffffffffffff1681565b5f602052805f5260405f205f91509050805f015490806001015f9054906101000a900473ffffffffffffffffffffffffffffffffffffffff16908060010160149054906101000a900460ff1690806002015490806003015490806004015f9054906101000a900460ff16908060040160019054906101000a900460ff16908060040160029054906101000a900460ff16905088565b5f5f5f8381526020019081526020015f2090508060040160019054906101000a900460ff16610bac576040517f08c379a0000000000000000000000000000000000000000000000000000000008152600401610ba390611c14565b60405180910390fd5b3373ffffffffffffffffffffffffffffffffffffffff16816001015f9054906101000a900473ffffffffffffffffffffffffffffffffffffffff1673ffffffffffffffffffffffffffffffffffffffff1614610c3d576040517f08c379a0000000000000000000000000000000000000000000000000000000008152600401610c3490611930565b60405180910390fd5b8060040160029054906101000a900460ff1615610c8f576040517f08c379a0000000000000000000000000000000000000000000000000000000008152600401610c8690611c7c565b60405180910390fd5b6064816004015f6101000a81548160ff021916908360ff160217905550428160030181905550817fd4b742b9ba48fffa1f14267075a7793851770764117c423fd0a6550dfc8cb574826004015f9054906101000a900460ff16604051610cf59190611658565b60405180910390a2610d0682610d64565b5050565b60025481565b600281565b66038d7ea4c6800081565b5f3411610d62576040517f08c379a0000000000000000000000000000000000000000000000000000000008152600401610d5990611ce4565b60405180910390fd5b565b5f5f5f8381526020019081526020015f20905060018160040160016101000a81548160ff0219169083151502179055610dd2576040517f08c379a0000000000000000000000000000000000000000000000000000000008152600401610dc990611c14565b60405180910390fd5b610ddb8261133a565b8060040160029054906101000a900460ff1615610df85750610ee8565b5f816002015442610e099190611af9565b90505f8260010160149054906101000a900460ff169050603c6003610e2e9190611b89565b8210610e665760038360010160146101000a81548160ff02191690836003811115610e5c57610e5b6116d7565b5b0217905550610ee4565b603c6002610e749190611b89565b8210610eac5760028360010160146101000a81548160ff02191690836003811115610ea257610ea16116d7565b5b0217905550610ee3565b603c8210610ee25760018360010160146101000a81548160ff02191690836003811115610edc57610edb6116d7565b5b02179055505b5b5b5050505b50565b5f5f5f8381526020019081526020015f20905060018160040160016101000a81548160ff0219169083151502179055610f59576040517f08c379a0000000000000000000000000000000000000000000000000000000008152600401610f5090611c14565b60405180910390fd5b5f5f8381526020019081526020015f206001015f9054906101000a900473ffffffffffffffffffffffffffffffffffffffff1673ffffffffffffffffffffffffffffffffffffffff163373ffffffffffffffffffffffffffffffffffffffff1614610ff9576040517f08c379a0000000000000000000000000000000000000000000000000000000008152600401610ff090611d4c565b60405180910390fd5b8060040160029054906101000a900460ff161561104b576040517f08c379a000000000000000000000000000000000000000000000000000000000815260040161104290611c7c565b60405180910390fd5b61105482610d64565b600380811115611067576110666116d7565b5b8160010160149054906101000a900460ff16600381111561108b5761108a6116d7565b5b146110cb576040517f08c379a00000000000000000000000000000000000000000000000000000000081526004016110c290611db4565b60405180910390fd5b5f8160040160016101000a81548160ff0219169083151502179055503373ffffffffffffffffffffffffffffffffffffffff16827f79f2138ea100070ff95b59c265da7aa3c7a0f61595fe1bb2f5fda2762f398847660aa87bee53800060405161113591906115cf565b60405180910390a35f3373ffffffffffffffffffffffffffffffffffffffff16660aa87bee5380006040516111699061197b565b5f6040518083038185875af1925050503d805f81146111a3576040519150601f19603f3d011682016040523d82523d5f602084013e6111a8565b606091505b50509050806111ec576040517f08c379a00000000000000000000000000000000000000000000000000000000081526004016111e390611e1c565b60405180910390fd5b505050565b6111f96113eb565b5f5f5f8481526020019081526020015f20604051806101000160405290815f8201548152602001600182015f9054906101000a900473ffffffffffffffffffffffffffffffffffffffff1673ffffffffffffffffffffffffffffffffffffffff1673ffffffffffffffffffffffffffffffffffffffff1681526020016001820160149054906101000a900460ff166003811115611299576112986116d7565b5b60038111156112ab576112aa6116d7565b5b81526020016002820154815260200160038201548152602001600482015f9054906101000a900460ff1660ff1660ff1681526020016004820160019054906101000a900460ff161515151581526020016004820160029054906101000a900460ff1615151515815250509050611320836108a5565b8160a0019060ff16908160ff168152505080915050919050565b5f5f5f8381526020019081526020015f2090505f611357836108a5565b905080826004015f6101000a81548160ff021916908360ff1602179055505f8160ff1614801561139657508160040160029054906101000a900460ff16155b156113e65760018260040160026101000a81548160ff021916908315150217905550827fcc296a21951f3e57f21afb08547d835a0a9f0f06cc2867009cbe0cae44d36be960405160405180910390a25b505050565b6040518061010001604052805f81526020015f73ffffffffffffffffffffffffffffffffffffffff1681526020015f600381111561142c5761142b6116d7565b5b81526020015f81526020015f81526020015f60ff1681526020015f151581526020015f151581525090565b5f5ffd5b5f73ffffffffffffffffffffffffffffffffffffffff82169050919050565b5f6114848261145b565b9050919050565b6114948161147a565b811461149e575f5ffd5b50565b5f813590506114af8161148b565b92915050565b5f602082840312156114ca576114c9611457565b5b5f6114d7848285016114a1565b91505092915050565b5f81519050919050565b5f82825260208201905092915050565b5f819050602082019050919050565b5f819050919050565b61151b81611509565b82525050565b5f61152c8383611512565b60208301905092915050565b5f602082019050919050565b5f61154e826114e0565b61155881856114ea565b9350611563836114fa565b805f5b8381101561159357815161157a8882611521565b975061158583611538565b925050600181019050611566565b5085935050505092915050565b5f6020820190508181035f8301526115b88184611544565b905092915050565b6115c981611509565b82525050565b5f6020820190506115e25f8301846115c0565b92915050565b6115f181611509565b81146115fb575f5ffd5b50565b5f8135905061160c816115e8565b92915050565b5f6020828403121561162757611626611457565b5b5f611634848285016115fe565b91505092915050565b5f60ff82169050919050565b6116528161163d565b82525050565b5f60208201905061166b5f830184611649565b92915050565b5f5f6040838503121561168757611686611457565b5b5f611694858286016114a1565b92505060206116a5858286016115fe565b9150509250929050565b6116b88161147a565b82525050565b5f6020820190506116d15f8301846116af565b92915050565b7f4e487b71000000000000000000000000000000000000000000000000000000005f52602160045260245ffd5b60048110611715576117146116d7565b5b50565b5f81905061172582611704565b919050565b5f61173482611718565b9050919050565b6117448161172a565b82525050565b5f8115159050919050565b61175e8161174a565b82525050565b5f610100820190506117785f83018b6115c0565b611785602083018a6116af565b611792604083018961173b565b61179f60608301886115c0565b6117ac60808301876115c0565b6117b960a0830186611649565b6117c660c0830185611755565b6117d360e0830184611755565b9998505050505050505050565b6117e98161147a565b82525050565b6117f88161172a565b82525050565b6118078161163d565b82525050565b6118168161174a565b82525050565b61010082015f8201516118315f850182611512565b50602082015161184460208501826117e0565b50604082015161185760408501826117ef565b50606082015161186a6060850182611512565b50608082015161187d6080850182611512565b5060a082015161189060a08501826117fe565b5060c08201516118a360c085018261180d565b5060e08201516118b660e085018261180d565b50505050565b5f610100820190506118d05f83018461181c565b92915050565b5f82825260208201905092915050565b7f4e6f7420746865206f776e6572000000000000000000000000000000000000005f82015250565b5f61191a600d836118d6565b9150611925826118e6565b602082019050919050565b5f6020820190508181035f8301526119478161190e565b9050919050565b5f81905092915050565b50565b5f6119665f8361194e565b915061197182611958565b5f82019050919050565b5f6119858261195b565b9150819050919050565b7f5472616e73666572206661696c656400000000000000000000000000000000005f82015250565b5f6119c3600f836118d6565b91506119ce8261198f565b602082019050919050565b5f6020820190508181035f8301526119f0816119b7565b9050919050565b7f496e73756666696369656e742066756e647320746f20706c616e7420612073655f8201527f6564000000000000000000000000000000000000000000000000000000000000602082015250565b5f611a516022836118d6565b9150611a5c826119f7565b604082019050919050565b5f6020820190508181035f830152611a7e81611a45565b9050919050565b7f4e487b71000000000000000000000000000000000000000000000000000000005f52601160045260245ffd5b5f611abc82611509565b91507fffffffffffffffffffffffffffffffffffffffffffffffffffffffffffffffff8203611aee57611aed611a85565b5b600182019050919050565b5f611b0382611509565b9150611b0e83611509565b9250828203905081811115611b2657611b25611a85565b5b92915050565b7f4e487b71000000000000000000000000000000000000000000000000000000005f52601260045260245ffd5b5f611b6382611509565b9150611b6e83611509565b925082611b7e57611b7d611b2c565b5b828204905092915050565b5f611b9382611509565b9150611b9e83611509565b9250828202611bac81611509565b91508282048414831517611bc357611bc2611a85565b5b5092915050565b7f506c616e74206e6f7420666f756e6400000000000000000000000000000000005f82015250565b5f611bfe600f836118d6565b9150611c0982611bca565b602082019050919050565b5f6020820190508181035f830152611c2b81611bf2565b9050919050565b7f506c616e742069732064656164000000000000000000000000000000000000005f82015250565b5f611c66600d836118d6565b9150611c7182611c32565b602082019050919050565b5f6020820190508181035f830152611c9381611c5a565b9050919050565b7f4d7573742073656e6420455448000000000000000000000000000000000000005f82015250565b5f611cce600d836118d6565b9150611cd982611c9a565b602082019050919050565b5f6020820190508181035f830152611cfb81611cc2565b9050919050565b7f42756b616e206f776e65720000000000000000000000000000000000000000005f82015250565b5f611d36600b836118d6565b9150611d4182611d02565b602082019050919050565b5f6020820190508181035f830152611d6381611d2a565b9050919050565b7f54616e616d616e2062656c756d206269736120646970616e656e0000000000005f82015250565b5f611d9e601a836118d6565b9150611da982611d6a565b602082019050919050565b5f6020820190508181035f830152611dcb81611d92565b9050919050565b7f5472616e7366657220676167616c0000000000000000000000000000000000005f82015250565b5f611e06600e836118d6565b9150611e1182611dd2565b602082019050919050565b5f6020820190508181035f830152611e3381611dfa565b905091905056fea264697066735822122096b1d4ca18e99b7d252e509b9244751a9c7687d09315ac66dea41389855be0c264736f6c634300081e0033",
					"opcodes": "PUSH1 0x80 PUSH1 0x40 MSTORE CALLVALUE DUP1 ISZERO PUSH1 0xE JUMPI PUSH0 PUSH0 REVERT JUMPDEST POP CALLER PUSH1 0x3 PUSH0 PUSH2 0x100 EXP DUP2 SLOAD DUP2 PUSH20 0xFFFFFFFFFFFFFFFFFFFFFFFFFFFFFFFFFFFFFFFF MUL NOT AND SWAP1 DUP4 PUSH20 0xFFFFFFFFFFFFFFFFFFFFFFFFFFFFFFFFFFFFFFFF AND MUL OR SWAP1 SSTORE POP PUSH2 0x1E70 DUP1 PUSH2 0x5C PUSH0 CODECOPY PUSH0 RETURN INVALID PUSH1 0x80 PUSH1 0x40 MSTORE PUSH1 0x4 CALLDATASIZE LT PUSH2 0x10C JUMPI PUSH0 CALLDATALOAD PUSH1 0xE0 SHR DUP1 PUSH4 0x8DD2361C GT PUSH2 0x94 JUMPI DUP1 PUSH4 0xCFC9A5F8 GT PUSH2 0x63 JUMPI DUP1 PUSH4 0xCFC9A5F8 EQ PUSH2 0x366 JUMPI DUP1 PUSH4 0xD0E30DB0 EQ PUSH2 0x390 JUMPI DUP1 PUSH4 0xDDD42596 EQ PUSH2 0x39A JUMPI DUP1 PUSH4 0xE38F8448 EQ PUSH2 0x3C2 JUMPI DUP1 PUSH4 0xED0B1F5F EQ PUSH2 0x3EA JUMPI PUSH2 0x113 JUMP JUMPDEST DUP1 PUSH4 0x8DD2361C EQ PUSH2 0x2A7 JUMPI DUP1 PUSH4 0x9886BCFA EQ PUSH2 0x2EA JUMPI DUP1 PUSH4 0x9C471749 EQ PUSH2 0x312 JUMPI DUP1 PUSH4 0xBACB5EBD EQ PUSH2 0x33C JUMPI PUSH2 0x113 JUMP JUMPDEST DUP1 PUSH4 0x754E150D GT PUSH2 0xDB JUMPI DUP1 PUSH4 0x754E150D EQ PUSH2 0x1B1 JUMPI DUP1 PUSH4 0x7ED4C5BE EQ PUSH2 0x1ED JUMPI DUP1 PUSH4 0x891C0785 EQ PUSH2 0x217 JUMPI DUP1 PUSH4 0x8AEE578B EQ PUSH2 0x241 JUMPI DUP1 PUSH4 0x8DA5CB5B EQ PUSH2 0x27D JUMPI PUSH2 0x113 JUMP JUMPDEST DUP1 PUSH4 0x30CEC0EB EQ PUSH2 0x117 JUMPI DUP1 PUSH4 0x3CCFD60B EQ PUSH2 0x153 JUMPI DUP1 PUSH4 0x51F9EFDE EQ PUSH2 0x169 JUMPI DUP1 PUSH4 0x74119A38 EQ PUSH2 0x193 JUMPI PUSH2 0x113 JUMP JUMPDEST CALLDATASIZE PUSH2 0x113 JUMPI STOP JUMPDEST PUSH0 PUSH0 REVERT JUMPDEST CALLVALUE DUP1 ISZERO PUSH2 0x122 JUMPI PUSH0 PUSH0 REVERT JUMPDEST POP PUSH2 0x13D PUSH1 0x4 DUP1 CALLDATASIZE SUB DUP2 ADD SWAP1 PUSH2 0x138 SWAP2 SWAP1 PUSH2 0x14B5 JUMP JUMPDEST PUSH2 0x426 JUMP JUMPDEST PUSH1 0x40 MLOAD PUSH2 0x14A SWAP2 SWAP1 PUSH2 0x15A0 JUMP JUMPDEST PUSH1 0x40 MLOAD DUP1 SWAP2 SUB SWAP1 RETURN JUMPDEST CALLVALUE DUP1 ISZERO PUSH2 0x15E JUMPI PUSH0 PUSH0 REVERT JUMPDEST POP PUSH2 0x167 PUSH2 0x4B9 JUMP JUMPDEST STOP JUMPDEST CALLVALUE DUP1 ISZERO PUSH2 0x174 JUMPI PUSH0 PUSH0 REVERT JUMPDEST POP PUSH2 0x17D PUSH2 0x614 JUMP JUMPDEST PUSH1 0x40 MLOAD PUSH2 0x18A SWAP2 SWAP1 PUSH2 0x15CF JUMP JUMPDEST PUSH1 0x40 MLOAD DUP1 SWAP2 SUB SWAP1 RETURN JUMPDEST PUSH2 0x19B PUSH2 0x619 JUMP JUMPDEST PUSH1 0x40 MLOAD PUSH2 0x1A8 SWAP2 SWAP1 PUSH2 0x15CF JUMP JUMPDEST PUSH1 0x40 MLOAD DUP1 SWAP2 SUB SWAP1 RETURN JUMPDEST CALLVALUE DUP1 ISZERO PUSH2 0x1BC JUMPI PUSH0 PUSH0 REVERT JUMPDEST POP PUSH2 0x1D7 PUSH1 0x4 DUP1 CALLDATASIZE SUB DUP2 ADD SWAP1 PUSH2 0x1D2 SWAP2 SWAP1 PUSH2 0x1612 JUMP JUMPDEST PUSH2 0x8A5 JUMP JUMPDEST PUSH1 0x40 MLOAD PUSH2 0x1E4 SWAP2 SWAP1 PUSH2 0x1658 JUMP JUMPDEST PUSH1 0x40 MLOAD DUP1 SWAP2 SUB SWAP1 RETURN JUMPDEST CALLVALUE DUP1 ISZERO PUSH2 0x1F8 JUMPI PUSH0 PUSH0 REVERT JUMPDEST POP PUSH2 0x201 PUSH2 0xA53 JUMP JUMPDEST PUSH1 0x40 MLOAD PUSH2 0x20E SWAP2 SWAP1 PUSH2 0x15CF JUMP JUMPDEST PUSH1 0x40 MLOAD DUP1 SWAP2 SUB SWAP1 RETURN JUMPDEST CALLVALUE DUP1 ISZERO PUSH2 0x222 JUMPI PUSH0 PUSH0 REVERT JUMPDEST POP PUSH2 0x22B PUSH2 0xA58 JUMP JUMPDEST PUSH1 0x40 MLOAD PUSH2 0x238 SWAP2 SWAP1 PUSH2 0x15CF JUMP JUMPDEST PUSH1 0x40 MLOAD DUP1 SWAP2 SUB SWAP1 RETURN JUMPDEST CALLVALUE DUP1 ISZERO PUSH2 0x24C JUMPI PUSH0 PUSH0 REVERT JUMPDEST POP PUSH2 0x267 PUSH1 0x4 DUP1 CALLDATASIZE SUB DUP2 ADD SWAP1 PUSH2 0x262 SWAP2 SWAP1 PUSH2 0x1671 JUMP JUMPDEST PUSH2 0xA63 JUMP JUMPDEST PUSH1 0x40 MLOAD PUSH2 0x274 SWAP2 SWAP1 PUSH2 0x15CF JUMP JUMPDEST PUSH1 0x40 MLOAD DUP1 SWAP2 SUB SWAP1 RETURN JUMPDEST CALLVALUE DUP1 ISZERO PUSH2 0x288 JUMPI PUSH0 PUSH0 REVERT JUMPDEST POP PUSH2 0x291 PUSH2 0xA8E JUMP JUMPDEST PUSH1 0x40 MLOAD PUSH2 0x29E SWAP2 SWAP1 PUSH2 0x16BE JUMP JUMPDEST PUSH1 0x40 MLOAD DUP1 SWAP2 SUB SWAP1 RETURN JUMPDEST CALLVALUE DUP1 ISZERO PUSH2 0x2B2 JUMPI PUSH0 PUSH0 REVERT JUMPDEST POP PUSH2 0x2CD PUSH1 0x4 DUP1 CALLDATASIZE SUB DUP2 ADD SWAP1 PUSH2 0x2C8 SWAP2 SWAP1 PUSH2 0x1612 JUMP JUMPDEST PUSH2 0xAB3 JUMP JUMPDEST PUSH1 0x40 MLOAD PUSH2 0x2E1 SWAP9 SWAP8 SWAP7 SWAP6 SWAP5 SWAP4 SWAP3 SWAP2 SWAP1 PUSH2 0x1764 JUMP JUMPDEST PUSH1 0x40 MLOAD DUP1 SWAP2 SUB SWAP1 RETURN JUMPDEST CALLVALUE DUP1 ISZERO PUSH2 0x2F5 JUMPI PUSH0 PUSH0 REVERT JUMPDEST POP PUSH2 0x310 PUSH1 0x4 DUP1 CALLDATASIZE SUB DUP2 ADD SWAP1 PUSH2 0x30B SWAP2 SWAP1 PUSH2 0x1612 JUMP JUMPDEST PUSH2 0xB48 JUMP JUMPDEST STOP JUMPDEST CALLVALUE DUP1 ISZERO PUSH2 0x31D JUMPI PUSH0 PUSH0 REVERT JUMPDEST POP PUSH2 0x326 PUSH2 0xD0A JUMP JUMPDEST PUSH1 0x40 MLOAD PUSH2 0x333 SWAP2 SWAP1 PUSH2 0x15CF JUMP JUMPDEST PUSH1 0x40 MLOAD DUP1 SWAP2 SUB SWAP1 RETURN JUMPDEST CALLVALUE DUP1 ISZERO PUSH2 0x347 JUMPI PUSH0 PUSH0 REVERT JUMPDEST POP PUSH2 0x350 PUSH2 0xD10 JUMP JUMPDEST PUSH1 0x40 MLOAD PUSH2 0x35D SWAP2 SWAP1 PUSH2 0x1658 JUMP JUMPDEST PUSH1 0x40 MLOAD DUP1 SWAP2 SUB SWAP1 RETURN JUMPDEST CALLVALUE DUP1 ISZERO PUSH2 0x371 JUMPI PUSH0 PUSH0 REVERT JUMPDEST POP PUSH2 0x37A PUSH2 0xD15 JUMP JUMPDEST PUSH1 0x40 MLOAD PUSH2 0x387 SWAP2 SWAP1 PUSH2 0x15CF JUMP JUMPDEST PUSH1 0x40 MLOAD DUP1 SWAP2 SUB SWAP1 RETURN JUMPDEST PUSH2 0x398 PUSH2 0xD20 JUMP JUMPDEST STOP JUMPDEST CALLVALUE DUP1 ISZERO PUSH2 0x3A5 JUMPI PUSH0 PUSH0 REVERT JUMPDEST POP PUSH2 0x3C0 PUSH1 0x4 DUP1 CALLDATASIZE SUB DUP2 ADD SWAP1 PUSH2 0x3BB SWAP2 SWAP1 PUSH2 0x1612 JUMP JUMPDEST PUSH2 0xD64 JUMP JUMPDEST STOP JUMPDEST CALLVALUE DUP1 ISZERO PUSH2 0x3CD JUMPI PUSH0 PUSH0 REVERT JUMPDEST POP PUSH2 0x3E8 PUSH1 0x4 DUP1 CALLDATASIZE SUB DUP2 ADD SWAP1 PUSH2 0x3E3 SWAP2 SWAP1 PUSH2 0x1612 JUMP JUMPDEST PUSH2 0xEEB JUMP JUMPDEST STOP JUMPDEST CALLVALUE DUP1 ISZERO PUSH2 0x3F5 JUMPI PUSH0 PUSH0 REVERT JUMPDEST POP PUSH2 0x410 PUSH1 0x4 DUP1 CALLDATASIZE SUB DUP2 ADD SWAP1 PUSH2 0x40B SWAP2 SWAP1 PUSH2 0x1612 JUMP JUMPDEST PUSH2 0x11F1 JUMP JUMPDEST PUSH1 0x40 MLOAD PUSH2 0x41D SWAP2 SWAP1 PUSH2 0x18BC JUMP JUMPDEST PUSH1 0x40 MLOAD DUP1 SWAP2 SUB SWAP1 RETURN JUMPDEST PUSH1 0x60 PUSH1 0x1 PUSH0 DUP4 PUSH20 0xFFFFFFFFFFFFFFFFFFFFFFFFFFFFFFFFFFFFFFFF AND PUSH20 0xFFFFFFFFFFFFFFFFFFFFFFFFFFFFFFFFFFFFFFFF AND DUP2 MSTORE PUSH1 0x20 ADD SWAP1 DUP2 MSTORE PUSH1 0x20 ADD PUSH0 KECCAK256 DUP1 SLOAD DUP1 PUSH1 0x20 MUL PUSH1 0x20 ADD PUSH1 0x40 MLOAD SWAP1 DUP2 ADD PUSH1 0x40 MSTORE DUP1 SWAP3 SWAP2 SWAP1 DUP2 DUP2 MSTORE PUSH1 0x20 ADD DUP3 DUP1 SLOAD DUP1 ISZERO PUSH2 0x4AD JUMPI PUSH1 0x20 MUL DUP3 ADD SWAP2 SWAP1 PUSH0 MSTORE PUSH1 0x20 PUSH0 KECCAK256 SWAP1 JUMPDEST DUP2 SLOAD DUP2 MSTORE PUSH1 0x20 ADD SWAP1 PUSH1 0x1 ADD SWAP1 DUP1 DUP4 GT PUSH2 0x499 JUMPI JUMPDEST POP POP POP POP POP SWAP1 POP SWAP2 SWAP1 POP JUMP JUMPDEST PUSH1 0x3 PUSH0 SWAP1 SLOAD SWAP1 PUSH2 0x100 EXP SWAP1 DIV PUSH20 0xFFFFFFFFFFFFFFFFFFFFFFFFFFFFFFFFFFFFFFFF AND PUSH20 0xFFFFFFFFFFFFFFFFFFFFFFFFFFFFFFFFFFFFFFFF AND CALLER PUSH20 0xFFFFFFFFFFFFFFFFFFFFFFFFFFFFFFFFFFFFFFFF AND EQ PUSH2 0x548 JUMPI PUSH1 0x40 MLOAD PUSH32 0x8C379A000000000000000000000000000000000000000000000000000000000 DUP2 MSTORE PUSH1 0x4 ADD PUSH2 0x53F SWAP1 PUSH2 0x1930 JUMP JUMPDEST PUSH1 0x40 MLOAD DUP1 SWAP2 SUB SWAP1 REVERT JUMPDEST PUSH0 PUSH1 0x3 PUSH0 SWAP1 SLOAD SWAP1 PUSH2 0x100 EXP SWAP1 DIV PUSH20 0xFFFFFFFFFFFFFFFFFFFFFFFFFFFFFFFFFFFFFFFF AND PUSH20 0xFFFFFFFFFFFFFFFFFFFFFFFFFFFFFFFFFFFFFFFF AND SELFBALANCE PUSH1 0x40 MLOAD PUSH2 0x58E SWAP1 PUSH2 0x197B JUMP JUMPDEST PUSH0 PUSH1 0x40 MLOAD DUP1 DUP4 SUB DUP2 DUP6 DUP8 GAS CALL SWAP3 POP POP POP RETURNDATASIZE DUP1 PUSH0 DUP2 EQ PUSH2 0x5C8 JUMPI PUSH1 0x40 MLOAD SWAP2 POP PUSH1 0x1F NOT PUSH1 0x3F RETURNDATASIZE ADD AND DUP3 ADD PUSH1 0x40 MSTORE RETURNDATASIZE DUP3 MSTORE RETURNDATASIZE PUSH0 PUSH1 0x20 DUP5 ADD RETURNDATACOPY PUSH2 0x5CD JUMP JUMPDEST PUSH1 0x60 SWAP2 POP JUMPDEST POP POP SWAP1 POP DUP1 PUSH2 0x611 JUMPI PUSH1 0x40 MLOAD PUSH32 0x8C379A000000000000000000000000000000000000000000000000000000000 DUP2 MSTORE PUSH1 0x4 ADD PUSH2 0x608 SWAP1 PUSH2 0x19D9 JUMP JUMPDEST PUSH1 0x40 MLOAD DUP1 SWAP2 SUB SWAP1 REVERT JUMPDEST POP JUMP JUMPDEST PUSH1 0x3C DUP2 JUMP JUMPDEST PUSH0 PUSH7 0x38D7EA4C68000 CALLVALUE LT ISZERO PUSH2 0x664 JUMPI PUSH1 0x40 MLOAD PUSH32 0x8C379A000000000000000000000000000000000000000000000000000000000 DUP2 MSTORE PUSH1 0x4 ADD PUSH2 0x65B SWAP1 PUSH2 0x1A67 JUMP JUMPDEST PUSH1 0x40 MLOAD DUP1 SWAP2 SUB SWAP1 REVERT JUMPDEST PUSH1 0x2 PUSH0 DUP2 SLOAD DUP1 SWAP3 SWAP2 SWAP1 PUSH2 0x676 SWAP1 PUSH2 0x1AB2 JUMP JUMPDEST SWAP2 SWAP1 POP SSTORE POP PUSH0 PUSH1 0x40 MLOAD DUP1 PUSH2 0x100 ADD PUSH1 0x40 MSTORE DUP1 PUSH1 0x2 SLOAD DUP2 MSTORE PUSH1 0x20 ADD CALLER PUSH20 0xFFFFFFFFFFFFFFFFFFFFFFFFFFFFFFFFFFFFFFFF AND DUP2 MSTORE PUSH1 0x20 ADD PUSH0 PUSH1 0x3 DUP2 GT ISZERO PUSH2 0x6BF JUMPI PUSH2 0x6BE PUSH2 0x16D7 JUMP JUMPDEST JUMPDEST DUP2 MSTORE PUSH1 0x20 ADD TIMESTAMP DUP2 MSTORE PUSH1 0x20 ADD TIMESTAMP DUP2 MSTORE PUSH1 0x20 ADD PUSH1 0x64 PUSH1 0xFF AND DUP2 MSTORE PUSH1 0x20 ADD PUSH1 0x1 ISZERO ISZERO DUP2 MSTORE PUSH1 0x20 ADD PUSH0 ISZERO ISZERO DUP2 MSTORE POP SWAP1 POP DUP1 PUSH0 PUSH0 PUSH1 0x2 SLOAD DUP2 MSTORE PUSH1 0x20 ADD SWAP1 DUP2 MSTORE PUSH1 0x20 ADD PUSH0 KECCAK256 PUSH0 DUP3 ADD MLOAD DUP2 PUSH0 ADD SSTORE PUSH1 0x20 DUP3 ADD MLOAD DUP2 PUSH1 0x1 ADD PUSH0 PUSH2 0x100 EXP DUP2 SLOAD DUP2 PUSH20 0xFFFFFFFFFFFFFFFFFFFFFFFFFFFFFFFFFFFFFFFF MUL NOT AND SWAP1 DUP4 PUSH20 0xFFFFFFFFFFFFFFFFFFFFFFFFFFFFFFFFFFFFFFFF AND MUL OR SWAP1 SSTORE POP PUSH1 0x40 DUP3 ADD MLOAD DUP2 PUSH1 0x1 ADD PUSH1 0x14 PUSH2 0x100 EXP DUP2 SLOAD DUP2 PUSH1 0xFF MUL NOT AND SWAP1 DUP4 PUSH1 0x3 DUP2 GT ISZERO PUSH2 0x777 JUMPI PUSH2 0x776 PUSH2 0x16D7 JUMP JUMPDEST JUMPDEST MUL OR SWAP1 SSTORE POP PUSH1 0x60 DUP3 ADD MLOAD DUP2 PUSH1 0x2 ADD SSTORE PUSH1 0x80 DUP3 ADD MLOAD DUP2 PUSH1 0x3 ADD SSTORE PUSH1 0xA0 DUP3 ADD MLOAD DUP2 PUSH1 0x4 ADD PUSH0 PUSH2 0x100 EXP DUP2 SLOAD DUP2 PUSH1 0xFF MUL NOT AND SWAP1 DUP4 PUSH1 0xFF AND MUL OR SWAP1 SSTORE POP PUSH1 0xC0 DUP3 ADD MLOAD DUP2 PUSH1 0x4 ADD PUSH1 0x1 PUSH2 0x100 EXP DUP2 SLOAD DUP2 PUSH1 0xFF MUL NOT AND SWAP1 DUP4 ISZERO ISZERO MUL OR SWAP1 SSTORE POP PUSH1 0xE0 DUP3 ADD MLOAD DUP2 PUSH1 0x4 ADD PUSH1 0x2 PUSH2 0x100 EXP DUP2 SLOAD DUP2 PUSH1 0xFF MUL NOT AND SWAP1 DUP4 ISZERO ISZERO MUL OR SWAP1 SSTORE POP SWAP1 POP POP PUSH1 0x1 PUSH0 CALLER PUSH20 0xFFFFFFFFFFFFFFFFFFFFFFFFFFFFFFFFFFFFFFFF AND PUSH20 0xFFFFFFFFFFFFFFFFFFFFFFFFFFFFFFFFFFFFFFFF AND DUP2 MSTORE PUSH1 0x20 ADD SWAP1 DUP2 MSTORE PUSH1 0x20 ADD PUSH0 KECCAK256 PUSH1 0x2 SLOAD SWAP1 DUP1 PUSH1 0x1 DUP2 SLOAD ADD DUP1 DUP3 SSTORE DUP1 SWAP2 POP POP PUSH1 0x1 SWAP1 SUB SWAP1 PUSH0 MSTORE PUSH1 0x20 PUSH0 KECCAK256 ADD PUSH0 SWAP1 SWAP2 SWAP1 SWAP2 SWAP1 SWAP2 POP SSTORE PUSH1 0x2 SLOAD CALLER PUSH20 0xFFFFFFFFFFFFFFFFFFFFFFFFFFFFFFFFFFFFFFFF AND PUSH32 0x4F5B22082AC57121703B0B6C1203EF527CFBFA5069616FEE6DEB979D124ADBF0 PUSH1 0x40 MLOAD PUSH1 0x40 MLOAD DUP1 SWAP2 SUB SWAP1 LOG3 PUSH1 0x2 SLOAD SWAP2 POP POP SWAP1 JUMP JUMPDEST PUSH0 PUSH0 PUSH0 PUSH0 DUP5 DUP2 MSTORE PUSH1 0x20 ADD SWAP1 DUP2 MSTORE PUSH1 0x20 ADD PUSH0 KECCAK256 PUSH1 0x40 MLOAD DUP1 PUSH2 0x100 ADD PUSH1 0x40 MSTORE SWAP1 DUP2 PUSH0 DUP3 ADD SLOAD DUP2 MSTORE PUSH1 0x20 ADD PUSH1 0x1 DUP3 ADD PUSH0 SWAP1 SLOAD SWAP1 PUSH2 0x100 EXP SWAP1 DIV PUSH20 0xFFFFFFFFFFFFFFFFFFFFFFFFFFFFFFFFFFFFFFFF AND PUSH20 0xFFFFFFFFFFFFFFFFFFFFFFFFFFFFFFFFFFFFFFFF AND PUSH20 0xFFFFFFFFFFFFFFFFFFFFFFFFFFFFFFFFFFFFFFFF AND DUP2 MSTORE PUSH1 0x20 ADD PUSH1 0x1 DUP3 ADD PUSH1 0x14 SWAP1 SLOAD SWAP1 PUSH2 0x100 EXP SWAP1 DIV PUSH1 0xFF AND PUSH1 0x3 DUP2 GT ISZERO PUSH2 0x946 JUMPI PUSH2 0x945 PUSH2 0x16D7 JUMP JUMPDEST JUMPDEST PUSH1 0x3 DUP2 GT ISZERO PUSH2 0x958 JUMPI PUSH2 0x957 PUSH2 0x16D7 JUMP JUMPDEST JUMPDEST DUP2 MSTORE PUSH1 0x20 ADD PUSH1 0x2 DUP3 ADD SLOAD DUP2 MSTORE PUSH1 0x20 ADD PUSH1 0x3 DUP3 ADD SLOAD DUP2 MSTORE PUSH1 0x20 ADD PUSH1 0x4 DUP3 ADD PUSH0 SWAP1 SLOAD SWAP1 PUSH2 0x100 EXP SWAP1 DIV PUSH1 0xFF AND PUSH1 0xFF AND PUSH1 0xFF AND DUP2 MSTORE PUSH1 0x20 ADD PUSH1 0x4 DUP3 ADD PUSH1 0x1 SWAP1 SLOAD SWAP1 PUSH2 0x100 EXP SWAP1 DIV PUSH1 0xFF AND ISZERO ISZERO ISZERO ISZERO DUP2 MSTORE PUSH1 0x20 ADD PUSH1 0x4 DUP3 ADD PUSH1 0x2 SWAP1 SLOAD SWAP1 PUSH2 0x100 EXP SWAP1 DIV PUSH1 0xFF AND ISZERO ISZERO ISZERO ISZERO DUP2 MSTORE POP POP SWAP1 POP DUP1 PUSH1 0xC0 ADD MLOAD ISZERO DUP1 PUSH2 0x9D6 JUMPI POP DUP1 PUSH1 0xE0 ADD MLOAD JUMPDEST ISZERO PUSH2 0x9E4 JUMPI PUSH0 SWAP2 POP POP PUSH2 0xA4E JUMP JUMPDEST PUSH0 DUP2 PUSH1 0x80 ADD MLOAD TIMESTAMP PUSH2 0x9F5 SWAP2 SWAP1 PUSH2 0x1AF9 JUMP JUMPDEST SWAP1 POP PUSH0 PUSH1 0x1E DUP3 PUSH2 0xA05 SWAP2 SWAP1 PUSH2 0x1B59 JUMP JUMPDEST SWAP1 POP PUSH0 PUSH1 0x2 PUSH1 0xFF AND DUP3 PUSH2 0xA18 SWAP2 SWAP1 PUSH2 0x1B89 JUMP JUMPDEST SWAP1 POP DUP4 PUSH1 0xA0 ADD MLOAD PUSH1 0xFF AND DUP2 LT PUSH2 0xA34 JUMPI PUSH0 SWAP5 POP POP POP POP POP PUSH2 0xA4E JUMP JUMPDEST DUP1 DUP5 PUSH1 0xA0 ADD MLOAD PUSH1 0xFF AND PUSH2 0xA47 SWAP2 SWAP1 PUSH2 0x1AF9 JUMP JUMPDEST SWAP5 POP POP POP POP POP JUMPDEST SWAP2 SWAP1 POP JUMP JUMPDEST PUSH1 0x1E DUP2 JUMP JUMPDEST PUSH7 0xAA87BEE538000 DUP2 JUMP JUMPDEST PUSH1 0x1 PUSH1 0x20 MSTORE DUP2 PUSH0 MSTORE PUSH1 0x40 PUSH0 KECCAK256 DUP2 DUP2 SLOAD DUP2 LT PUSH2 0xA7C JUMPI PUSH0 DUP1 REVERT JUMPDEST SWAP1 PUSH0 MSTORE PUSH1 0x20 PUSH0 KECCAK256 ADD PUSH0 SWAP2 POP SWAP2 POP POP SLOAD DUP2 JUMP JUMPDEST PUSH1 0x3 PUSH0 SWAP1 SLOAD SWAP1 PUSH2 0x100 EXP SWAP1 DIV PUSH20 0xFFFFFFFFFFFFFFFFFFFFFFFFFFFFFFFFFFFFFFFF AND DUP2 JUMP JUMPDEST PUSH0 PUSH1 0x20 MSTORE DUP1 PUSH0 MSTORE PUSH1 0x40 PUSH0 KECCAK256 PUSH0 SWAP2 POP SWAP1 POP DUP1 PUSH0 ADD SLOAD SWAP1 DUP1 PUSH1 0x1 ADD PUSH0 SWAP1 SLOAD SWAP1 PUSH2 0x100 EXP SWAP1 DIV PUSH20 0xFFFFFFFFFFFFFFFFFFFFFFFFFFFFFFFFFFFFFFFF AND SWAP1 DUP1 PUSH1 0x1 ADD PUSH1 0x14 SWAP1 SLOAD SWAP1 PUSH2 0x100 EXP SWAP1 DIV PUSH1 0xFF AND SWAP1 DUP1 PUSH1 0x2 ADD SLOAD SWAP1 DUP1 PUSH1 0x3 ADD SLOAD SWAP1 DUP1 PUSH1 0x4 ADD PUSH0 SWAP1 SLOAD SWAP1 PUSH2 0x100 EXP SWAP1 DIV PUSH1 0xFF AND SWAP1 DUP1 PUSH1 0x4 ADD PUSH1 0x1 SWAP1 SLOAD SWAP1 PUSH2 0x100 EXP SWAP1 DIV PUSH1 0xFF AND SWAP1 DUP1 PUSH1 0x4 ADD PUSH1 0x2 SWAP1 SLOAD SWAP1 PUSH2 0x100 EXP SWAP1 DIV PUSH1 0xFF AND SWAP1 POP DUP9 JUMP JUMPDEST PUSH0 PUSH0 PUSH0 DUP4 DUP2 MSTORE PUSH1 0x20 ADD SWAP1 DUP2 MSTORE PUSH1 0x20 ADD PUSH0 KECCAK256 SWAP1 POP DUP1 PUSH1 0x4 ADD PUSH1 0x1 SWAP1 SLOAD SWAP1 PUSH2 0x100 EXP SWAP1 DIV PUSH1 0xFF AND PUSH2 0xBAC JUMPI PUSH1 0x40 MLOAD PUSH32 0x8C379A000000000000000000000000000000000000000000000000000000000 DUP2 MSTORE PUSH1 0x4 ADD PUSH2 0xBA3 SWAP1 PUSH2 0x1C14 JUMP JUMPDEST PUSH1 0x40 MLOAD DUP1 SWAP2 SUB SWAP1 REVERT JUMPDEST CALLER PUSH20 0xFFFFFFFFFFFFFFFFFFFFFFFFFFFFFFFFFFFFFFFF AND DUP2 PUSH1 0x1 ADD PUSH0 SWAP1 SLOAD SWAP1 PUSH2 0x100 EXP SWAP1 DIV PUSH20 0xFFFFFFFFFFFFFFFFFFFFFFFFFFFFFFFFFFFFFFFF AND PUSH20 0xFFFFFFFFFFFFFFFFFFFFFFFFFFFFFFFFFFFFFFFF AND EQ PUSH2 0xC3D JUMPI PUSH1 0x40 MLOAD PUSH32 0x8C379A000000000000000000000000000000000000000000000000000000000 DUP2 MSTORE PUSH1 0x4 ADD PUSH2 0xC34 SWAP1 PUSH2 0x1930 JUMP JUMPDEST PUSH1 0x40 MLOAD DUP1 SWAP2 SUB SWAP1 REVERT JUMPDEST DUP1 PUSH1 0x4 ADD PUSH1 0x2 SWAP1 SLOAD SWAP1 PUSH2 0x100 EXP SWAP1 DIV PUSH1 0xFF AND ISZERO PUSH2 0xC8F JUMPI PUSH1 0x40 MLOAD PUSH32 0x8C379A000000000000000000000000000000000000000000000000000000000 DUP2 MSTORE PUSH1 0x4 ADD PUSH2 0xC86 SWAP1 PUSH2 0x1C7C JUMP JUMPDEST PUSH1 0x40 MLOAD DUP1 SWAP2 SUB SWAP1 REVERT JUMPDEST PUSH1 0x64 DUP2 PUSH1 0x4 ADD PUSH0 PUSH2 0x100 EXP DUP2 SLOAD DUP2 PUSH1 0xFF MUL NOT AND SWAP1 DUP4 PUSH1 0xFF AND MUL OR SWAP1 SSTORE POP TIMESTAMP DUP2 PUSH1 0x3 ADD DUP2 SWAP1 SSTORE POP DUP2 PUSH32 0xD4B742B9BA48FFFA1F14267075A7793851770764117C423FD0A6550DFC8CB574 DUP3 PUSH1 0x4 ADD PUSH0 SWAP1 SLOAD SWAP1 PUSH2 0x100 EXP SWAP1 DIV PUSH1 0xFF AND PUSH1 0x40 MLOAD PUSH2 0xCF5 SWAP2 SWAP1 PUSH2 0x1658 JUMP JUMPDEST PUSH1 0x40 MLOAD DUP1 SWAP2 SUB SWAP1 LOG2 PUSH2 0xD06 DUP3 PUSH2 0xD64 JUMP JUMPDEST POP POP JUMP JUMPDEST PUSH1 0x2 SLOAD DUP2 JUMP JUMPDEST PUSH1 0x2 DUP2 JUMP JUMPDEST PUSH7 0x38D7EA4C68000 DUP2 JUMP JUMPDEST PUSH0 CALLVALUE GT PUSH2 0xD62 JUMPI PUSH1 0x40 MLOAD PUSH32 0x8C379A000000000000000000000000000000000000000000000000000000000 DUP2 MSTORE PUSH1 0x4 ADD PUSH2 0xD59 SWAP1 PUSH2 0x1CE4 JUMP JUMPDEST PUSH1 0x40 MLOAD DUP1 SWAP2 SUB SWAP1 REVERT JUMPDEST JUMP JUMPDEST PUSH0 PUSH0 PUSH0 DUP4 DUP2 MSTORE PUSH1 0x20 ADD SWAP1 DUP2 MSTORE PUSH1 0x20 ADD PUSH0 KECCAK256 SWAP1 POP PUSH1 0x1 DUP2 PUSH1 0x4 ADD PUSH1 0x1 PUSH2 0x100 EXP DUP2 SLOAD DUP2 PUSH1 0xFF MUL NOT AND SWAP1 DUP4 ISZERO ISZERO MUL OR SWAP1 SSTORE PUSH2 0xDD2 JUMPI PUSH1 0x40 MLOAD PUSH32 0x8C379A000000000000000000000000000000000000000000000000000000000 DUP2 MSTORE PUSH1 0x4 ADD PUSH2 0xDC9 SWAP1 PUSH2 0x1C14 JUMP JUMPDEST PUSH1 0x40 MLOAD DUP1 SWAP2 SUB SWAP1 REVERT JUMPDEST PUSH2 0xDDB DUP3 PUSH2 0x133A JUMP JUMPDEST DUP1 PUSH1 0x4 ADD PUSH1 0x2 SWAP1 SLOAD SWAP1 PUSH2 0x100 EXP SWAP1 DIV PUSH1 0xFF AND ISZERO PUSH2 0xDF8 JUMPI POP PUSH2 0xEE8 JUMP JUMPDEST PUSH0 DUP2 PUSH1 0x2 ADD SLOAD TIMESTAMP PUSH2 0xE09 SWAP2 SWAP1 PUSH2 0x1AF9 JUMP JUMPDEST SWAP1 POP PUSH0 DUP3 PUSH1 0x1 ADD PUSH1 0x14 SWAP1 SLOAD SWAP1 PUSH2 0x100 EXP SWAP1 DIV PUSH1 0xFF AND SWAP1 POP PUSH1 0x3C PUSH1 0x3 PUSH2 0xE2E SWAP2 SWAP1 PUSH2 0x1B89 JUMP JUMPDEST DUP3 LT PUSH2 0xE66 JUMPI PUSH1 0x3 DUP4 PUSH1 0x1 ADD PUSH1 0x14 PUSH2 0x100 EXP DUP2 SLOAD DUP2 PUSH1 0xFF MUL NOT AND SWAP1 DUP4 PUSH1 0x3 DUP2 GT ISZERO PUSH2 0xE5C JUMPI PUSH2 0xE5B PUSH2 0x16D7 JUMP JUMPDEST JUMPDEST MUL OR SWAP1 SSTORE POP PUSH2 0xEE4 JUMP JUMPDEST PUSH1 0x3C PUSH1 0x2 PUSH2 0xE74 SWAP2 SWAP1 PUSH2 0x1B89 JUMP JUMPDEST DUP3 LT PUSH2 0xEAC JUMPI PUSH1 0x2 DUP4 PUSH1 0x1 ADD PUSH1 0x14 PUSH2 0x100 EXP DUP2 SLOAD DUP2 PUSH1 0xFF MUL NOT AND SWAP1 DUP4 PUSH1 0x3 DUP2 GT ISZERO PUSH2 0xEA2 JUMPI PUSH2 0xEA1 PUSH2 0x16D7 JUMP JUMPDEST JUMPDEST MUL OR SWAP1 SSTORE POP PUSH2 0xEE3 JUMP JUMPDEST PUSH1 0x3C DUP3 LT PUSH2 0xEE2 JUMPI PUSH1 0x1 DUP4 PUSH1 0x1 ADD PUSH1 0x14 PUSH2 0x100 EXP DUP2 SLOAD DUP2 PUSH1 0xFF MUL NOT AND SWAP1 DUP4 PUSH1 0x3 DUP2 GT ISZERO PUSH2 0xEDC JUMPI PUSH2 0xEDB PUSH2 0x16D7 JUMP JUMPDEST JUMPDEST MUL OR SWAP1 SSTORE POP JUMPDEST JUMPDEST JUMPDEST POP POP POP JUMPDEST POP JUMP JUMPDEST PUSH0 PUSH0 PUSH0 DUP4 DUP2 MSTORE PUSH1 0x20 ADD SWAP1 DUP2 MSTORE PUSH1 0x20 ADD PUSH0 KECCAK256 SWAP1 POP PUSH1 0x1 DUP2 PUSH1 0x4 ADD PUSH1 0x1 PUSH2 0x100 EXP DUP2 SLOAD DUP2 PUSH1 0xFF MUL NOT AND SWAP1 DUP4 ISZERO ISZERO MUL OR SWAP1 SSTORE PUSH2 0xF59 JUMPI PUSH1 0x40 MLOAD PUSH32 0x8C379A000000000000000000000000000000000000000000000000000000000 DUP2 MSTORE PUSH1 0x4 ADD PUSH2 0xF50 SWAP1 PUSH2 0x1C14 JUMP JUMPDEST PUSH1 0x40 MLOAD DUP1 SWAP2 SUB SWAP1 REVERT JUMPDEST PUSH0 PUSH0 DUP4 DUP2 MSTORE PUSH1 0x20 ADD SWAP1 DUP2 MSTORE PUSH1 0x20 ADD PUSH0 KECCAK256 PUSH1 0x1 ADD PUSH0 SWAP1 SLOAD SWAP1 PUSH2 0x100 EXP SWAP1 DIV PUSH20 0xFFFFFFFFFFFFFFFFFFFFFFFFFFFFFFFFFFFFFFFF AND PUSH20 0xFFFFFFFFFFFFFFFFFFFFFFFFFFFFFFFFFFFFFFFF AND CALLER PUSH20 0xFFFFFFFFFFFFFFFFFFFFFFFFFFFFFFFFFFFFFFFF AND EQ PUSH2 0xFF9 JUMPI PUSH1 0x40 MLOAD PUSH32 0x8C379A000000000000000000000000000000000000000000000000000000000 DUP2 MSTORE PUSH1 0x4 ADD PUSH2 0xFF0 SWAP1 PUSH2 0x1D4C JUMP JUMPDEST PUSH1 0x40 MLOAD DUP1 SWAP2 SUB SWAP1 REVERT JUMPDEST DUP1 PUSH1 0x4 ADD PUSH1 0x2 SWAP1 SLOAD SWAP1 PUSH2 0x100 EXP SWAP1 DIV PUSH1 0xFF AND ISZERO PUSH2 0x104B JUMPI PUSH1 0x40 MLOAD PUSH32 0x8C379A000000000000000000000000000000000000000000000000000000000 DUP2 MSTORE PUSH1 0x4 ADD PUSH2 0x1042 SWAP1 PUSH2 0x1C7C JUMP JUMPDEST PUSH1 0x40 MLOAD DUP1 SWAP2 SUB SWAP1 REVERT JUMPDEST PUSH2 0x1054 DUP3 PUSH2 0xD64 JUMP JUMPDEST PUSH1 0x3 DUP1 DUP2 GT ISZERO PUSH2 0x1067 JUMPI PUSH2 0x1066 PUSH2 0x16D7 JUMP JUMPDEST JUMPDEST DUP2 PUSH1 0x1 ADD PUSH1 0x14 SWAP1 SLOAD SWAP1 PUSH2 0x100 EXP SWAP1 DIV PUSH1 0xFF AND PUSH1 0x3 DUP2 GT ISZERO PUSH2 0x108B JUMPI PUSH2 0x108A PUSH2 0x16D7 JUMP JUMPDEST JUMPDEST EQ PUSH2 0x10CB JUMPI PUSH1 0x40 MLOAD PUSH32 0x8C379A000000000000000000000000000000000000000000000000000000000 DUP2 MSTORE PUSH1 0x4 ADD PUSH2 0x10C2 SWAP1 PUSH2 0x1DB4 JUMP JUMPDEST PUSH1 0x40 MLOAD DUP1 SWAP2 SUB SWAP1 REVERT JUMPDEST PUSH0 DUP2 PUSH1 0x4 ADD PUSH1 0x1 PUSH2 0x100 EXP DUP2 SLOAD DUP2 PUSH1 0xFF MUL NOT AND SWAP1 DUP4 ISZERO ISZERO MUL OR SWAP1 SSTORE POP CALLER PUSH20 0xFFFFFFFFFFFFFFFFFFFFFFFFFFFFFFFFFFFFFFFF AND DUP3 PUSH32 0x79F2138EA100070FF95B59C265DA7AA3C7A0F61595FE1BB2F5FDA2762F398847 PUSH7 0xAA87BEE538000 PUSH1 0x40 MLOAD PUSH2 0x1135 SWAP2 SWAP1 PUSH2 0x15CF JUMP JUMPDEST PUSH1 0x40 MLOAD DUP1 SWAP2 SUB SWAP1 LOG3 PUSH0 CALLER PUSH20 0xFFFFFFFFFFFFFFFFFFFFFFFFFFFFFFFFFFFFFFFF AND PUSH7 0xAA87BEE538000 PUSH1 0x40 MLOAD PUSH2 0x1169 SWAP1 PUSH2 0x197B JUMP JUMPDEST PUSH0 PUSH1 0x40 MLOAD DUP1 DUP4 SUB DUP2 DUP6 DUP8 GAS CALL SWAP3 POP POP POP RETURNDATASIZE DUP1 PUSH0 DUP2 EQ PUSH2 0x11A3 JUMPI PUSH1 0x40 MLOAD SWAP2 POP PUSH1 0x1F NOT PUSH1 0x3F RETURNDATASIZE ADD AND DUP3 ADD PUSH1 0x40 MSTORE RETURNDATASIZE DUP3 MSTORE RETURNDATASIZE PUSH0 PUSH1 0x20 DUP5 ADD RETURNDATACOPY PUSH2 0x11A8 JUMP JUMPDEST PUSH1 0x60 SWAP2 POP JUMPDEST POP POP SWAP1 POP DUP1 PUSH2 0x11EC JUMPI PUSH1 0x40 MLOAD PUSH32 0x8C379A000000000000000000000000000000000000000000000000000000000 DUP2 MSTORE PUSH1 0x4 ADD PUSH2 0x11E3 SWAP1 PUSH2 0x1E1C JUMP JUMPDEST PUSH1 0x40 MLOAD DUP1 SWAP2 SUB SWAP1 REVERT JUMPDEST POP POP POP JUMP JUMPDEST PUSH2 0x11F9 PUSH2 0x13EB JUMP JUMPDEST PUSH0 PUSH0 PUSH0 DUP5 DUP2 MSTORE PUSH1 0x20 ADD SWAP1 DUP2 MSTORE PUSH1 0x20 ADD PUSH0 KECCAK256 PUSH1 0x40 MLOAD DUP1 PUSH2 0x100 ADD PUSH1 0x40 MSTORE SWAP1 DUP2 PUSH0 DUP3 ADD SLOAD DUP2 MSTORE PUSH1 0x20 ADD PUSH1 0x1 DUP3 ADD PUSH0 SWAP1 SLOAD SWAP1 PUSH2 0x100 EXP SWAP1 DIV PUSH20 0xFFFFFFFFFFFFFFFFFFFFFFFFFFFFFFFFFFFFFFFF AND PUSH20 0xFFFFFFFFFFFFFFFFFFFFFFFFFFFFFFFFFFFFFFFF AND PUSH20 0xFFFFFFFFFFFFFFFFFFFFFFFFFFFFFFFFFFFFFFFF AND DUP2 MSTORE PUSH1 0x20 ADD PUSH1 0x1 DUP3 ADD PUSH1 0x14 SWAP1 SLOAD SWAP1 PUSH2 0x100 EXP SWAP1 DIV PUSH1 0xFF AND PUSH1 0x3 DUP2 GT ISZERO PUSH2 0x1299 JUMPI PUSH2 0x1298 PUSH2 0x16D7 JUMP JUMPDEST JUMPDEST PUSH1 0x3 DUP2 GT ISZERO PUSH2 0x12AB JUMPI PUSH2 0x12AA PUSH2 0x16D7 JUMP JUMPDEST JUMPDEST DUP2 MSTORE PUSH1 0x20 ADD PUSH1 0x2 DUP3 ADD SLOAD DUP2 MSTORE PUSH1 0x20 ADD PUSH1 0x3 DUP3 ADD SLOAD DUP2 MSTORE PUSH1 0x20 ADD PUSH1 0x4 DUP3 ADD PUSH0 SWAP1 SLOAD SWAP1 PUSH2 0x100 EXP SWAP1 DIV PUSH1 0xFF AND PUSH1 0xFF AND PUSH1 0xFF AND DUP2 MSTORE PUSH1 0x20 ADD PUSH1 0x4 DUP3 ADD PUSH1 0x1 SWAP1 SLOAD SWAP1 PUSH2 0x100 EXP SWAP1 DIV PUSH1 0xFF AND ISZERO ISZERO ISZERO ISZERO DUP2 MSTORE PUSH1 0x20 ADD PUSH1 0x4 DUP3 ADD PUSH1 0x2 SWAP1 SLOAD SWAP1 PUSH2 0x100 EXP SWAP1 DIV PUSH1 0xFF AND ISZERO ISZERO ISZERO ISZERO DUP2 MSTORE POP POP SWAP1 POP PUSH2 0x1320 DUP4 PUSH2 0x8A5 JUMP JUMPDEST DUP2 PUSH1 0xA0 ADD SWAP1 PUSH1 0xFF AND SWAP1 DUP2 PUSH1 0xFF AND DUP2 MSTORE POP POP DUP1 SWAP2 POP POP SWAP2 SWAP1 POP JUMP JUMPDEST PUSH0 PUSH0 PUSH0 DUP4 DUP2 MSTORE PUSH1 0x20 ADD SWAP1 DUP2 MSTORE PUSH1 0x20 ADD PUSH0 KECCAK256 SWAP1 POP PUSH0 PUSH2 0x1357 DUP4 PUSH2 0x8A5 JUMP JUMPDEST SWAP1 POP DUP1 DUP3 PUSH1 0x4 ADD PUSH0 PUSH2 0x100 EXP DUP2 SLOAD DUP2 PUSH1 0xFF MUL NOT AND SWAP1 DUP4 PUSH1 0xFF AND MUL OR SWAP1 SSTORE POP PUSH0 DUP2 PUSH1 0xFF AND EQ DUP1 ISZERO PUSH2 0x1396 JUMPI POP DUP2 PUSH1 0x4 ADD PUSH1 0x2 SWAP1 SLOAD SWAP1 PUSH2 0x100 EXP SWAP1 DIV PUSH1 0xFF AND ISZERO JUMPDEST ISZERO PUSH2 0x13E6 JUMPI PUSH1 0x1 DUP3 PUSH1 0x4 ADD PUSH1 0x2 PUSH2 0x100 EXP DUP2 SLOAD DUP2 PUSH1 0xFF MUL NOT AND SWAP1 DUP4 ISZERO ISZERO MUL OR SWAP1 SSTORE POP DUP3 PUSH32 0xCC296A21951F3E57F21AFB08547D835A0A9F0F06CC2867009CBE0CAE44D36BE9 PUSH1 0x40 MLOAD PUSH1 0x40 MLOAD DUP1 SWAP2 SUB SWAP1 LOG2 JUMPDEST POP POP POP JUMP JUMPDEST PUSH1 0x40 MLOAD DUP1 PUSH2 0x100 ADD PUSH1 0x40 MSTORE DUP1 PUSH0 DUP2 MSTORE PUSH1 0x20 ADD PUSH0 PUSH20 0xFFFFFFFFFFFFFFFFFFFFFFFFFFFFFFFFFFFFFFFF AND DUP2 MSTORE PUSH1 0x20 ADD PUSH0 PUSH1 0x3 DUP2 GT ISZERO PUSH2 0x142C JUMPI PUSH2 0x142B PUSH2 0x16D7 JUMP JUMPDEST JUMPDEST DUP2 MSTORE PUSH1 0x20 ADD PUSH0 DUP2 MSTORE PUSH1 0x20 ADD PUSH0 DUP2 MSTORE PUSH1 0x20 ADD PUSH0 PUSH1 0xFF AND DUP2 MSTORE PUSH1 0x20 ADD PUSH0 ISZERO ISZERO DUP2 MSTORE PUSH1 0x20 ADD PUSH0 ISZERO ISZERO DUP2 MSTORE POP SWAP1 JUMP JUMPDEST PUSH0 PUSH0 REVERT JUMPDEST PUSH0 PUSH20 0xFFFFFFFFFFFFFFFFFFFFFFFFFFFFFFFFFFFFFFFF DUP3 AND SWAP1 POP SWAP2 SWAP1 POP JUMP JUMPDEST PUSH0 PUSH2 0x1484 DUP3 PUSH2 0x145B JUMP JUMPDEST SWAP1 POP SWAP2 SWAP1 POP JUMP JUMPDEST PUSH2 0x1494 DUP2 PUSH2 0x147A JUMP JUMPDEST DUP2 EQ PUSH2 0x149E JUMPI PUSH0 PUSH0 REVERT JUMPDEST POP JUMP JUMPDEST PUSH0 DUP2 CALLDATALOAD SWAP1 POP PUSH2 0x14AF DUP2 PUSH2 0x148B JUMP JUMPDEST SWAP3 SWAP2 POP POP JUMP JUMPDEST PUSH0 PUSH1 0x20 DUP3 DUP5 SUB SLT ISZERO PUSH2 0x14CA JUMPI PUSH2 0x14C9 PUSH2 0x1457 JUMP JUMPDEST JUMPDEST PUSH0 PUSH2 0x14D7 DUP5 DUP3 DUP6 ADD PUSH2 0x14A1 JUMP JUMPDEST SWAP2 POP POP SWAP3 SWAP2 POP POP JUMP JUMPDEST PUSH0 DUP2 MLOAD SWAP1 POP SWAP2 SWAP1 POP JUMP JUMPDEST PUSH0 DUP3 DUP3 MSTORE PUSH1 0x20 DUP3 ADD SWAP1 POP SWAP3 SWAP2 POP POP JUMP JUMPDEST PUSH0 DUP2 SWAP1 POP PUSH1 0x20 DUP3 ADD SWAP1 POP SWAP2 SWAP1 POP JUMP JUMPDEST PUSH0 DUP2 SWAP1 POP SWAP2 SWAP1 POP JUMP JUMPDEST PUSH2 0x151B DUP2 PUSH2 0x1509 JUMP JUMPDEST DUP3 MSTORE POP POP JUMP JUMPDEST PUSH0 PUSH2 0x152C DUP4 DUP4 PUSH2 0x1512 JUMP JUMPDEST PUSH1 0x20 DUP4 ADD SWAP1 POP SWAP3 SWAP2 POP POP JUMP JUMPDEST PUSH0 PUSH1 0x20 DUP3 ADD SWAP1 POP SWAP2 SWAP1 POP JUMP JUMPDEST PUSH0 PUSH2 0x154E DUP3 PUSH2 0x14E0 JUMP JUMPDEST PUSH2 0x1558 DUP2 DUP6 PUSH2 0x14EA JUMP JUMPDEST SWAP4 POP PUSH2 0x1563 DUP4 PUSH2 0x14FA JUMP JUMPDEST DUP1 PUSH0 JUMPDEST DUP4 DUP2 LT ISZERO PUSH2 0x1593 JUMPI DUP2 MLOAD PUSH2 0x157A DUP9 DUP3 PUSH2 0x1521 JUMP JUMPDEST SWAP8 POP PUSH2 0x1585 DUP4 PUSH2 0x1538 JUMP JUMPDEST SWAP3 POP POP PUSH1 0x1 DUP2 ADD SWAP1 POP PUSH2 0x1566 JUMP JUMPDEST POP DUP6 SWAP4 POP POP POP POP SWAP3 SWAP2 POP POP JUMP JUMPDEST PUSH0 PUSH1 0x20 DUP3 ADD SWAP1 POP DUP2 DUP2 SUB PUSH0 DUP4 ADD MSTORE PUSH2 0x15B8 DUP2 DUP5 PUSH2 0x1544 JUMP JUMPDEST SWAP1 POP SWAP3 SWAP2 POP POP JUMP JUMPDEST PUSH2 0x15C9 DUP2 PUSH2 0x1509 JUMP JUMPDEST DUP3 MSTORE POP POP JUMP JUMPDEST PUSH0 PUSH1 0x20 DUP3 ADD SWAP1 POP PUSH2 0x15E2 PUSH0 DUP4 ADD DUP5 PUSH2 0x15C0 JUMP JUMPDEST SWAP3 SWAP2 POP POP JUMP JUMPDEST PUSH2 0x15F1 DUP2 PUSH2 0x1509 JUMP JUMPDEST DUP2 EQ PUSH2 0x15FB JUMPI PUSH0 PUSH0 REVERT JUMPDEST POP JUMP JUMPDEST PUSH0 DUP2 CALLDATALOAD SWAP1 POP PUSH2 0x160C DUP2 PUSH2 0x15E8 JUMP JUMPDEST SWAP3 SWAP2 POP POP JUMP JUMPDEST PUSH0 PUSH1 0x20 DUP3 DUP5 SUB SLT ISZERO PUSH2 0x1627 JUMPI PUSH2 0x1626 PUSH2 0x1457 JUMP JUMPDEST JUMPDEST PUSH0 PUSH2 0x1634 DUP5 DUP3 DUP6 ADD PUSH2 0x15FE JUMP JUMPDEST SWAP2 POP POP SWAP3 SWAP2 POP POP JUMP JUMPDEST PUSH0 PUSH1 0xFF DUP3 AND SWAP1 POP SWAP2 SWAP1 POP JUMP JUMPDEST PUSH2 0x1652 DUP2 PUSH2 0x163D JUMP JUMPDEST DUP3 MSTORE POP POP JUMP JUMPDEST PUSH0 PUSH1 0x20 DUP3 ADD SWAP1 POP PUSH2 0x166B PUSH0 DUP4 ADD DUP5 PUSH2 0x1649 JUMP JUMPDEST SWAP3 SWAP2 POP POP JUMP JUMPDEST PUSH0 PUSH0 PUSH1 0x40 DUP4 DUP6 SUB SLT ISZERO PUSH2 0x1687 JUMPI PUSH2 0x1686 PUSH2 0x1457 JUMP JUMPDEST JUMPDEST PUSH0 PUSH2 0x1694 DUP6 DUP3 DUP7 ADD PUSH2 0x14A1 JUMP JUMPDEST SWAP3 POP POP PUSH1 0x20 PUSH2 0x16A5 DUP6 DUP3 DUP7 ADD PUSH2 0x15FE JUMP JUMPDEST SWAP2 POP POP SWAP3 POP SWAP3 SWAP1 POP JUMP JUMPDEST PUSH2 0x16B8 DUP2 PUSH2 0x147A JUMP JUMPDEST DUP3 MSTORE POP POP JUMP JUMPDEST PUSH0 PUSH1 0x20 DUP3 ADD SWAP1 POP PUSH2 0x16D1 PUSH0 DUP4 ADD DUP5 PUSH2 0x16AF JUMP JUMPDEST SWAP3 SWAP2 POP POP JUMP JUMPDEST PUSH32 0x4E487B7100000000000000000000000000000000000000000000000000000000 PUSH0 MSTORE PUSH1 0x21 PUSH1 0x4 MSTORE PUSH1 0x24 PUSH0 REVERT JUMPDEST PUSH1 0x4 DUP2 LT PUSH2 0x1715 JUMPI PUSH2 0x1714 PUSH2 0x16D7 JUMP JUMPDEST JUMPDEST POP JUMP JUMPDEST PUSH0 DUP2 SWAP1 POP PUSH2 0x1725 DUP3 PUSH2 0x1704 JUMP JUMPDEST SWAP2 SWAP1 POP JUMP JUMPDEST PUSH0 PUSH2 0x1734 DUP3 PUSH2 0x1718 JUMP JUMPDEST SWAP1 POP SWAP2 SWAP1 POP JUMP JUMPDEST PUSH2 0x1744 DUP2 PUSH2 0x172A JUMP JUMPDEST DUP3 MSTORE POP POP JUMP JUMPDEST PUSH0 DUP2 ISZERO ISZERO SWAP1 POP SWAP2 SWAP1 POP JUMP JUMPDEST PUSH2 0x175E DUP2 PUSH2 0x174A JUMP JUMPDEST DUP3 MSTORE POP POP JUMP JUMPDEST PUSH0 PUSH2 0x100 DUP3 ADD SWAP1 POP PUSH2 0x1778 PUSH0 DUP4 ADD DUP12 PUSH2 0x15C0 JUMP JUMPDEST PUSH2 0x1785 PUSH1 0x20 DUP4 ADD DUP11 PUSH2 0x16AF JUMP JUMPDEST PUSH2 0x1792 PUSH1 0x40 DUP4 ADD DUP10 PUSH2 0x173B JUMP JUMPDEST PUSH2 0x179F PUSH1 0x60 DUP4 ADD DUP9 PUSH2 0x15C0 JUMP JUMPDEST PUSH2 0x17AC PUSH1 0x80 DUP4 ADD DUP8 PUSH2 0x15C0 JUMP JUMPDEST PUSH2 0x17B9 PUSH1 0xA0 DUP4 ADD DUP7 PUSH2 0x1649 JUMP JUMPDEST PUSH2 0x17C6 PUSH1 0xC0 DUP4 ADD DUP6 PUSH2 0x1755 JUMP JUMPDEST PUSH2 0x17D3 PUSH1 0xE0 DUP4 ADD DUP5 PUSH2 0x1755 JUMP JUMPDEST SWAP10 SWAP9 POP POP POP POP POP POP POP POP POP JUMP JUMPDEST PUSH2 0x17E9 DUP2 PUSH2 0x147A JUMP JUMPDEST DUP3 MSTORE POP POP JUMP JUMPDEST PUSH2 0x17F8 DUP2 PUSH2 0x172A JUMP JUMPDEST DUP3 MSTORE POP POP JUMP JUMPDEST PUSH2 0x1807 DUP2 PUSH2 0x163D JUMP JUMPDEST DUP3 MSTORE POP POP JUMP JUMPDEST PUSH2 0x1816 DUP2 PUSH2 0x174A JUMP JUMPDEST DUP3 MSTORE POP POP JUMP JUMPDEST PUSH2 0x100 DUP3 ADD PUSH0 DUP3 ADD MLOAD PUSH2 0x1831 PUSH0 DUP6 ADD DUP3 PUSH2 0x1512 JUMP JUMPDEST POP PUSH1 0x20 DUP3 ADD MLOAD PUSH2 0x1844 PUSH1 0x20 DUP6 ADD DUP3 PUSH2 0x17E0 JUMP JUMPDEST POP PUSH1 0x40 DUP3 ADD MLOAD PUSH2 0x1857 PUSH1 0x40 DUP6 ADD DUP3 PUSH2 0x17EF JUMP JUMPDEST POP PUSH1 0x60 DUP3 ADD MLOAD PUSH2 0x186A PUSH1 0x60 DUP6 ADD DUP3 PUSH2 0x1512 JUMP JUMPDEST POP PUSH1 0x80 DUP3 ADD MLOAD PUSH2 0x187D PUSH1 0x80 DUP6 ADD DUP3 PUSH2 0x1512 JUMP JUMPDEST POP PUSH1 0xA0 DUP3 ADD MLOAD PUSH2 0x1890 PUSH1 0xA0 DUP6 ADD DUP3 PUSH2 0x17FE JUMP JUMPDEST POP PUSH1 0xC0 DUP3 ADD MLOAD PUSH2 0x18A3 PUSH1 0xC0 DUP6 ADD DUP3 PUSH2 0x180D JUMP JUMPDEST POP PUSH1 0xE0 DUP3 ADD MLOAD PUSH2 0x18B6 PUSH1 0xE0 DUP6 ADD DUP3 PUSH2 0x180D JUMP JUMPDEST POP POP POP POP JUMP JUMPDEST PUSH0 PUSH2 0x100 DUP3 ADD SWAP1 POP PUSH2 0x18D0 PUSH0 DUP4 ADD DUP5 PUSH2 0x181C JUMP JUMPDEST SWAP3 SWAP2 POP POP JUMP JUMPDEST PUSH0 DUP3 DUP3 MSTORE PUSH1 0x20 DUP3 ADD SWAP1 POP SWAP3 SWAP2 POP POP JUMP JUMPDEST PUSH32 0x4E6F7420746865206F776E657200000000000000000000000000000000000000 PUSH0 DUP3 ADD MSTORE POP JUMP JUMPDEST PUSH0 PUSH2 0x191A PUSH1 0xD DUP4 PUSH2 0x18D6 JUMP JUMPDEST SWAP2 POP PUSH2 0x1925 DUP3 PUSH2 0x18E6 JUMP JUMPDEST PUSH1 0x20 DUP3 ADD SWAP1 POP SWAP2 SWAP1 POP JUMP JUMPDEST PUSH0 PUSH1 0x20 DUP3 ADD SWAP1 POP DUP2 DUP2 SUB PUSH0 DUP4 ADD MSTORE PUSH2 0x1947 DUP2 PUSH2 0x190E JUMP JUMPDEST SWAP1 POP SWAP2 SWAP1 POP JUMP JUMPDEST PUSH0 DUP2 SWAP1 POP SWAP3 SWAP2 POP POP JUMP JUMPDEST POP JUMP JUMPDEST PUSH0 PUSH2 0x1966 PUSH0 DUP4 PUSH2 0x194E JUMP JUMPDEST SWAP2 POP PUSH2 0x1971 DUP3 PUSH2 0x1958 JUMP JUMPDEST PUSH0 DUP3 ADD SWAP1 POP SWAP2 SWAP1 POP JUMP JUMPDEST PUSH0 PUSH2 0x1985 DUP3 PUSH2 0x195B JUMP JUMPDEST SWAP2 POP DUP2 SWAP1 POP SWAP2 SWAP1 POP JUMP JUMPDEST PUSH32 0x5472616E73666572206661696C65640000000000000000000000000000000000 PUSH0 DUP3 ADD MSTORE POP JUMP JUMPDEST PUSH0 PUSH2 0x19C3 PUSH1 0xF DUP4 PUSH2 0x18D6 JUMP JUMPDEST SWAP2 POP PUSH2 0x19CE DUP3 PUSH2 0x198F JUMP JUMPDEST PUSH1 0x20 DUP3 ADD SWAP1 POP SWAP2 SWAP1 POP JUMP JUMPDEST PUSH0 PUSH1 0x20 DUP3 ADD SWAP1 POP DUP2 DUP2 SUB PUSH0 DUP4 ADD MSTORE PUSH2 0x19F0 DUP2 PUSH2 0x19B7 JUMP JUMPDEST SWAP1 POP SWAP2 SWAP1 POP JUMP JUMPDEST PUSH32 0x496E73756666696369656E742066756E647320746F20706C616E742061207365 PUSH0 DUP3 ADD MSTORE PUSH32 0x6564000000000000000000000000000000000000000000000000000000000000 PUSH1 0x20 DUP3 ADD MSTORE POP JUMP JUMPDEST PUSH0 PUSH2 0x1A51 PUSH1 0x22 DUP4 PUSH2 0x18D6 JUMP JUMPDEST SWAP2 POP PUSH2 0x1A5C DUP3 PUSH2 0x19F7 JUMP JUMPDEST PUSH1 0x40 DUP3 ADD SWAP1 POP SWAP2 SWAP1 POP JUMP JUMPDEST PUSH0 PUSH1 0x20 DUP3 ADD SWAP1 POP DUP2 DUP2 SUB PUSH0 DUP4 ADD MSTORE PUSH2 0x1A7E DUP2 PUSH2 0x1A45 JUMP JUMPDEST SWAP1 POP SWAP2 SWAP1 POP JUMP JUMPDEST PUSH32 0x4E487B7100000000000000000000000000000000000000000000000000000000 PUSH0 MSTORE PUSH1 0x11 PUSH1 0x4 MSTORE PUSH1 0x24 PUSH0 REVERT JUMPDEST PUSH0 PUSH2 0x1ABC DUP3 PUSH2 0x1509 JUMP JUMPDEST SWAP2 POP PUSH32 0xFFFFFFFFFFFFFFFFFFFFFFFFFFFFFFFFFFFFFFFFFFFFFFFFFFFFFFFFFFFFFFFF DUP3 SUB PUSH2 0x1AEE JUMPI PUSH2 0x1AED PUSH2 0x1A85 JUMP JUMPDEST JUMPDEST PUSH1 0x1 DUP3 ADD SWAP1 POP SWAP2 SWAP1 POP JUMP JUMPDEST PUSH0 PUSH2 0x1B03 DUP3 PUSH2 0x1509 JUMP JUMPDEST SWAP2 POP PUSH2 0x1B0E DUP4 PUSH2 0x1509 JUMP JUMPDEST SWAP3 POP DUP3 DUP3 SUB SWAP1 POP DUP2 DUP2 GT ISZERO PUSH2 0x1B26 JUMPI PUSH2 0x1B25 PUSH2 0x1A85 JUMP JUMPDEST JUMPDEST SWAP3 SWAP2 POP POP JUMP JUMPDEST PUSH32 0x4E487B7100000000000000000000000000000000000000000000000000000000 PUSH0 MSTORE PUSH1 0x12 PUSH1 0x4 MSTORE PUSH1 0x24 PUSH0 REVERT JUMPDEST PUSH0 PUSH2 0x1B63 DUP3 PUSH2 0x1509 JUMP JUMPDEST SWAP2 POP PUSH2 0x1B6E DUP4 PUSH2 0x1509 JUMP JUMPDEST SWAP3 POP DUP3 PUSH2 0x1B7E JUMPI PUSH2 0x1B7D PUSH2 0x1B2C JUMP JUMPDEST JUMPDEST DUP3 DUP3 DIV SWAP1 POP SWAP3 SWAP2 POP POP JUMP JUMPDEST PUSH0 PUSH2 0x1B93 DUP3 PUSH2 0x1509 JUMP JUMPDEST SWAP2 POP PUSH2 0x1B9E DUP4 PUSH2 0x1509 JUMP JUMPDEST SWAP3 POP DUP3 DUP3 MUL PUSH2 0x1BAC DUP2 PUSH2 0x1509 JUMP JUMPDEST SWAP2 POP DUP3 DUP3 DIV DUP5 EQ DUP4 ISZERO OR PUSH2 0x1BC3 JUMPI PUSH2 0x1BC2 PUSH2 0x1A85 JUMP JUMPDEST JUMPDEST POP SWAP3 SWAP2 POP POP JUMP JUMPDEST PUSH32 0x506C616E74206E6F7420666F756E640000000000000000000000000000000000 PUSH0 DUP3 ADD MSTORE POP JUMP JUMPDEST PUSH0 PUSH2 0x1BFE PUSH1 0xF DUP4 PUSH2 0x18D6 JUMP JUMPDEST SWAP2 POP PUSH2 0x1C09 DUP3 PUSH2 0x1BCA JUMP JUMPDEST PUSH1 0x20 DUP3 ADD SWAP1 POP SWAP2 SWAP1 POP JUMP JUMPDEST PUSH0 PUSH1 0x20 DUP3 ADD SWAP1 POP DUP2 DUP2 SUB PUSH0 DUP4 ADD MSTORE PUSH2 0x1C2B DUP2 PUSH2 0x1BF2 JUMP JUMPDEST SWAP1 POP SWAP2 SWAP1 POP JUMP JUMPDEST PUSH32 0x506C616E74206973206465616400000000000000000000000000000000000000 PUSH0 DUP3 ADD MSTORE POP JUMP JUMPDEST PUSH0 PUSH2 0x1C66 PUSH1 0xD DUP4 PUSH2 0x18D6 JUMP JUMPDEST SWAP2 POP PUSH2 0x1C71 DUP3 PUSH2 0x1C32 JUMP JUMPDEST PUSH1 0x20 DUP3 ADD SWAP1 POP SWAP2 SWAP1 POP JUMP JUMPDEST PUSH0 PUSH1 0x20 DUP3 ADD SWAP1 POP DUP2 DUP2 SUB PUSH0 DUP4 ADD MSTORE PUSH2 0x1C93 DUP2 PUSH2 0x1C5A JUMP JUMPDEST SWAP1 POP SWAP2 SWAP1 POP JUMP JUMPDEST PUSH32 0x4D7573742073656E642045544800000000000000000000000000000000000000 PUSH0 DUP3 ADD MSTORE POP JUMP JUMPDEST PUSH0 PUSH2 0x1CCE PUSH1 0xD DUP4 PUSH2 0x18D6 JUMP JUMPDEST SWAP2 POP PUSH2 0x1CD9 DUP3 PUSH2 0x1C9A JUMP JUMPDEST PUSH1 0x20 DUP3 ADD SWAP1 POP SWAP2 SWAP1 POP JUMP JUMPDEST PUSH0 PUSH1 0x20 DUP3 ADD SWAP1 POP DUP2 DUP2 SUB PUSH0 DUP4 ADD MSTORE PUSH2 0x1CFB DUP2 PUSH2 0x1CC2 JUMP JUMPDEST SWAP1 POP SWAP2 SWAP1 POP JUMP JUMPDEST PUSH32 0x42756B616E206F776E6572000000000000000000000000000000000000000000 PUSH0 DUP3 ADD MSTORE POP JUMP JUMPDEST PUSH0 PUSH2 0x1D36 PUSH1 0xB DUP4 PUSH2 0x18D6 JUMP JUMPDEST SWAP2 POP PUSH2 0x1D41 DUP3 PUSH2 0x1D02 JUMP JUMPDEST PUSH1 0x20 DUP3 ADD SWAP1 POP SWAP2 SWAP1 POP JUMP JUMPDEST PUSH0 PUSH1 0x20 DUP3 ADD SWAP1 POP DUP2 DUP2 SUB PUSH0 DUP4 ADD MSTORE PUSH2 0x1D63 DUP2 PUSH2 0x1D2A JUMP JUMPDEST SWAP1 POP SWAP2 SWAP1 POP JUMP JUMPDEST PUSH32 0x54616E616D616E2062656C756D206269736120646970616E656E000000000000 PUSH0 DUP3 ADD MSTORE POP JUMP JUMPDEST PUSH0 PUSH2 0x1D9E PUSH1 0x1A DUP4 PUSH2 0x18D6 JUMP JUMPDEST SWAP2 POP PUSH2 0x1DA9 DUP3 PUSH2 0x1D6A JUMP JUMPDEST PUSH1 0x20 DUP3 ADD SWAP1 POP SWAP2 SWAP1 POP JUMP JUMPDEST PUSH0 PUSH1 0x20 DUP3 ADD SWAP1 POP DUP2 DUP2 SUB PUSH0 DUP4 ADD MSTORE PUSH2 0x1DCB DUP2 PUSH2 0x1D92 JUMP JUMPDEST SWAP1 POP SWAP2 SWAP1 POP JUMP JUMPDEST PUSH32 0x5472616E7366657220676167616C000000000000000000000000000000000000 PUSH0 DUP3 ADD MSTORE POP JUMP JUMPDEST PUSH0 PUSH2 0x1E06 PUSH1 0xE DUP4 PUSH2 0x18D6 JUMP JUMPDEST SWAP2 POP PUSH2 0x1E11 DUP3 PUSH2 0x1DD2 JUMP JUMPDEST PUSH1 0x20 DUP3 ADD SWAP1 POP SWAP2 SWAP1 POP JUMP JUMPDEST PUSH0 PUSH1 0x20 DUP3 ADD SWAP1 POP DUP2 DUP2 SUB PUSH0 DUP4 ADD MSTORE PUSH2 0x1E33 DUP2 PUSH2 0x1DFA JUMP JUMPDEST SWAP1 POP SWAP2 SWAP1 POP JUMP INVALID LOG2 PUSH5 0x6970667358 0x22 SLT KECCAK256 SWAP7 0xB1 0xD4 0xCA XOR 0xE9 SWAP12 PUSH30 0x252E509B9244751A9C7687D09315AC66DEA41389855BE0C264736F6C6343 STOP ADDMOD 0x1E STOP CALLER "
				},
				"gasEstimates": {
					"creation": {
						"codeDepositCost": "1558400",
						"executionCost": "25894",
						"totalCost": "1584294"
					},
					"external": {
						"HARVEST_REWARD()": "392",
						"PLANT_PRICE()": "347",
						"STAGE_DURATION()": "393",
						"WATER_DEPLETION_RATE()": "420",
						"WATER_DEPLETION_TIME()": "370",
						"calculateWaterLevel(uint256)": "infinite",
						"deposit()": "468",
						"getPlant(uint256)": "infinite",
						"getUserPlants(address)": "infinite",
						"harvestPlant(uint256)": "infinite",
						"owner()": "2619",
						"plantCounter()": "2492",
						"plantSeed()": "infinite",
						"plants(uint256)": "infinite",
						"updatePlantStage(uint256)": "infinite",
						"userPlants(address,uint256)": "infinite",
						"waterPlant(uint256)": "infinite",
						"withdraw()": "infinite"
					},
					"internal": {
						"updateWaterLevel(uint256)": "infinite"
					}
				},
				"methodIdentifiers": {
					"HARVEST_REWARD()": "891c0785",
					"PLANT_PRICE()": "cfc9a5f8",
					"STAGE_DURATION()": "51f9efde",
					"WATER_DEPLETION_RATE()": "bacb5ebd",
					"WATER_DEPLETION_TIME()": "7ed4c5be",
					"calculateWaterLevel(uint256)": "754e150d",
					"deposit()": "d0e30db0",
					"getPlant(uint256)": "ed0b1f5f",
					"getUserPlants(address)": "30cec0eb",
					"harvestPlant(uint256)": "e38f8448",
					"owner()": "8da5cb5b",
					"plantCounter()": "9c471749",
					"plantSeed()": "74119a38",
					"plants(uint256)": "8dd2361c",
					"updatePlantStage(uint256)": "ddd42596",
					"userPlants(address,uint256)": "8aee578b",
					"waterPlant(uint256)": "9886bcfa",
					"withdraw()": "3ccfd60b"
				}
			},
			"storageLayout": {
				"storage": [
					{
						"astId": 29,
						"contract": "contracts/LiskGarden.sol:LiskGarden",
						"label": "plants",
						"offset": 0,
						"slot": "0",
						"type": "t_mapping(t_uint256,t_struct(Plant)24_storage)"
					},
					{
						"astId": 34,
						"contract": "contracts/LiskGarden.sol:LiskGarden",
						"label": "userPlants",
						"offset": 0,
						"slot": "1",
						"type": "t_mapping(t_address,t_array(t_uint256)dyn_storage)"
					},
					{
						"astId": 36,
						"contract": "contracts/LiskGarden.sol:LiskGarden",
						"label": "plantCounter",
						"offset": 0,
						"slot": "2",
						"type": "t_uint256"
					},
					{
						"astId": 38,
						"contract": "contracts/LiskGarden.sol:LiskGarden",
						"label": "owner",
						"offset": 0,
						"slot": "3",
						"type": "t_address"
					}
				],
				"types": {
					"t_address": {
						"encoding": "inplace",
						"label": "address",
						"numberOfBytes": "20"
					},
					"t_array(t_uint256)dyn_storage": {
						"base": "t_uint256",
						"encoding": "dynamic_array",
						"label": "uint256[]",
						"numberOfBytes": "32"
					},
					"t_bool": {
						"encoding": "inplace",
						"label": "bool",
						"numberOfBytes": "1"
					},
					"t_enum(GrowthStage)6": {
						"encoding": "inplace",
						"label": "enum LiskGarden.GrowthStage",
						"numberOfBytes": "1"
					},
					"t_mapping(t_address,t_array(t_uint256)dyn_storage)": {
						"encoding": "mapping",
						"key": "t_address",
						"label": "mapping(address => uint256[])",
						"numberOfBytes": "32",
						"value": "t_array(t_uint256)dyn_storage"
					},
					"t_mapping(t_uint256,t_struct(Plant)24_storage)": {
						"encoding": "mapping",
						"key": "t_uint256",
						"label": "mapping(uint256 => struct LiskGarden.Plant)",
						"numberOfBytes": "32",
						"value": "t_struct(Plant)24_storage"
					},
					"t_struct(Plant)24_storage": {
						"encoding": "inplace",
						"label": "struct LiskGarden.Plant",
						"members": [
							{
								"astId": 8,
								"contract": "contracts/LiskGarden.sol:LiskGarden",
								"label": "id",
								"offset": 0,
								"slot": "0",
								"type": "t_uint256"
							},
							{
								"astId": 10,
								"contract": "contracts/LiskGarden.sol:LiskGarden",
								"label": "owner",
								"offset": 0,
								"slot": "1",
								"type": "t_address"
							},
							{
								"astId": 13,
								"contract": "contracts/LiskGarden.sol:LiskGarden",
								"label": "stage",
								"offset": 20,
								"slot": "1",
								"type": "t_enum(GrowthStage)6"
							},
							{
								"astId": 15,
								"contract": "contracts/LiskGarden.sol:LiskGarden",
								"label": "plantedDate",
								"offset": 0,
								"slot": "2",
								"type": "t_uint256"
							},
							{
								"astId": 17,
								"contract": "contracts/LiskGarden.sol:LiskGarden",
								"label": "lastWatered",
								"offset": 0,
								"slot": "3",
								"type": "t_uint256"
							},
							{
								"astId": 19,
								"contract": "contracts/LiskGarden.sol:LiskGarden",
								"label": "waterLevel",
								"offset": 0,
								"slot": "4",
								"type": "t_uint8"
							},
							{
								"astId": 21,
								"contract": "contracts/LiskGarden.sol:LiskGarden",
								"label": "exists",
								"offset": 1,
								"slot": "4",
								"type": "t_bool"
							},
							{
								"astId": 23,
								"contract": "contracts/LiskGarden.sol:LiskGarden",
								"label": "isDead",
								"offset": 2,
								"slot": "4",
								"type": "t_bool"
							}
						],
						"numberOfBytes": "160"
					},
					"t_uint256": {
						"encoding": "inplace",
						"label": "uint256",
						"numberOfBytes": "32"
					},
					"t_uint8": {
						"encoding": "inplace",
						"label": "uint8",
						"numberOfBytes": "1"
					}
				}
			},
			"userdoc": {
				"kind": "user",
				"methods": {},
				"version": 1
			}
		}
	}
}